{
  "contractName": "EscrowView",
  "abi": [
    {
      "inputs": [
        {
          "internalType": "address",
          "name": "disputesAddress",
          "type": "address"
        }
      ],
      "stateMutability": "nonpayable",
      "type": "constructor"
    },
    {
      "inputs": [],
      "name": "disputes",
      "outputs": [
        {
          "internalType": "contract IOnlineStoreDisputes",
          "name": "",
          "type": "address"
        }
      ],
      "stateMutability": "view",
      "type": "function"
    },
    {
      "inputs": [
        {
          "internalType": "uint256",
          "name": "orderId",
          "type": "uint256"
        }
      ],
      "name": "getOrderStatus",
      "outputs": [
        {
          "internalType": "enum IOnlineStoreDisputes.OrderStatus",
          "name": "",
          "type": "uint8"
        }
      ],
      "stateMutability": "view",
      "type": "function"
    },
    {
      "inputs": [
        {
          "internalType": "uint256",
          "name": "orderId",
          "type": "uint256"
        }
      ],
      "name": "getEscrowAmount",
      "outputs": [
        {
          "internalType": "uint256",
          "name": "",
          "type": "uint256"
        }
      ],
      "stateMutability": "view",
      "type": "function"
    }
  ],
  "bytecode": "0x608060405234801561001057600080fd5b506040516107623803806107628339818101604052810190610032919061014a565b600073ffffffffffffffffffffffffffffffffffffffff168173ffffffffffffffffffffffffffffffffffffffff16036100a1576040517f08c379a0000000000000000000000000000000000000000000000000000000008152600401610098906101d4565b60405180910390fd5b806000806101000a81548173ffffffffffffffffffffffffffffffffffffffff021916908373ffffffffffffffffffffffffffffffffffffffff160217905550506101f4565b600080fd5b600073ffffffffffffffffffffffffffffffffffffffff82169050919050565b6000610117826100ec565b9050919050565b6101278161010c565b811461013257600080fd5b50565b6000815190506101448161011e565b92915050565b6000602082840312156101605761015f6100e7565b5b600061016e84828501610135565b91505092915050565b600082825260208201905092915050565b7f496e76616c696420646973707574657320616464726573730000000000000000600082015250565b60006101be601883610177565b91506101c982610188565b602082019050919050565b600060208201905081810360008301526101ed816101b1565b9050919050565b61055f806102036000396000f3fe608060405234801561001057600080fd5b50600436106100415760003560e01c8063451ee1911461004657806345fa8aae14610076578063d4c5b252146100a6575b600080fd5b610060600480360381019061005b919061027b565b6100c4565b60405161006d91906102b7565b60405180910390f35b610090600480360381019061008b919061027b565b610170565b60405161009d9190610349565b60405180910390f35b6100ae61021c565b6040516100bb91906103e3565b60405180910390f35b60008060008054906101000a900473ffffffffffffffffffffffffffffffffffffffff1673ffffffffffffffffffffffffffffffffffffffff1663a85c38ef846040518263ffffffff1660e01b815260040161012091906102b7565b60a060405180830381865afa15801561013d573d6000803e3d6000fd5b505050506040513d601f19601f8201168201806040525081019061016191906104ae565b50509250505080915050919050565b60008060008054906101000a900473ffffffffffffffffffffffffffffffffffffffff1673ffffffffffffffffffffffffffffffffffffffff1663a85c38ef846040518263ffffffff1660e01b81526004016101cc91906102b7565b60a060405180830381865afa1580156101e9573d6000803e3d6000fd5b505050506040513d601f19601f8201168201806040525081019061020d91906104ae565b50935050505080915050919050565b60008054906101000a900473ffffffffffffffffffffffffffffffffffffffff1681565b600080fd5b6000819050919050565b61025881610245565b811461026357600080fd5b50565b6000813590506102758161024f565b92915050565b60006020828403121561029157610290610240565b5b600061029f84828501610266565b91505092915050565b6102b181610245565b82525050565b60006020820190506102cc60008301846102a8565b92915050565b7f4e487b7100000000000000000000000000000000000000000000000000000000600052602160045260246000fd5b60048110610312576103116102d2565b5b50565b600081905061032382610301565b919050565b600061033382610315565b9050919050565b61034381610328565b82525050565b600060208201905061035e600083018461033a565b92915050565b600073ffffffffffffffffffffffffffffffffffffffff82169050919050565b6000819050919050565b60006103a96103a461039f84610364565b610384565b610364565b9050919050565b60006103bb8261038e565b9050919050565b60006103cd826103b0565b9050919050565b6103dd816103c2565b82525050565b60006020820190506103f860008301846103d4565b92915050565b600061040982610364565b9050919050565b610419816103fe565b811461042457600080fd5b50565b60008151905061043681610410565b92915050565b60008151905061044b8161024f565b92915050565b6004811061045e57600080fd5b50565b60008151905061047081610451565b92915050565b60008115159050919050565b61048b81610476565b811461049657600080fd5b50565b6000815190506104a881610482565b92915050565b600080600080600060a086880312156104ca576104c9610240565b5b60006104d888828901610427565b95505060206104e988828901610427565b94505060406104fa8882890161043c565b935050606061050b88828901610461565b925050608061051c88828901610499565b915050929550929590935056fea2646970667358221220899e2439bde354fc37cc662ea78f1be5d0c8f23ccd5cc626c50cb018db9db22364736f6c63430008130033",
  "immutableReferences": {},
  "source": "// SPDX-License-Identifier: MIT\r\npragma solidity ^0.8.19;\r\n\r\n/*\r\nI declare that this code was written by me.\r\nI will not copy or allow others to copy my code.\r\nI understand that copying code is considered as plagiarism.\r\n\r\nStudent Name: Arut\r\nStudent ID: 24027003\r\nClass: C372-003\r\nDate created: 16/01/2026\r\n*/\r\n\r\ninterface IOnlineStoreDisputes {\r\n    enum OrderStatus {\r\n        None,\r\n        Paid,\r\n        Disputed,\r\n        Resolved\r\n    }\r\n\r\n    function orders(uint256 orderId)\r\n        external\r\n        view\r\n        returns (\r\n            address buyer,\r\n            address seller,\r\n            uint256 amount,\r\n            OrderStatus status,\r\n            bool payoutDone\r\n        );\r\n}\r\n\r\ncontract EscrowView {\r\n\r\n    IOnlineStoreDisputes public disputes;\r\n\r\n    constructor(address disputesAddress) {\r\n        require(disputesAddress != address(0), \"Invalid disputes address\");\r\n        disputes = IOnlineStoreDisputes(disputesAddress);\r\n    }\r\n\r\n    // ---------------------------------\r\n    // VIEW (READ-ONLY) FUNCTIONS\r\n    // ---------------------------------\r\n\r\n    // Returns current order status\r\n    function getOrderStatus(uint256 orderId)\r\n        external\r\n        view\r\n        returns (IOnlineStoreDisputes.OrderStatus)\r\n    {\r\n        (, , , IOnlineStoreDisputes.OrderStatus status, ) = disputes.orders(orderId);\r\n        return status;\r\n    }\r\n\r\n    // Returns escrowed USDC amount for the order\r\n    function getEscrowAmount(uint256 orderId)\r\n        external\r\n        view\r\n        returns (uint256)\r\n    {\r\n        (, , uint256 amount, , ) = disputes.orders(orderId);\r\n        return amount;\r\n    }\r\n}\r\n",
  "sourcePath": "C:\\republic poly\\Blockchian\\fa\\arut\\AnythingSGProject\\contracts\\View_Function.sol",
  "compiler": {
    "name": "solc",
    "version": "0.8.19+commit.7dd6d404.Emscripten.clang"
  },
  "schemaVersion": "3.4.16",
  "updatedAt": "2026-01-30T06:52:38.912Z",
  "devdoc": {
    "kind": "dev",
    "methods": {},
    "version": 1
  },
  "userdoc": {
    "kind": "user",
    "methods": {},
    "version": 1
  }
}