{
  "contractName": "EscrowRoles",
  "abi": [
    {
      "inputs": [],
      "stateMutability": "nonpayable",
      "type": "constructor"
    },
    {
      "anonymous": false,
      "inputs": [
        {
          "indexed": false,
          "internalType": "address",
          "name": "arbitrator",
          "type": "address"
        }
      ],
      "name": "ArbitratorAssigned",
      "type": "event"
    },
    {
      "anonymous": false,
      "inputs": [
        {
          "indexed": true,
          "internalType": "uint256",
          "name": "orderId",
          "type": "uint256"
        },
        {
          "indexed": false,
          "internalType": "address",
          "name": "courier",
          "type": "address"
        }
      ],
      "name": "CourierAssigned",
      "type": "event"
    },
    {
      "inputs": [],
      "name": "arbitrator",
      "outputs": [
        {
          "internalType": "address",
          "name": "",
          "type": "address"
        }
      ],
      "stateMutability": "view",
      "type": "function"
    },
    {
      "inputs": [],
      "name": "owner",
      "outputs": [
        {
          "internalType": "address",
          "name": "",
          "type": "address"
        }
      ],
      "stateMutability": "view",
      "type": "function"
    },
    {
      "inputs": [
        {
          "internalType": "uint256",
          "name": "orderId",
          "type": "uint256"
        },
        {
          "internalType": "address",
          "name": "courier",
          "type": "address"
        }
      ],
      "name": "setCourier",
      "outputs": [],
      "stateMutability": "nonpayable",
      "type": "function"
    },
    {
      "inputs": [
        {
          "internalType": "address",
          "name": "_arbitrator",
          "type": "address"
        }
      ],
      "name": "assignArbitrator",
      "outputs": [],
      "stateMutability": "nonpayable",
      "type": "function"
    },
    {
      "inputs": [
        {
          "internalType": "uint256",
          "name": "orderId",
          "type": "uint256"
        }
      ],
      "name": "getOrderRoles",
      "outputs": [
        {
          "internalType": "address",
          "name": "buyer",
          "type": "address"
        },
        {
          "internalType": "address",
          "name": "seller",
          "type": "address"
        },
        {
          "internalType": "address",
          "name": "courier",
          "type": "address"
        }
      ],
      "stateMutability": "view",
      "type": "function"
    }
  ],
  "bytecode": "0x608060405234801561001057600080fd5b50336000806101000a81548173ffffffffffffffffffffffffffffffffffffffff021916908373ffffffffffffffffffffffffffffffffffffffff160217905550610784806100606000396000f3fe608060405234801561001057600080fd5b50600436106100575760003560e01c8063232667a31461005c5780636cc6cde11461007857806377237ad6146100965780638da5cb5b146100c8578063e237c361146100e6575b600080fd5b6100766004803603810190610071919061056a565b610102565b005b610080610239565b60405161008d91906105b9565b60405180910390f35b6100b060048036038101906100ab91906105d4565b61025f565b6040516100bf93929190610601565b60405180910390f35b6100d06103a4565b6040516100dd91906105b9565b60405180910390f35b61010060048036038101906100fb9190610638565b6103c8565b005b816002600082815260200190815260200160002060010160009054906101000a900473ffffffffffffffffffffffffffffffffffffffff1673ffffffffffffffffffffffffffffffffffffffff163373ffffffffffffffffffffffffffffffffffffffff16146101a7576040517f08c379a000000000000000000000000000000000000000000000000000000000815260040161019e906106c2565b60405180910390fd5b816002600085815260200190815260200160002060020160006101000a81548173ffffffffffffffffffffffffffffffffffffffff021916908373ffffffffffffffffffffffffffffffffffffffff160217905550827f03886d1fed35a3263522439dc8d082cf2bdb47b78ab42d4aa3cab0fba157d6598360405161022c91906105b9565b60405180910390a2505050565b600160009054906101000a900473ffffffffffffffffffffffffffffffffffffffff1681565b600080600080600260008681526020019081526020016000206040518060600160405290816000820160009054906101000a900473ffffffffffffffffffffffffffffffffffffffff1673ffffffffffffffffffffffffffffffffffffffff1673ffffffffffffffffffffffffffffffffffffffff1681526020016001820160009054906101000a900473ffffffffffffffffffffffffffffffffffffffff1673ffffffffffffffffffffffffffffffffffffffff1673ffffffffffffffffffffffffffffffffffffffff1681526020016002820160009054906101000a900473ffffffffffffffffffffffffffffffffffffffff1673ffffffffffffffffffffffffffffffffffffffff1673ffffffffffffffffffffffffffffffffffffffff16815250509050806000015181602001518260400151935093509350509193909250565b60008054906101000a900473ffffffffffffffffffffffffffffffffffffffff1681565b60008054906101000a900473ffffffffffffffffffffffffffffffffffffffff1673ffffffffffffffffffffffffffffffffffffffff163373ffffffffffffffffffffffffffffffffffffffff1614610456576040517f08c379a000000000000000000000000000000000000000000000000000000000815260040161044d9061072e565b60405180910390fd5b80600160006101000a81548173ffffffffffffffffffffffffffffffffffffffff021916908373ffffffffffffffffffffffffffffffffffffffff1602179055507f15553b2160018e09e4f7d09e547711e136a2b5dce117a8f3ef2ada919052f095816040516104c691906105b9565b60405180910390a150565b600080fd5b6000819050919050565b6104e9816104d6565b81146104f457600080fd5b50565b600081359050610506816104e0565b92915050565b600073ffffffffffffffffffffffffffffffffffffffff82169050919050565b60006105378261050c565b9050919050565b6105478161052c565b811461055257600080fd5b50565b6000813590506105648161053e565b92915050565b60008060408385031215610581576105806104d1565b5b600061058f858286016104f7565b92505060206105a085828601610555565b9150509250929050565b6105b38161052c565b82525050565b60006020820190506105ce60008301846105aa565b92915050565b6000602082840312156105ea576105e96104d1565b5b60006105f8848285016104f7565b91505092915050565b600060608201905061061660008301866105aa565b61062360208301856105aa565b61063060408301846105aa565b949350505050565b60006020828403121561064e5761064d6104d1565b5b600061065c84828501610555565b91505092915050565b600082825260208201905092915050565b7f4e6f742073656c6c657200000000000000000000000000000000000000000000600082015250565b60006106ac600a83610665565b91506106b782610676565b602082019050919050565b600060208201905081810360008301526106db8161069f565b9050919050565b7f4e6f7420706c6174666f726d206f776e65720000000000000000000000000000600082015250565b6000610718601283610665565b9150610723826106e2565b602082019050919050565b600060208201905081810360008301526107478161070b565b905091905056fea26469706673582212202133c0998e5e450aa6306ad86122a9ce27fb0592339bda334203c7678244834664736f6c63430008130033",
  "immutableReferences": {},
  "source": "// SPDX-License-Identifier: MIT\npragma solidity ^0.8.19;\n\ncontract EscrowRoles {\n    /*//////////////////////////////////////////////////////////////\n                                ROLES\n    //////////////////////////////////////////////////////////////*/\n\n    address public owner;\n    address public arbitrator;\n\n    struct OrderRoles {\n        address buyer;\n        address seller;\n        address courier;\n    }\n\n    mapping(uint256 => OrderRoles) internal orderRoles;\n\n    /*//////////////////////////////////////////////////////////////\n                                EVENTS\n    //////////////////////////////////////////////////////////////*/\n\n    event CourierAssigned(uint256 indexed orderId, address courier);\n    event ArbitratorAssigned(address arbitrator);\n\n    /*//////////////////////////////////////////////////////////////\n                              MODIFIERS\n    //////////////////////////////////////////////////////////////*/\n\n    modifier onlyOwner() {\n        require(msg.sender == owner, \"Not platform owner\");\n        _;\n    }\n\n    modifier onlyBuyer(uint256 orderId) {\n        require(msg.sender == orderRoles[orderId].buyer, \"Not buyer\");\n        _;\n    }\n\n    modifier onlySeller(uint256 orderId) {\n        require(msg.sender == orderRoles[orderId].seller, \"Not seller\");\n        _;\n    }\n\n    modifier onlyCourier(uint256 orderId) {\n        require(msg.sender == orderRoles[orderId].courier, \"Not courier\");\n        _;\n    }\n\n    modifier onlyArbitrator() {\n        require(msg.sender == arbitrator, \"Not arbitrator\");\n        _;\n    }\n\n    /*//////////////////////////////////////////////////////////////\n                              CONSTRUCTOR\n    //////////////////////////////////////////////////////////////*/\n\n    constructor() {\n        owner = msg.sender;\n    }\n\n    /*//////////////////////////////////////////////////////////////\n                          ROLE ASSIGNMENT\n    //////////////////////////////////////////////////////////////*/\n\n    function _setOrderParties(\n        uint256 orderId,\n        address buyer,\n        address seller\n    ) internal {\n        orderRoles[orderId].buyer = buyer;\n        orderRoles[orderId].seller = seller;\n    }\n\n    function setCourier(\n        uint256 orderId,\n        address courier\n    ) external onlySeller(orderId) {\n        orderRoles[orderId].courier = courier;\n        emit CourierAssigned(orderId, courier);\n    }\n\n    function assignArbitrator(\n        address _arbitrator\n    ) external onlyOwner {\n        arbitrator = _arbitrator;\n        emit ArbitratorAssigned(_arbitrator);\n    }\n\n    /*//////////////////////////////////////////////////////////////\n                          VIEW HELPERS\n    //////////////////////////////////////////////////////////////*/\n\n    function getOrderRoles(\n        uint256 orderId\n    )\n        external\n        view\n        returns (\n            address buyer,\n            address seller,\n            address courier\n        )\n    {\n        OrderRoles memory r = orderRoles[orderId];\n        return (r.buyer, r.seller, r.courier);\n    }\n}\n",
  "sourcePath": "C:\\republic polytechnic\\A2025 semester 2\\C373 Distributed Ledger Technology Solutioning\\FA\\Testing\\AnythingSGProject-main\\contracts\\Roles&Access.sol",
  "compiler": {
    "name": "solc",
    "version": "0.8.19+commit.7dd6d404.Emscripten.clang"
  },
  "schemaVersion": "3.4.16",
  "updatedAt": "2026-01-29T21:01:48.977Z",
  "devdoc": {
    "kind": "dev",
    "methods": {},
    "version": 1
  },
  "userdoc": {
    "kind": "user",
    "methods": {},
    "version": 1
  }
}