{
  "contractName": "OnlineStoreDisputes",
  "abi": [
    {
      "inputs": [],
      "stateMutability": "nonpayable",
      "type": "constructor"
    },
    {
      "anonymous": false,
      "inputs": [
        {
          "indexed": true,
          "internalType": "uint256",
          "name": "orderId",
          "type": "uint256"
        },
        {
          "indexed": true,
          "internalType": "address",
          "name": "openedBy",
          "type": "address"
        },
        {
          "indexed": false,
          "internalType": "string",
          "name": "reason",
          "type": "string"
        }
      ],
      "name": "DisputeRaised",
      "type": "event"
    },
    {
      "anonymous": false,
      "inputs": [
        {
          "indexed": true,
          "internalType": "uint256",
          "name": "orderId",
          "type": "uint256"
        },
        {
          "indexed": false,
          "internalType": "enum OnlineStoreDisputes.DisputeOutcome",
          "name": "outcome",
          "type": "uint8"
        }
      ],
      "name": "DisputeResolved",
      "type": "event"
    },
    {
      "anonymous": false,
      "inputs": [
        {
          "indexed": true,
          "internalType": "uint256",
          "name": "orderId",
          "type": "uint256"
        }
      ],
      "name": "OrderCompleted",
      "type": "event"
    },
    {
      "anonymous": false,
      "inputs": [
        {
          "indexed": true,
          "internalType": "uint256",
          "name": "orderId",
          "type": "uint256"
        },
        {
          "indexed": true,
          "internalType": "address",
          "name": "buyer",
          "type": "address"
        },
        {
          "indexed": true,
          "internalType": "address",
          "name": "seller",
          "type": "address"
        },
        {
          "indexed": false,
          "internalType": "uint256",
          "name": "amount",
          "type": "uint256"
        }
      ],
      "name": "OrderCreated",
      "type": "event"
    },
    {
      "anonymous": false,
      "inputs": [
        {
          "indexed": true,
          "internalType": "uint256",
          "name": "orderId",
          "type": "uint256"
        },
        {
          "indexed": false,
          "internalType": "uint256",
          "name": "feeAmount",
          "type": "uint256"
        },
        {
          "indexed": false,
          "internalType": "uint256",
          "name": "orderAmount",
          "type": "uint256"
        },
        {
          "indexed": true,
          "internalType": "address",
          "name": "seller",
          "type": "address"
        }
      ],
      "name": "PlatformFeeCollected",
      "type": "event"
    },
    {
      "anonymous": false,
      "inputs": [
        {
          "indexed": false,
          "internalType": "uint256",
          "name": "previousFeeBP",
          "type": "uint256"
        },
        {
          "indexed": false,
          "internalType": "uint256",
          "name": "newFeeBP",
          "type": "uint256"
        }
      ],
      "name": "PlatformFeeUpdated",
      "type": "event"
    },
    {
      "anonymous": false,
      "inputs": [
        {
          "indexed": false,
          "internalType": "uint256",
          "name": "amount",
          "type": "uint256"
        },
        {
          "indexed": true,
          "internalType": "address",
          "name": "to",
          "type": "address"
        }
      ],
      "name": "PlatformFeesWithdrawn",
      "type": "event"
    },
    {
      "inputs": [],
      "name": "arbitrator",
      "outputs": [
        {
          "internalType": "address",
          "name": "",
          "type": "address"
        }
      ],
      "stateMutability": "view",
      "type": "function",
      "constant": true
    },
    {
      "inputs": [
        {
          "internalType": "uint256",
          "name": "amount",
          "type": "uint256"
        }
      ],
      "name": "calculatePlatformFee",
      "outputs": [
        {
          "internalType": "uint256",
          "name": "",
          "type": "uint256"
        }
      ],
      "stateMutability": "view",
      "type": "function",
      "constant": true
    },
    {
      "inputs": [
        {
          "internalType": "uint256",
          "name": "",
          "type": "uint256"
        }
      ],
      "name": "disputes",
      "outputs": [
        {
          "internalType": "bool",
          "name": "exists",
          "type": "bool"
        },
        {
          "internalType": "address",
          "name": "openedBy",
          "type": "address"
        },
        {
          "internalType": "string",
          "name": "reason",
          "type": "string"
        },
        {
          "internalType": "enum OnlineStoreDisputes.DisputeOutcome",
          "name": "outcome",
          "type": "uint8"
        }
      ],
      "stateMutability": "view",
      "type": "function",
      "constant": true
    },
    {
      "inputs": [
        {
          "internalType": "uint256",
          "name": "",
          "type": "uint256"
        }
      ],
      "name": "escrows",
      "outputs": [
        {
          "internalType": "address",
          "name": "buyer",
          "type": "address"
        },
        {
          "internalType": "address",
          "name": "seller",
          "type": "address"
        },
        {
          "internalType": "uint256",
          "name": "amount",
          "type": "uint256"
        },
        {
          "internalType": "uint256",
          "name": "feeBPAtLock",
          "type": "uint256"
        },
        {
          "internalType": "enum EscrowPayment.EscrowStatus",
          "name": "status",
          "type": "uint8"
        }
      ],
      "stateMutability": "view",
      "type": "function",
      "constant": true
    },
    {
      "inputs": [
        {
          "internalType": "uint256",
          "name": "orderId",
          "type": "uint256"
        }
      ],
      "name": "getEscrow",
      "outputs": [
        {
          "internalType": "address",
          "name": "",
          "type": "address"
        },
        {
          "internalType": "address",
          "name": "",
          "type": "address"
        },
        {
          "internalType": "uint256",
          "name": "",
          "type": "uint256"
        },
        {
          "internalType": "enum EscrowPayment.EscrowStatus",
          "name": "",
          "type": "uint8"
        }
      ],
      "stateMutability": "view",
      "type": "function",
      "constant": true
    },
    {
      "inputs": [],
      "name": "nextOrderId",
      "outputs": [
        {
          "internalType": "uint256",
          "name": "",
          "type": "uint256"
        }
      ],
      "stateMutability": "view",
      "type": "function",
      "constant": true
    },
    {
      "inputs": [],
      "name": "orderTracking",
      "outputs": [
        {
          "internalType": "contract IOrderTracking",
          "name": "",
          "type": "address"
        }
      ],
      "stateMutability": "view",
      "type": "function",
      "constant": true
    },
    {
      "inputs": [
        {
          "internalType": "uint256",
          "name": "",
          "type": "uint256"
        }
      ],
      "name": "orders",
      "outputs": [
        {
          "internalType": "address",
          "name": "buyer",
          "type": "address"
        },
        {
          "internalType": "address",
          "name": "seller",
          "type": "address"
        },
        {
          "internalType": "uint256",
          "name": "amount",
          "type": "uint256"
        },
        {
          "internalType": "enum OnlineStoreDisputes.OrderStatus",
          "name": "status",
          "type": "uint8"
        },
        {
          "internalType": "bool",
          "name": "payoutDone",
          "type": "bool"
        }
      ],
      "stateMutability": "view",
      "type": "function",
      "constant": true
    },
    {
      "inputs": [],
      "name": "owner",
      "outputs": [
        {
          "internalType": "address payable",
          "name": "",
          "type": "address"
        }
      ],
      "stateMutability": "view",
      "type": "function",
      "constant": true
    },
    {
      "inputs": [],
      "name": "platformBalance",
      "outputs": [
        {
          "internalType": "uint256",
          "name": "",
          "type": "uint256"
        }
      ],
      "stateMutability": "view",
      "type": "function",
      "constant": true
    },
    {
      "inputs": [],
      "name": "platformFeeBP",
      "outputs": [
        {
          "internalType": "uint256",
          "name": "",
          "type": "uint256"
        }
      ],
      "stateMutability": "view",
      "type": "function",
      "constant": true
    },
    {
      "inputs": [
        {
          "internalType": "uint256",
          "name": "_feeBP",
          "type": "uint256"
        }
      ],
      "name": "setPlatformFee",
      "outputs": [],
      "stateMutability": "nonpayable",
      "type": "function"
    },
    {
      "inputs": [],
      "name": "withdrawPlatformFees",
      "outputs": [],
      "stateMutability": "nonpayable",
      "type": "function"
    },
    {
      "inputs": [
        {
          "internalType": "address",
          "name": "orderTrackingAddress",
          "type": "address"
        }
      ],
      "name": "setOrderTracking",
      "outputs": [],
      "stateMutability": "nonpayable",
      "type": "function"
    },
    {
      "inputs": [
        {
          "internalType": "address",
          "name": "newArbitrator",
          "type": "address"
        }
      ],
      "name": "changeArbitrator",
      "outputs": [],
      "stateMutability": "nonpayable",
      "type": "function"
    },
    {
      "inputs": [
        {
          "internalType": "address",
          "name": "seller",
          "type": "address"
        },
        {
          "internalType": "uint256",
          "name": "amount",
          "type": "uint256"
        }
      ],
      "name": "createOrder",
      "outputs": [
        {
          "internalType": "uint256",
          "name": "",
          "type": "uint256"
        }
      ],
      "stateMutability": "payable",
      "type": "function",
      "payable": true
    },
    {
      "inputs": [
        {
          "internalType": "uint256",
          "name": "orderId",
          "type": "uint256"
        },
        {
          "internalType": "string",
          "name": "reason",
          "type": "string"
        }
      ],
      "name": "raiseDispute",
      "outputs": [],
      "stateMutability": "nonpayable",
      "type": "function"
    },
    {
      "inputs": [
        {
          "internalType": "uint256",
          "name": "orderId",
          "type": "uint256"
        },
        {
          "internalType": "enum OnlineStoreDisputes.DisputeOutcome",
          "name": "outcome",
          "type": "uint8"
        }
      ],
      "name": "resolveDispute",
      "outputs": [],
      "stateMutability": "nonpayable",
      "type": "function"
    },
    {
      "inputs": [
        {
          "internalType": "uint256",
          "name": "orderId",
          "type": "uint256"
        }
      ],
      "name": "approveRefund",
      "outputs": [],
      "stateMutability": "nonpayable",
      "type": "function"
    },
    {
      "inputs": [
        {
          "internalType": "uint256",
          "name": "orderId",
          "type": "uint256"
        }
      ],
      "name": "rejectRefund",
      "outputs": [],
      "stateMutability": "nonpayable",
      "type": "function"
    },
    {
      "inputs": [
        {
          "internalType": "uint256",
          "name": "orderId",
          "type": "uint256"
        }
      ],
      "name": "completeOrder",
      "outputs": [],
      "stateMutability": "nonpayable",
      "type": "function"
    },
    {
      "inputs": [
        {
          "internalType": "uint256",
          "name": "orderId",
          "type": "uint256"
        },
        {
          "internalType": "address",
          "name": "user",
          "type": "address"
        }
      ],
      "name": "canRaiseDispute",
      "outputs": [
        {
          "internalType": "bool",
          "name": "",
          "type": "bool"
        }
      ],
      "stateMutability": "view",
      "type": "function",
      "constant": true
    }
  ],
  "bytecode": "0x608060405260c860025534801561001557600080fd5b50336000806101000a81548173ffffffffffffffffffffffffffffffffffffffff021916908373ffffffffffffffffffffffffffffffffffffffff16021790555033600460006101000a81548173ffffffffffffffffffffffffffffffffffffffff021916908373ffffffffffffffffffffffffffffffffffffffff16021790555060016008819055506142e6806100ae6000396000f3fe6080604052600436106101355760003560e01c80636cc6cde1116100ab578063b6adaaff1161006f578063b6adaaff1461045f578063d0b7830b14610488578063e22b81a81461049f578063e55e4211146104ca578063fc548f08146104f3578063ff96092a1461051c57610135565b80636cc6cde11461035f5780636f0203ba1461038a5780637d19e596146103b35780638da5cb5b146103f3578063a85c38ef1461041e57610135565b8063348a71a6116100fd578063348a71a6146102355780633ea73c161461025e578063564a565d1461029b5780635aef573c146102db57806362a5dbbc146103045780636c16b5451461032f57610135565b8063012f52ee1461013a5780630cbab4f71461017b57806312e8e2c3146101b85780632a58b330146101e15780632c0c80811461020c575b600080fd5b34801561014657600080fd5b50610161600480360381019061015c9190612864565b610547565b604051610172959493929190612958565b60405180910390f35b34801561018757600080fd5b506101a2600480360381019061019d9190612864565b6105ca565b6040516101af91906129ab565b60405180910390f35b3480156101c457600080fd5b506101df60048036038101906101da9190612864565b6105ee565b005b3480156101ed57600080fd5b506101f661070c565b60405161020391906129ab565b60405180910390f35b34801561021857600080fd5b50610233600480360381019061022e91906129f2565b610712565b005b34801561024157600080fd5b5061025c60048036038101906102579190612864565b610853565b005b34801561026a57600080fd5b5061028560048036038101906102809190612a1f565b6108f1565b6040516102929190612a7a565b60405180910390f35b3480156102a757600080fd5b506102c260048036038101906102bd9190612864565b610a44565b6040516102d29493929190612b6d565b60405180910390f35b3480156102e757600080fd5b5061030260048036038101906102fd9190612cee565b610b36565b005b34801561031057600080fd5b50610319610eac565b60405161032691906129ab565b60405180910390f35b61034960048036038101906103449190612d4a565b610eb2565b60405161035691906129ab565b60405180910390f35b34801561036b57600080fd5b50610374611164565b6040516103819190612d8a565b60405180910390f35b34801561039657600080fd5b506103b160048036038101906103ac9190612864565b61118a565b005b3480156103bf57600080fd5b506103da60048036038101906103d59190612864565b611228565b6040516103ea9493929190612da5565b60405180910390f35b3480156103ff57600080fd5b506104086112b6565b6040516104159190612e0b565b60405180910390f35b34801561042a57600080fd5b5061044560048036038101906104409190612864565b6112da565b604051610456959493929190612e6e565b60405180910390f35b34801561046b57600080fd5b5061048660048036038101906104819190612864565b61136a565b005b34801561049457600080fd5b5061049d611645565b005b3480156104ab57600080fd5b506104b4611866565b6040516104c19190612f20565b60405180910390f35b3480156104d657600080fd5b506104f160048036038101906104ec9190612f60565b61188c565b005b3480156104ff57600080fd5b5061051a600480360381019061051591906129f2565b611c2f565b005b34801561052857600080fd5b50610531611d72565b60405161053e91906129ab565b60405180910390f35b60016020528060005260406000206000915090508060000160009054906101000a900473ffffffffffffffffffffffffffffffffffffffff16908060010160009054906101000a900473ffffffffffffffffffffffffffffffffffffffff16908060020154908060030154908060040160009054906101000a900460ff16905085565b6000612710600254836105dd9190612fcf565b6105e79190613040565b9050919050565b60008054906101000a900473ffffffffffffffffffffffffffffffffffffffff1673ffffffffffffffffffffffffffffffffffffffff163373ffffffffffffffffffffffffffffffffffffffff161461067c576040517f08c379a0000000000000000000000000000000000000000000000000000000008152600401610673906130bd565b60405180910390fd5b6101f48111156106c1576040517f08c379a00000000000000000000000000000000000000000000000000000000081526004016106b890613129565b60405180910390fd5b60006002549050816002819055507fd347e206f25a89b917fc9482f1a2d294d749baa4dc9bde7fb495ee11fe4916438183604051610700929190613149565b60405180910390a15050565b60085481565b60008054906101000a900473ffffffffffffffffffffffffffffffffffffffff1673ffffffffffffffffffffffffffffffffffffffff163373ffffffffffffffffffffffffffffffffffffffff16146107a0576040517f08c379a0000000000000000000000000000000000000000000000000000000008152600401610797906130bd565b60405180910390fd5b600073ffffffffffffffffffffffffffffffffffffffff168173ffffffffffffffffffffffffffffffffffffffff160361080f576040517f08c379a0000000000000000000000000000000000000000000000000000000008152600401610806906131be565b60405180910390fd5b80600560006101000a81548173ffffffffffffffffffffffffffffffffffffffff021916908373ffffffffffffffffffffffffffffffffffffffff16021790555050565b600460009054906101000a900473ffffffffffffffffffffffffffffffffffffffff1673ffffffffffffffffffffffffffffffffffffffff163373ffffffffffffffffffffffffffffffffffffffff16146108e3576040517f08c379a00000000000000000000000000000000000000000000000000000000081526004016108da9061322a565b60405180910390fd5b6108ee81600161188c565b50565b60008060066000858152602001908152602001600020905060008160000160009054906101000a900473ffffffffffffffffffffffffffffffffffffffff1673ffffffffffffffffffffffffffffffffffffffff168473ffffffffffffffffffffffffffffffffffffffff1614806109b857508160010160009054906101000a900473ffffffffffffffffffffffffffffffffffffffff1673ffffffffffffffffffffffffffffffffffffffff168473ffffffffffffffffffffffffffffffffffffffff16145b90506000600160038111156109d0576109cf6128e1565b5b8360030160009054906101000a900460ff1660038111156109f4576109f36128e1565b5b14905060008015156007600089815260200190815260200160002060000160009054906101000a900460ff161515149050828015610a2f5750815b8015610a385750805b94505050505092915050565b60076020528060005260406000206000915090508060000160009054906101000a900460ff16908060000160019054906101000a900473ffffffffffffffffffffffffffffffffffffffff1690806001018054610aa090613279565b80601f0160208091040260200160405190810160405280929190818152602001828054610acc90613279565b8015610b195780601f10610aee57610100808354040283529160200191610b19565b820191906000526020600020905b815481529060010190602001808311610afc57829003601f168201915b5050505050908060020160009054906101000a900460ff16905084565b600060066000848152602001908152602001600020905060016003811115610b6157610b606128e1565b5b8160030160009054906101000a900460ff166003811115610b8557610b846128e1565b5b14610bc5576040517f08c379a0000000000000000000000000000000000000000000000000000000008152600401610bbc906132f6565b60405180910390fd5b8060000160009054906101000a900473ffffffffffffffffffffffffffffffffffffffff1673ffffffffffffffffffffffffffffffffffffffff163373ffffffffffffffffffffffffffffffffffffffff161480610c7257508060010160009054906101000a900473ffffffffffffffffffffffffffffffffffffffff1673ffffffffffffffffffffffffffffffffffffffff163373ffffffffffffffffffffffffffffffffffffffff16145b610cb1576040517f08c379a0000000000000000000000000000000000000000000000000000000008152600401610ca890613362565b60405180910390fd5b600015156007600085815260200190815260200160002060000160009054906101000a900460ff16151514610d1b576040517f08c379a0000000000000000000000000000000000000000000000000000000008152600401610d12906133ce565b60405180910390fd5b60405180608001604052806001151581526020013373ffffffffffffffffffffffffffffffffffffffff16815260200183815260200160006002811115610d6557610d646128e1565b5b8152506007600085815260200190815260200160002060008201518160000160006101000a81548160ff02191690831515021790555060208201518160000160016101000a81548173ffffffffffffffffffffffffffffffffffffffff021916908373ffffffffffffffffffffffffffffffffffffffff1602179055506040820151816001019081610df79190613590565b5060608201518160020160006101000a81548160ff02191690836002811115610e2357610e226128e1565b5b021790555090505060028160030160006101000a81548160ff02191690836003811115610e5357610e526128e1565b5b02179055503373ffffffffffffffffffffffffffffffffffffffff16837f1b84372106d77c6daea0dda35bbc0229d10a83f58ec89909288492519368234184604051610e9f9190613662565b60405180910390a3505050565b60035481565b60008073ffffffffffffffffffffffffffffffffffffffff168373ffffffffffffffffffffffffffffffffffffffff1603610f22576040517f08c379a0000000000000000000000000000000000000000000000000000000008152600401610f19906136d0565b60405180910390fd5b60008211610f65576040517f08c379a0000000000000000000000000000000000000000000000000000000008152600401610f5c9061373c565b60405180910390fd5b600060085490506001600854610f7b919061375c565b600881905550610f8d81338686611d78565b6040518060a001604052803373ffffffffffffffffffffffffffffffffffffffff1681526020018573ffffffffffffffffffffffffffffffffffffffff16815260200184815260200160016003811115610fea57610fe96128e1565b5b8152602001600015158152506006600083815260200190815260200160002060008201518160000160006101000a81548173ffffffffffffffffffffffffffffffffffffffff021916908373ffffffffffffffffffffffffffffffffffffffff16021790555060208201518160010160006101000a81548173ffffffffffffffffffffffffffffffffffffffff021916908373ffffffffffffffffffffffffffffffffffffffff1602179055506040820151816002015560608201518160030160006101000a81548160ff021916908360038111156110cc576110cb6128e1565b5b021790555060808201518160030160016101000a81548160ff0219169083151502179055509050508373ffffffffffffffffffffffffffffffffffffffff163373ffffffffffffffffffffffffffffffffffffffff16827ff9e17940e547201709f9aaacdec8ab3566601c60d8f5affb54f74b79b0b50b138660405161115291906129ab565b60405180910390a48091505092915050565b600460009054906101000a900473ffffffffffffffffffffffffffffffffffffffff1681565b600460009054906101000a900473ffffffffffffffffffffffffffffffffffffffff1673ffffffffffffffffffffffffffffffffffffffff163373ffffffffffffffffffffffffffffffffffffffff161461121a576040517f08c379a00000000000000000000000000000000000000000000000000000000081526004016112119061322a565b60405180910390fd5b61122581600261188c565b50565b60008060008060006001600087815260200190815260200160002090508060000160009054906101000a900473ffffffffffffffffffffffffffffffffffffffff168160010160009054906101000a900473ffffffffffffffffffffffffffffffffffffffff1682600201548360040160009054906101000a900460ff169450945094509450509193509193565b60008054906101000a900473ffffffffffffffffffffffffffffffffffffffff1681565b60066020528060005260406000206000915090508060000160009054906101000a900473ffffffffffffffffffffffffffffffffffffffff16908060010160009054906101000a900473ffffffffffffffffffffffffffffffffffffffff16908060020154908060030160009054906101000a900460ff16908060030160019054906101000a900460ff16905085565b60006006600083815260200190815260200160002090508060000160009054906101000a900473ffffffffffffffffffffffffffffffffffffffff1673ffffffffffffffffffffffffffffffffffffffff163373ffffffffffffffffffffffffffffffffffffffff16148061142e57508060010160009054906101000a900473ffffffffffffffffffffffffffffffffffffffff1673ffffffffffffffffffffffffffffffffffffffff163373ffffffffffffffffffffffffffffffffffffffff16145b8061143f575061143e82336120c1565b5b61147e576040517f08c379a000000000000000000000000000000000000000000000000000000000815260040161147590613802565b60405180910390fd5b60016003811115611492576114916128e1565b5b8160030160009054906101000a900460ff1660038111156114b6576114b56128e1565b5b146114f6576040517f08c379a00000000000000000000000000000000000000000000000000000000081526004016114ed9061386e565b60405180910390fd5b600015156007600084815260200190815260200160002060000160009054906101000a900460ff16151514611560576040517f08c379a0000000000000000000000000000000000000000000000000000000008152600401611557906133ce565b60405180910390fd5b600015158160030160019054906101000a900460ff161515146115b8576040517f08c379a00000000000000000000000000000000000000000000000000000000081526004016115af906138da565b60405180910390fd5b60038160030160006101000a81548160ff021916908360038111156115e0576115df6128e1565b5b021790555060018160030160016101000a81548160ff02191690831515021790555061160b82612237565b611614826123cc565b817f02a7d4d9472af7118644884b9a0ee443540c0027e938dd0aa35be8ecbe946c0a60405160405180910390a25050565b60008054906101000a900473ffffffffffffffffffffffffffffffffffffffff1673ffffffffffffffffffffffffffffffffffffffff163373ffffffffffffffffffffffffffffffffffffffff16146116d3576040517f08c379a00000000000000000000000000000000000000000000000000000000081526004016116ca906130bd565b60405180910390fd5b600060035411611718576040517f08c379a000000000000000000000000000000000000000000000000000000000815260040161170f90613946565b60405180910390fd5b60006003549050600060038190555060008060009054906101000a900473ffffffffffffffffffffffffffffffffffffffff1673ffffffffffffffffffffffffffffffffffffffff168260405161176e90613997565b60006040518083038185875af1925050503d80600081146117ab576040519150601f19603f3d011682016040523d82523d6000602084013e6117b0565b606091505b50509050806117f4576040517f08c379a00000000000000000000000000000000000000000000000000000000081526004016117eb906139f8565b60405180910390fd5b60008054906101000a900473ffffffffffffffffffffffffffffffffffffffff1673ffffffffffffffffffffffffffffffffffffffff167fccd267390035d6e18d565c4ae4c0583fe1a7eab17993787dbb83a61c03c6c19a8360405161185a91906129ab565b60405180910390a25050565b600560009054906101000a900473ffffffffffffffffffffffffffffffffffffffff1681565b600460009054906101000a900473ffffffffffffffffffffffffffffffffffffffff1673ffffffffffffffffffffffffffffffffffffffff163373ffffffffffffffffffffffffffffffffffffffff161461191c576040517f08c379a000000000000000000000000000000000000000000000000000000000815260040161191390613a64565b60405180910390fd5b600060066000848152602001908152602001600020905060006007600085815260200190815260200160002090506002600381111561195e5761195d6128e1565b5b8260030160009054906101000a900460ff166003811115611982576119816128e1565b5b146119c2576040517f08c379a00000000000000000000000000000000000000000000000000000000081526004016119b990613ad0565b60405180910390fd5b600115158160000160009054906101000a900460ff16151514611a1a576040517f08c379a0000000000000000000000000000000000000000000000000000000008152600401611a1190613b3c565b60405180910390fd5b600015158260030160019054906101000a900460ff16151514611a72576040517f08c379a0000000000000000000000000000000000000000000000000000000008152600401611a69906138da565b60405180910390fd5b60016002811115611a8657611a856128e1565b5b836002811115611a9957611a986128e1565b5b1480611ac85750600280811115611ab357611ab26128e1565b5b836002811115611ac657611ac56128e1565b5b145b611b07576040517f08c379a0000000000000000000000000000000000000000000000000000000008152600401611afe90613ba8565b60405180910390fd5b828160020160006101000a81548160ff02191690836002811115611b2e57611b2d6128e1565b5b021790555060038260030160006101000a81548160ff02191690836003811115611b5b57611b5a6128e1565b5b021790555060018260030160016101000a81548160ff02191690831515021790555060016002811115611b9157611b906128e1565b5b836002811115611ba457611ba36128e1565b5b03611bb357611bb284612685565b5b600280811115611bc657611bc56128e1565b5b836002811115611bd957611bd86128e1565b5b03611bf157611be784612237565b611bf0846123cc565b5b837f2ffcfee146bc0d5ff304c6b65111a0d485af9456dc64eee7d66ebdcc90b223ea84604051611c219190613bc8565b60405180910390a250505050565b600460009054906101000a900473ffffffffffffffffffffffffffffffffffffffff1673ffffffffffffffffffffffffffffffffffffffff163373ffffffffffffffffffffffffffffffffffffffff1614611cbf576040517f08c379a0000000000000000000000000000000000000000000000000000000008152600401611cb690613c55565b60405180910390fd5b600073ffffffffffffffffffffffffffffffffffffffff168173ffffffffffffffffffffffffffffffffffffffff1603611d2e576040517f08c379a0000000000000000000000000000000000000000000000000000000008152600401611d2590613cc1565b60405180910390fd5b80600460006101000a81548173ffffffffffffffffffffffffffffffffffffffff021916908373ffffffffffffffffffffffffffffffffffffffff16021790555050565b60025481565b600073ffffffffffffffffffffffffffffffffffffffff168373ffffffffffffffffffffffffffffffffffffffff1603611de7576040517f08c379a0000000000000000000000000000000000000000000000000000000008152600401611dde90613d2d565b60405180910390fd5b600073ffffffffffffffffffffffffffffffffffffffff168273ffffffffffffffffffffffffffffffffffffffff1603611e56576040517f08c379a0000000000000000000000000000000000000000000000000000000008152600401611e4d90613d99565b60405180910390fd5b60008111611e99576040517f08c379a0000000000000000000000000000000000000000000000000000000008152600401611e9090613e05565b60405180910390fd5b803414611edb576040517f08c379a0000000000000000000000000000000000000000000000000000000008152600401611ed290613e71565b60405180910390fd5b600060016000868152602001908152602001600020905060006003811115611f0657611f056128e1565b5b8160040160009054906101000a900460ff166003811115611f2a57611f296128e1565b5b14611f6a576040517f08c379a0000000000000000000000000000000000000000000000000000000008152600401611f6190613edd565b60405180910390fd5b6040518060a001604052808573ffffffffffffffffffffffffffffffffffffffff1681526020018473ffffffffffffffffffffffffffffffffffffffff168152602001838152602001600254815260200160016003811115611fcf57611fce6128e1565b5b8152506001600087815260200190815260200160002060008201518160000160006101000a81548173ffffffffffffffffffffffffffffffffffffffff021916908373ffffffffffffffffffffffffffffffffffffffff16021790555060208201518160010160006101000a81548173ffffffffffffffffffffffffffffffffffffffff021916908373ffffffffffffffffffffffffffffffffffffffff160217905550604082015181600201556060820151816003015560808201518160040160006101000a81548160ff021916908360038111156120b2576120b16128e1565b5b02179055509050505050505050565b60008073ffffffffffffffffffffffffffffffffffffffff16600560009054906101000a900473ffffffffffffffffffffffffffffffffffffffff1673ffffffffffffffffffffffffffffffffffffffff16036121215760009050612231565b6000600560009054906101000a900473ffffffffffffffffffffffffffffffffffffffff1673ffffffffffffffffffffffffffffffffffffffff1663d09ef241856040518263ffffffff1660e01b815260040161217e91906129ab565b60a060405180830381865afa15801561219b573d6000803e3d6000fd5b505050506040513d601f19601f820116820180604052508101906121bf9190613f4c565b505092505050600073ffffffffffffffffffffffffffffffffffffffff168173ffffffffffffffffffffffffffffffffffffffff161415801561222d57508073ffffffffffffffffffffffffffffffffffffffff168373ffffffffffffffffffffffffffffffffffffffff16145b9150505b92915050565b600073ffffffffffffffffffffffffffffffffffffffff16600560009054906101000a900473ffffffffffffffffffffffffffffffffffffffff1673ffffffffffffffffffffffffffffffffffffffff16036122c8576040517f08c379a00000000000000000000000000000000000000000000000000000000081526004016122bf90614013565b60405180910390fd5b6003808111156122db576122da6128e1565b5b600560009054906101000a900473ffffffffffffffffffffffffffffffffffffffff1673ffffffffffffffffffffffffffffffffffffffff166345fa8aae836040518263ffffffff1660e01b815260040161233691906129ab565b602060405180830381865afa158015612353573d6000803e3d6000fd5b505050506040513d601f19601f820116820180604052508101906123779190614033565b6003811115612389576123886128e1565b5b146123c9576040517f08c379a00000000000000000000000000000000000000000000000000000000081526004016123c0906140ac565b60405180910390fd5b50565b6000600160008381526020019081526020016000209050600160038111156123f7576123f66128e1565b5b8160040160009054906101000a900460ff16600381111561241b5761241a6128e1565b5b1461245b576040517f08c379a000000000000000000000000000000000000000000000000000000000815260040161245290614118565b60405180910390fd5b6000612710826003015483600201546124749190612fcf565b61247e9190613040565b905080826002015410156124c7576040517f08c379a00000000000000000000000000000000000000000000000000000000081526004016124be90614184565b60405180910390fd5b60008183600201546124d991906141a4565b905060028360040160006101000a81548160ff02191690836003811115612503576125026128e1565b5b021790555060008211156125a4578160036000828254612523919061375c565b925050819055508260010160009054906101000a900473ffffffffffffffffffffffffffffffffffffffff1673ffffffffffffffffffffffffffffffffffffffff16847fe1d1943d19c4af2a9ffc56164a2ef2dfb33fffe65fbdb87f91aa85593a4ad58884866002015460405161259b929190613149565b60405180910390a35b600081111561267f5760008360010160009054906101000a900473ffffffffffffffffffffffffffffffffffffffff1673ffffffffffffffffffffffffffffffffffffffff16826040516125f790613997565b60006040518083038185875af1925050503d8060008114612634576040519150601f19603f3d011682016040523d82523d6000602084013e612639565b606091505b505090508061267d576040517f08c379a000000000000000000000000000000000000000000000000000000000815260040161267490614224565b60405180910390fd5b505b50505050565b6000600160008381526020019081526020016000209050600160038111156126b0576126af6128e1565b5b8160040160009054906101000a900460ff1660038111156126d4576126d36128e1565b5b14612714576040517f08c379a000000000000000000000000000000000000000000000000000000000815260040161270b90614118565b60405180910390fd5b60038160040160006101000a81548160ff0219169083600381111561273c5761273b6128e1565b5b021790555060008160000160009054906101000a900473ffffffffffffffffffffffffffffffffffffffff1673ffffffffffffffffffffffffffffffffffffffff16826002015460405161278f90613997565b60006040518083038185875af1925050503d80600081146127cc576040519150601f19603f3d011682016040523d82523d6000602084013e6127d1565b606091505b5050905080612815576040517f08c379a000000000000000000000000000000000000000000000000000000000815260040161280c90614290565b60405180910390fd5b505050565b6000604051905090565b600080fd5b600080fd5b6000819050919050565b6128418161282e565b811461284c57600080fd5b50565b60008135905061285e81612838565b92915050565b60006020828403121561287a57612879612824565b5b60006128888482850161284f565b91505092915050565b600073ffffffffffffffffffffffffffffffffffffffff82169050919050565b60006128bc82612891565b9050919050565b6128cc816128b1565b82525050565b6128db8161282e565b82525050565b7f4e487b7100000000000000000000000000000000000000000000000000000000600052602160045260246000fd5b60048110612921576129206128e1565b5b50565b600081905061293282612910565b919050565b600061294282612924565b9050919050565b61295281612937565b82525050565b600060a08201905061296d60008301886128c3565b61297a60208301876128c3565b61298760408301866128d2565b61299460608301856128d2565b6129a16080830184612949565b9695505050505050565b60006020820190506129c060008301846128d2565b92915050565b6129cf816128b1565b81146129da57600080fd5b50565b6000813590506129ec816129c6565b92915050565b600060208284031215612a0857612a07612824565b5b6000612a16848285016129dd565b91505092915050565b60008060408385031215612a3657612a35612824565b5b6000612a448582860161284f565b9250506020612a55858286016129dd565b9150509250929050565b60008115159050919050565b612a7481612a5f565b82525050565b6000602082019050612a8f6000830184612a6b565b92915050565b600081519050919050565b600082825260208201905092915050565b60005b83811015612acf578082015181840152602081019050612ab4565b60008484015250505050565b6000601f19601f8301169050919050565b6000612af782612a95565b612b018185612aa0565b9350612b11818560208601612ab1565b612b1a81612adb565b840191505092915050565b60038110612b3657612b356128e1565b5b50565b6000819050612b4782612b25565b919050565b6000612b5782612b39565b9050919050565b612b6781612b4c565b82525050565b6000608082019050612b826000830187612a6b565b612b8f60208301866128c3565b8181036040830152612ba18185612aec565b9050612bb06060830184612b5e565b95945050505050565b600080fd5b600080fd5b7f4e487b7100000000000000000000000000000000000000000000000000000000600052604160045260246000fd5b612bfb82612adb565b810181811067ffffffffffffffff82111715612c1a57612c19612bc3565b5b80604052505050565b6000612c2d61281a565b9050612c398282612bf2565b919050565b600067ffffffffffffffff821115612c5957612c58612bc3565b5b612c6282612adb565b9050602081019050919050565b82818337600083830152505050565b6000612c91612c8c84612c3e565b612c23565b905082815260208101848484011115612cad57612cac612bbe565b5b612cb8848285612c6f565b509392505050565b600082601f830112612cd557612cd4612bb9565b5b8135612ce5848260208601612c7e565b91505092915050565b60008060408385031215612d0557612d04612824565b5b6000612d138582860161284f565b925050602083013567ffffffffffffffff811115612d3457612d33612829565b5b612d4085828601612cc0565b9150509250929050565b60008060408385031215612d6157612d60612824565b5b6000612d6f858286016129dd565b9250506020612d808582860161284f565b9150509250929050565b6000602082019050612d9f60008301846128c3565b92915050565b6000608082019050612dba60008301876128c3565b612dc760208301866128c3565b612dd460408301856128d2565b612de16060830184612949565b95945050505050565b6000612df582612891565b9050919050565b612e0581612dea565b82525050565b6000602082019050612e206000830184612dfc565b92915050565b60048110612e3757612e366128e1565b5b50565b6000819050612e4882612e26565b919050565b6000612e5882612e3a565b9050919050565b612e6881612e4d565b82525050565b600060a082019050612e8360008301886128c3565b612e9060208301876128c3565b612e9d60408301866128d2565b612eaa6060830185612e5f565b612eb76080830184612a6b565b9695505050505050565b6000819050919050565b6000612ee6612ee1612edc84612891565b612ec1565b612891565b9050919050565b6000612ef882612ecb565b9050919050565b6000612f0a82612eed565b9050919050565b612f1a81612eff565b82525050565b6000602082019050612f356000830184612f11565b92915050565b60038110612f4857600080fd5b50565b600081359050612f5a81612f3b565b92915050565b60008060408385031215612f7757612f76612824565b5b6000612f858582860161284f565b9250506020612f9685828601612f4b565b9150509250929050565b7f4e487b7100000000000000000000000000000000000000000000000000000000600052601160045260246000fd5b6000612fda8261282e565b9150612fe58361282e565b9250828202612ff38161282e565b9150828204841483151761300a57613009612fa0565b5b5092915050565b7f4e487b7100000000000000000000000000000000000000000000000000000000600052601260045260246000fd5b600061304b8261282e565b91506130568361282e565b92508261306657613065613011565b5b828204905092915050565b7f4e6f7420706c6174666f726d206f776e65720000000000000000000000000000600082015250565b60006130a7601283612aa0565b91506130b282613071565b602082019050919050565b600060208201905081810360008301526130d68161309a565b9050919050565b7f46656520746f6f20686967680000000000000000000000000000000000000000600082015250565b6000613113600c83612aa0565b915061311e826130dd565b602082019050919050565b6000602082019050818103600083015261314281613106565b9050919050565b600060408201905061315e60008301856128d2565b61316b60208301846128d2565b9392505050565b7f496e76616c6964206f7264657220747261636b696e6720616464726573730000600082015250565b60006131a8601e83612aa0565b91506131b382613172565b602082019050919050565b600060208201905081810360008301526131d78161319b565b9050919050565b7f4f6e6c792061726269747261746f720000000000000000000000000000000000600082015250565b6000613214600f83612aa0565b915061321f826131de565b602082019050919050565b6000602082019050818103600083015261324381613207565b9050919050565b7f4e487b7100000000000000000000000000000000000000000000000000000000600052602260045260246000fd5b6000600282049050600182168061329157607f821691505b6020821081036132a4576132a361324a565b5b50919050565b7f4f72646572206e6f7420696e20612064697370757461626c6520737461746500600082015250565b60006132e0601f83612aa0565b91506132eb826132aa565b602082019050919050565b6000602082019050818103600083015261330f816132d3565b9050919050565b7f4e6f74206275796572206f722073656c6c657200000000000000000000000000600082015250565b600061334c601383612aa0565b915061335782613316565b602082019050919050565b6000602082019050818103600083015261337b8161333f565b9050919050565b7f4469737075746520616c72656164792065786973747300000000000000000000600082015250565b60006133b8601683612aa0565b91506133c382613382565b602082019050919050565b600060208201905081810360008301526133e7816133ab565b9050919050565b60008190508160005260206000209050919050565b60006020601f8301049050919050565b600082821b905092915050565b6000600883026134507fffffffffffffffffffffffffffffffffffffffffffffffffffffffffffffffff82613413565b61345a8683613413565b95508019841693508086168417925050509392505050565b600061348d6134886134838461282e565b612ec1565b61282e565b9050919050565b6000819050919050565b6134a783613472565b6134bb6134b382613494565b848454613420565b825550505050565b600090565b6134d06134c3565b6134db81848461349e565b505050565b5b818110156134ff576134f46000826134c8565b6001810190506134e1565b5050565b601f82111561354457613515816133ee565b61351e84613403565b8101602085101561352d578190505b61354161353985613403565b8301826134e0565b50505b505050565b600082821c905092915050565b600061356760001984600802613549565b1980831691505092915050565b60006135808383613556565b9150826002028217905092915050565b61359982612a95565b67ffffffffffffffff8111156135b2576135b1612bc3565b5b6135bc8254613279565b6135c7828285613503565b600060209050601f8311600181146135fa57600084156135e8578287015190505b6135f28582613574565b86555061365a565b601f198416613608866133ee565b60005b828110156136305784890151825560018201915060208501945060208101905061360b565b8683101561364d5784890151613649601f891682613556565b8355505b6001600288020188555050505b505050505050565b6000602082019050818103600083015261367c8184612aec565b905092915050565b7f496e76616c69642073656c6c6572000000000000000000000000000000000000600082015250565b60006136ba600e83612aa0565b91506136c582613684565b602082019050919050565b600060208201905081810360008301526136e9816136ad565b9050919050565b7f416d6f756e74206d757374206265203e20300000000000000000000000000000600082015250565b6000613726601283612aa0565b9150613731826136f0565b602082019050919050565b6000602082019050818103600083015261375581613719565b9050919050565b60006137678261282e565b91506137728361282e565b925082820190508082111561378a57613789612fa0565b5b92915050565b7f4f6e6c792062757965722f73656c6c65722f636f75726965722063616e20636f60008201527f6d706c6574650000000000000000000000000000000000000000000000000000602082015250565b60006137ec602683612aa0565b91506137f782613790565b604082019050919050565b6000602082019050818103600083015261381b816137df565b9050919050565b7f4f72646572206e6f7420696e2050616964207374617465000000000000000000600082015250565b6000613858601783612aa0565b915061386382613822565b602082019050919050565b600060208201905081810360008301526138878161384b565b9050919050565b7f5061796f757420616c726561647920646f6e6500000000000000000000000000600082015250565b60006138c4601383612aa0565b91506138cf8261388e565b602082019050919050565b600060208201905081810360008301526138f3816138b7565b9050919050565b7f4e6f20706c6174666f726d206665657300000000000000000000000000000000600082015250565b6000613930601083612aa0565b915061393b826138fa565b602082019050919050565b6000602082019050818103600083015261395f81613923565b9050919050565b600081905092915050565b50565b6000613981600083613966565b915061398c82613971565b600082019050919050565b60006139a282613974565b9150819050919050565b7f506c6174666f726d207769746864726177616c206661696c6564000000000000600082015250565b60006139e2601a83612aa0565b91506139ed826139ac565b602082019050919050565b60006020820190508181036000830152613a11816139d5565b9050919050565b7f4f6e6c792061726269747261746f722063616e207265736f6c76650000000000600082015250565b6000613a4e601b83612aa0565b9150613a5982613a18565b602082019050919050565b60006020820190508181036000830152613a7d81613a41565b9050919050565b7f4f72646572206e6f742064697370757465640000000000000000000000000000600082015250565b6000613aba601283612aa0565b9150613ac582613a84565b602082019050919050565b60006020820190508181036000830152613ae981613aad565b9050919050565b7f4e6f206469737075746520666f756e6400000000000000000000000000000000600082015250565b6000613b26601083612aa0565b9150613b3182613af0565b602082019050919050565b60006020820190508181036000830152613b5581613b19565b9050919050565b7f496e76616c6964206f7574636f6d650000000000000000000000000000000000600082015250565b6000613b92600f83612aa0565b9150613b9d82613b5c565b602082019050919050565b60006020820190508181036000830152613bc181613b85565b9050919050565b6000602082019050613bdd6000830184612b5e565b92915050565b7f4f6e6c792061726269747261746f722063616e206368616e676520617262697460008201527f7261746f72000000000000000000000000000000000000000000000000000000602082015250565b6000613c3f602583612aa0565b9150613c4a82613be3565b604082019050919050565b60006020820190508181036000830152613c6e81613c32565b9050919050565b7f496e76616c69642061726269747261746f720000000000000000000000000000600082015250565b6000613cab601283612aa0565b9150613cb682613c75565b602082019050919050565b60006020820190508181036000830152613cda81613c9e565b9050919050565b7f496e76616c696420627579657220616464726573730000000000000000000000600082015250565b6000613d17601583612aa0565b9150613d2282613ce1565b602082019050919050565b60006020820190508181036000830152613d4681613d0a565b9050919050565b7f496e76616c69642073656c6c6572206164647265737300000000000000000000600082015250565b6000613d83601683612aa0565b9150613d8e82613d4d565b602082019050919050565b60006020820190508181036000830152613db281613d76565b9050919050565b7f416d6f756e74206d7573742062652067726561746572207468616e2030000000600082015250565b6000613def601d83612aa0565b9150613dfa82613db9565b602082019050919050565b60006020820190508181036000830152613e1e81613de2565b9050919050565b7f496e636f72726563742045544820616d6f756e74000000000000000000000000600082015250565b6000613e5b601483612aa0565b9150613e6682613e25565b602082019050919050565b60006020820190508181036000830152613e8a81613e4e565b9050919050565b7f457363726f7720616c7265616479206578697374730000000000000000000000600082015250565b6000613ec7601583612aa0565b9150613ed282613e91565b602082019050919050565b60006020820190508181036000830152613ef681613eba565b9050919050565b600081519050613f0c816129c6565b92915050565b60048110613f1f57600080fd5b50565b600081519050613f3181613f12565b92915050565b600081519050613f4681612838565b92915050565b600080600080600060a08688031215613f6857613f67612824565b5b6000613f7688828901613efd565b9550506020613f8788828901613efd565b9450506040613f9888828901613efd565b9350506060613fa988828901613f22565b9250506080613fba88828901613f37565b9150509295509295909350565b7f4f7264657220747261636b696e67206e6f742073657400000000000000000000600082015250565b6000613ffd601683612aa0565b915061400882613fc7565b602082019050919050565b6000602082019050818103600083015261402c81613ff0565b9050919050565b60006020828403121561404957614048612824565b5b600061405784828501613f22565b91505092915050565b7f4f72646572206e6f742064656c69766572656400000000000000000000000000600082015250565b6000614096601383612aa0565b91506140a182614060565b602082019050919050565b600060208201905081810360008301526140c581614089565b9050919050565b7f457363726f77206e6f74206c6f636b6564000000000000000000000000000000600082015250565b6000614102601183612aa0565b915061410d826140cc565b602082019050919050565b60006020820190508181036000830152614131816140f5565b9050919050565b7f466565206578636565647320616d6f756e740000000000000000000000000000600082015250565b600061416e601283612aa0565b915061417982614138565b602082019050919050565b6000602082019050818103600083015261419d81614161565b9050919050565b60006141af8261282e565b91506141ba8361282e565b92508282039050818111156141d2576141d1612fa0565b5b92915050565b7f4554482072656c65617365206661696c65640000000000000000000000000000600082015250565b600061420e601283612aa0565b9150614219826141d8565b602082019050919050565b6000602082019050818103600083015261423d81614201565b9050919050565b7f45544820726566756e64206661696c6564000000000000000000000000000000600082015250565b600061427a601183612aa0565b915061428582614244565b602082019050919050565b600060208201905081810360008301526142a98161426d565b905091905056fea2646970667358221220b7304c8e06767f0a0349c4f3585f36a6ddd576f80d5bda2201ea544acf85dfe264736f6c63430008130033",
  "immutableReferences": {},
  "source": "/*\r\nI declare that this code was written by me.\r\nI will not copy or allow others to copy my code.\r\nI understand that copying code is considered as plagiarism.\r\n\r\nStudent Name: Saw Kaung Khant Thiha\r\nStudent ID: 24025215\r\nClass: C372-003\r\nDate created: 16/01/2026\r\n*/\r\n\r\n// SPDX-License-Identifier: MIT\r\npragma solidity ^0.8.19;\r\n\r\nimport \"./Payment_escrow.sol\";\r\n\r\ninterface IOrderTracking {\r\n    enum Status {\r\n        None,\r\n        Created,\r\n        Shipped,\r\n        Delivered\r\n    }\r\n\r\n    function getOrderStatus(uint256 orderId) external view returns (Status);\r\n    function getOrder(uint256 orderId) external view returns (\r\n        address buyer,\r\n        address seller,\r\n        address courier,\r\n        Status status,\r\n        uint256 createdAt\r\n    );\r\n}\r\n\r\ncontract OnlineStoreDisputes is EscrowPayment {\r\n\r\n    // Who can resolve disputes\r\n    address public arbitrator;\r\n    IOrderTracking public orderTracking;\r\n\r\n    constructor() EscrowPayment() {\r\n        arbitrator = msg.sender;\r\n        nextOrderId = 1;\r\n    }\r\n\r\n    function setOrderTracking(address orderTrackingAddress) external onlyOwner {\r\n        require(orderTrackingAddress != address(0), \"Invalid order tracking address\");\r\n        orderTracking = IOrderTracking(orderTrackingAddress);\r\n    }\r\n\r\n    function changeArbitrator(address newArbitrator) public {\n        require(msg.sender == arbitrator, \"Only arbitrator can change arbitrator\");\n        require(newArbitrator != address(0), \"Invalid arbitrator\");\n        arbitrator = newArbitrator;\n    }\n\n    // ADDED FOR ARBITRATOR / REFUND HISTORY\n    modifier onlyArbitrator() {\n        require(msg.sender == arbitrator, \"Only arbitrator\");\n        _;\n    }\n\n    enum OrderStatus {\r\n        None,\r\n        Paid,\r\n        Disputed,\r\n        Resolved\r\n    }\r\n\r\n    enum DisputeOutcome {\r\n        None,\r\n        RefundBuyer,\r\n        ReleaseToSeller\r\n    }\r\n\r\n    struct Order {\r\n        address buyer;\r\n        address seller;\r\n        uint256 amount;     // ETH amount (in wei)\r\n        OrderStatus status;\r\n        bool payoutDone;\r\n    }\r\n\r\n    struct Dispute {\r\n        bool exists;\r\n        address openedBy;\r\n        string reason;\r\n        DisputeOutcome outcome;\r\n    }\r\n\r\n    mapping(uint256 => Order) public orders;\r\n    mapping(uint256 => Dispute) public disputes;\r\n    uint256 public nextOrderId;\r\n\r\n    event OrderCreated(uint256 indexed orderId, address indexed buyer, address indexed seller, uint256 amount);\r\n    event DisputeRaised(uint256 indexed orderId, address indexed openedBy, string reason);\r\n    event DisputeResolved(uint256 indexed orderId, DisputeOutcome outcome);\r\n    event OrderCompleted(uint256 indexed orderId);\r\n\r\n    /*\r\n      Buyer creates order AND locks ETH into escrow in one step.\r\n\r\n      Important:\r\n      - Buyer must send ETH equal to `amount` as msg.value.\r\n    */\r\n    function createOrder(address seller, uint256 amount) public payable returns (uint256) {\r\n        require(seller != address(0), \"Invalid seller\");\r\n        require(amount > 0, \"Amount must be > 0\");\r\n\r\n        uint256 orderId = nextOrderId;\r\n        nextOrderId = nextOrderId + 1;\r\n\r\n        _lockEscrow(orderId, msg.sender, seller, amount);\r\n\r\n        orders[orderId] = Order(\r\n            msg.sender,\r\n            seller,\r\n            amount,\r\n            OrderStatus.Paid,\r\n            false\r\n        );\r\n\r\n        emit OrderCreated(orderId, msg.sender, seller, amount);\r\n        return orderId;\r\n    }\r\n\r\n    // Buyer OR seller can open a dispute\r\n    function raiseDispute(uint256 orderId, string memory reason) public {\r\n        Order storage order = orders[orderId];\r\n\r\n        require(order.status == OrderStatus.Paid, \"Order not in a disputable state\");\r\n        require(msg.sender == order.buyer || msg.sender == order.seller, \"Not buyer or seller\");\r\n        require(disputes[orderId].exists == false, \"Dispute already exists\");\r\n\r\n        disputes[orderId] = Dispute(\r\n            true,\r\n            msg.sender,\r\n            reason,\r\n            DisputeOutcome.None\r\n        );\r\n\r\n        order.status = OrderStatus.Disputed;\r\n\r\n        emit DisputeRaised(orderId, msg.sender, reason);\r\n    }\r\n\r\n    /*\r\n      Arbitrator resolves dispute.\r\n\r\n      outcome values:\r\n      - DisputeOutcome.RefundBuyer (1)\r\n      - DisputeOutcome.ReleaseToSeller (2)\r\n    */\r\n    function resolveDispute(uint256 orderId, DisputeOutcome outcome) public {\n        require(msg.sender == arbitrator, \"Only arbitrator can resolve\");\n\r\n        Order storage order = orders[orderId];\r\n        Dispute storage dispute = disputes[orderId];\r\n\r\n        require(order.status == OrderStatus.Disputed, \"Order not disputed\");\r\n        require(dispute.exists == true, \"No dispute found\");\r\n        require(order.payoutDone == false, \"Payout already done\");\r\n\r\n        // Only allow 2 valid outcomes (no if/else needed)\r\n        require(outcome == DisputeOutcome.RefundBuyer || outcome == DisputeOutcome.ReleaseToSeller, \"Invalid outcome\");\r\n\r\n        dispute.outcome = outcome;\r\n        order.status = OrderStatus.Resolved;\r\n        order.payoutDone = true;\r\n\r\n        if (outcome == DisputeOutcome.RefundBuyer) {\r\n            // Dispute resolved in favor of buyer: no platform fee on refund.\r\n            _refundEscrow(orderId);\r\n        }\r\n\r\n        if (outcome == DisputeOutcome.ReleaseToSeller) {\r\n            _requireDelivered(orderId);\r\n            _releaseEscrow(orderId);\r\n        }\r\n\r\n        emit DisputeResolved(orderId, outcome);\n    }\n\n    // ADDED FOR ARBITRATOR / REFUND HISTORY\n    function approveRefund(uint256 orderId) external onlyArbitrator {\n        resolveDispute(orderId, DisputeOutcome.RefundBuyer);\n    }\n\n    // ADDED FOR ARBITRATOR / REFUND HISTORY\n    function rejectRefund(uint256 orderId) external onlyArbitrator {\n        resolveDispute(orderId, DisputeOutcome.ReleaseToSeller);\n    }\n\r\n    // Buyer confirms successful delivery; releases escrow to seller.\r\n    function completeOrder(uint256 orderId) public {\r\n        Order storage order = orders[orderId];\r\n\r\n        require(\r\n            msg.sender == order.buyer || msg.sender == order.seller || _isCourier(orderId, msg.sender),\r\n            \"Only buyer/seller/courier can complete\"\r\n        );\r\n        require(order.status == OrderStatus.Paid, \"Order not in Paid state\");\r\n        require(disputes[orderId].exists == false, \"Dispute already exists\");\r\n        require(order.payoutDone == false, \"Payout already done\");\r\n\r\n        order.status = OrderStatus.Resolved;\r\n        order.payoutDone = true;\r\n\r\n        _requireDelivered(orderId);\r\n        _releaseEscrow(orderId);\r\n        emit OrderCompleted(orderId);\r\n    }\r\n\r\n    function canRaiseDispute(uint256 orderId, address user) public view returns (bool) {\r\n        Order storage order = orders[orderId];\r\n\r\n        bool isParty = (user == order.buyer) || (user == order.seller);\r\n        bool isPaid = (order.status == OrderStatus.Paid);\r\n        bool noDisputeYet = (disputes[orderId].exists == false);\r\n\r\n        return isParty && isPaid && noDisputeYet;\r\n    }\r\n\r\n    function _requireDelivered(uint256 orderId) internal view {\r\n        require(address(orderTracking) != address(0), \"Order tracking not set\");\r\n        require(orderTracking.getOrderStatus(orderId) == IOrderTracking.Status.Delivered, \"Order not delivered\");\r\n    }\r\n\r\n    function _isCourier(uint256 orderId, address user) internal view returns (bool) {\r\n        if (address(orderTracking) == address(0)) {\r\n            return false;\r\n        }\r\n\r\n        (, , address courier, ,) = orderTracking.getOrder(orderId);\r\n        return courier != address(0) && user == courier;\r\n    }\r\n}\r\n",
  "sourcePath": "C:\\republic poly\\Blockchian\\fa\\arut\\AnythingSGProject\\contracts\\DisputeHandling.sol",
  "compiler": {
    "name": "solc",
    "version": "0.8.19+commit.7dd6d404.Emscripten.clang"
  },
  "schemaVersion": "3.4.16",
  "updatedAt": "2026-01-30T06:52:44.723Z",
  "networkType": "ethereum",
  "devdoc": {
    "kind": "dev",
    "methods": {},
    "version": 1
  },
  "userdoc": {
    "kind": "user",
    "methods": {},
    "version": 1
  }
}