{
  "contractName": "OnlineStoreDisputes",
  "abi": [
    {
      "inputs": [],
      "stateMutability": "nonpayable",
      "type": "constructor"
    },
    {
      "anonymous": false,
      "inputs": [
        {
          "indexed": true,
          "internalType": "uint256",
          "name": "orderId",
          "type": "uint256"
        },
        {
          "indexed": true,
          "internalType": "address",
          "name": "openedBy",
          "type": "address"
        },
        {
          "indexed": false,
          "internalType": "string",
          "name": "reason",
          "type": "string"
        }
      ],
      "name": "DisputeRaised",
      "type": "event"
    },
    {
      "anonymous": false,
      "inputs": [
        {
          "indexed": true,
          "internalType": "uint256",
          "name": "orderId",
          "type": "uint256"
        },
        {
          "indexed": false,
          "internalType": "enum OnlineStoreDisputes.DisputeOutcome",
          "name": "outcome",
          "type": "uint8"
        }
      ],
      "name": "DisputeResolved",
      "type": "event"
    },
    {
      "anonymous": false,
      "inputs": [
        {
          "indexed": true,
          "internalType": "uint256",
          "name": "orderId",
          "type": "uint256"
        }
      ],
      "name": "OrderCompleted",
      "type": "event"
    },
    {
      "anonymous": false,
      "inputs": [
        {
          "indexed": true,
          "internalType": "uint256",
          "name": "orderId",
          "type": "uint256"
        },
        {
          "indexed": true,
          "internalType": "address",
          "name": "buyer",
          "type": "address"
        },
        {
          "indexed": true,
          "internalType": "address",
          "name": "seller",
          "type": "address"
        },
        {
          "indexed": false,
          "internalType": "uint256",
          "name": "amount",
          "type": "uint256"
        }
      ],
      "name": "OrderCreated",
      "type": "event"
    },
    {
      "anonymous": false,
      "inputs": [
        {
          "indexed": true,
          "internalType": "uint256",
          "name": "orderId",
          "type": "uint256"
        },
        {
          "indexed": false,
          "internalType": "uint256",
          "name": "feeAmount",
          "type": "uint256"
        },
        {
          "indexed": false,
          "internalType": "uint256",
          "name": "orderAmount",
          "type": "uint256"
        },
        {
          "indexed": true,
          "internalType": "address",
          "name": "seller",
          "type": "address"
        }
      ],
      "name": "PlatformFeeCollected",
      "type": "event"
    },
    {
      "anonymous": false,
      "inputs": [
        {
          "indexed": false,
          "internalType": "uint256",
          "name": "previousFeeBP",
          "type": "uint256"
        },
        {
          "indexed": false,
          "internalType": "uint256",
          "name": "newFeeBP",
          "type": "uint256"
        }
      ],
      "name": "PlatformFeeUpdated",
      "type": "event"
    },
    {
      "anonymous": false,
      "inputs": [
        {
          "indexed": false,
          "internalType": "uint256",
          "name": "amount",
          "type": "uint256"
        },
        {
          "indexed": true,
          "internalType": "address",
          "name": "to",
          "type": "address"
        }
      ],
      "name": "PlatformFeesWithdrawn",
      "type": "event"
    },
    {
      "inputs": [],
      "name": "arbitrator",
      "outputs": [
        {
          "internalType": "address",
          "name": "",
          "type": "address"
        }
      ],
      "stateMutability": "view",
      "type": "function",
      "constant": true
    },
    {
      "inputs": [
        {
          "internalType": "uint256",
          "name": "amount",
          "type": "uint256"
        }
      ],
      "name": "calculatePlatformFee",
      "outputs": [
        {
          "internalType": "uint256",
          "name": "",
          "type": "uint256"
        }
      ],
      "stateMutability": "view",
      "type": "function",
      "constant": true
    },
    {
      "inputs": [
        {
          "internalType": "uint256",
          "name": "",
          "type": "uint256"
        }
      ],
      "name": "disputes",
      "outputs": [
        {
          "internalType": "bool",
          "name": "exists",
          "type": "bool"
        },
        {
          "internalType": "address",
          "name": "openedBy",
          "type": "address"
        },
        {
          "internalType": "string",
          "name": "reason",
          "type": "string"
        },
        {
          "internalType": "enum OnlineStoreDisputes.DisputeOutcome",
          "name": "outcome",
          "type": "uint8"
        }
      ],
      "stateMutability": "view",
      "type": "function",
      "constant": true
    },
    {
      "inputs": [
        {
          "internalType": "uint256",
          "name": "",
          "type": "uint256"
        }
      ],
      "name": "escrows",
      "outputs": [
        {
          "internalType": "address",
          "name": "buyer",
          "type": "address"
        },
        {
          "internalType": "address",
          "name": "seller",
          "type": "address"
        },
        {
          "internalType": "uint256",
          "name": "amount",
          "type": "uint256"
        },
        {
          "internalType": "uint256",
          "name": "feeBPAtLock",
          "type": "uint256"
        },
        {
          "internalType": "enum EscrowPayment.EscrowStatus",
          "name": "status",
          "type": "uint8"
        }
      ],
      "stateMutability": "view",
      "type": "function",
      "constant": true
    },
    {
      "inputs": [
        {
          "internalType": "uint256",
          "name": "orderId",
          "type": "uint256"
        }
      ],
      "name": "getEscrow",
      "outputs": [
        {
          "internalType": "address",
          "name": "",
          "type": "address"
        },
        {
          "internalType": "address",
          "name": "",
          "type": "address"
        },
        {
          "internalType": "uint256",
          "name": "",
          "type": "uint256"
        },
        {
          "internalType": "enum EscrowPayment.EscrowStatus",
          "name": "",
          "type": "uint8"
        }
      ],
      "stateMutability": "view",
      "type": "function",
      "constant": true
    },
    {
      "inputs": [],
      "name": "nextOrderId",
      "outputs": [
        {
          "internalType": "uint256",
          "name": "",
          "type": "uint256"
        }
      ],
      "stateMutability": "view",
      "type": "function",
      "constant": true
    },
    {
      "inputs": [],
      "name": "orderTracking",
      "outputs": [
        {
          "internalType": "contract IOrderTracking",
          "name": "",
          "type": "address"
        }
      ],
      "stateMutability": "view",
      "type": "function",
      "constant": true
    },
    {
      "inputs": [
        {
          "internalType": "uint256",
          "name": "",
          "type": "uint256"
        }
      ],
      "name": "orders",
      "outputs": [
        {
          "internalType": "address",
          "name": "buyer",
          "type": "address"
        },
        {
          "internalType": "address",
          "name": "seller",
          "type": "address"
        },
        {
          "internalType": "uint256",
          "name": "amount",
          "type": "uint256"
        },
        {
          "internalType": "enum OnlineStoreDisputes.OrderStatus",
          "name": "status",
          "type": "uint8"
        },
        {
          "internalType": "bool",
          "name": "payoutDone",
          "type": "bool"
        }
      ],
      "stateMutability": "view",
      "type": "function",
      "constant": true
    },
    {
      "inputs": [],
      "name": "owner",
      "outputs": [
        {
          "internalType": "address payable",
          "name": "",
          "type": "address"
        }
      ],
      "stateMutability": "view",
      "type": "function",
      "constant": true
    },
    {
      "inputs": [],
      "name": "platformBalance",
      "outputs": [
        {
          "internalType": "uint256",
          "name": "",
          "type": "uint256"
        }
      ],
      "stateMutability": "view",
      "type": "function",
      "constant": true
    },
    {
      "inputs": [],
      "name": "platformFeeBP",
      "outputs": [
        {
          "internalType": "uint256",
          "name": "",
          "type": "uint256"
        }
      ],
      "stateMutability": "view",
      "type": "function",
      "constant": true
    },
    {
      "inputs": [
        {
          "internalType": "uint256",
          "name": "_feeBP",
          "type": "uint256"
        }
      ],
      "name": "setPlatformFee",
      "outputs": [],
      "stateMutability": "nonpayable",
      "type": "function"
    },
    {
      "inputs": [],
      "name": "withdrawPlatformFees",
      "outputs": [],
      "stateMutability": "nonpayable",
      "type": "function"
    },
    {
      "inputs": [
        {
          "internalType": "address",
          "name": "orderTrackingAddress",
          "type": "address"
        }
      ],
      "name": "setOrderTracking",
      "outputs": [],
      "stateMutability": "nonpayable",
      "type": "function"
    },
    {
      "inputs": [
        {
          "internalType": "address",
          "name": "newArbitrator",
          "type": "address"
        }
      ],
      "name": "changeArbitrator",
      "outputs": [],
      "stateMutability": "nonpayable",
      "type": "function"
    },
    {
      "inputs": [
        {
          "internalType": "address",
          "name": "seller",
          "type": "address"
        },
        {
          "internalType": "uint256",
          "name": "amount",
          "type": "uint256"
        }
      ],
      "name": "createOrder",
      "outputs": [
        {
          "internalType": "uint256",
          "name": "",
          "type": "uint256"
        }
      ],
      "stateMutability": "payable",
      "type": "function",
      "payable": true
    },
    {
      "inputs": [
        {
          "internalType": "uint256",
          "name": "orderId",
          "type": "uint256"
        },
        {
          "internalType": "string",
          "name": "reason",
          "type": "string"
        }
      ],
      "name": "raiseDispute",
      "outputs": [],
      "stateMutability": "nonpayable",
      "type": "function"
    },
    {
      "inputs": [
        {
          "internalType": "uint256",
          "name": "orderId",
          "type": "uint256"
        },
        {
          "internalType": "enum OnlineStoreDisputes.DisputeOutcome",
          "name": "outcome",
          "type": "uint8"
        }
      ],
      "name": "resolveDispute",
      "outputs": [],
      "stateMutability": "nonpayable",
      "type": "function"
    },
    {
      "inputs": [
        {
          "internalType": "uint256",
          "name": "orderId",
          "type": "uint256"
        }
      ],
      "name": "approveRefund",
      "outputs": [],
      "stateMutability": "nonpayable",
      "type": "function"
    },
    {
      "inputs": [
        {
          "internalType": "uint256",
          "name": "orderId",
          "type": "uint256"
        }
      ],
      "name": "rejectRefund",
      "outputs": [],
      "stateMutability": "nonpayable",
      "type": "function"
    },
    {
      "inputs": [
        {
          "internalType": "uint256",
          "name": "orderId",
          "type": "uint256"
        }
      ],
      "name": "completeOrder",
      "outputs": [],
      "stateMutability": "nonpayable",
      "type": "function"
    },
    {
      "inputs": [
        {
          "internalType": "uint256",
          "name": "orderId",
          "type": "uint256"
        },
        {
          "internalType": "address",
          "name": "user",
          "type": "address"
        }
      ],
      "name": "canRaiseDispute",
      "outputs": [
        {
          "internalType": "bool",
          "name": "",
          "type": "bool"
        }
      ],
      "stateMutability": "view",
      "type": "function",
      "constant": true
    }
  ],
  "bytecode": "0x608060405260c860025534801561001557600080fd5b50336000806101000a81548173ffffffffffffffffffffffffffffffffffffffff021916908373ffffffffffffffffffffffffffffffffffffffff16021790555033600460006101000a81548173ffffffffffffffffffffffffffffffffffffffff021916908373ffffffffffffffffffffffffffffffffffffffff160217905550600160088190555061436a806100ae6000396000f3fe6080604052600436106101355760003560e01c80636cc6cde1116100ab578063b6adaaff1161006f578063b6adaaff1461045f578063d0b7830b14610488578063e22b81a81461049f578063e55e4211146104ca578063fc548f08146104f3578063ff96092a1461051c57610135565b80636cc6cde11461035f5780636f0203ba1461038a5780637d19e596146103b35780638da5cb5b146103f3578063a85c38ef1461041e57610135565b8063348a71a6116100fd578063348a71a6146102355780633ea73c161461025e578063564a565d1461029b5780635aef573c146102db57806362a5dbbc146103045780636c16b5451461032f57610135565b8063012f52ee1461013a5780630cbab4f71461017b57806312e8e2c3146101b85780632a58b330146101e15780632c0c80811461020c575b600080fd5b34801561014657600080fd5b50610161600480360381019061015c91906128e8565b610547565b6040516101729594939291906129dc565b60405180910390f35b34801561018757600080fd5b506101a2600480360381019061019d91906128e8565b6105ca565b6040516101af9190612a2f565b60405180910390f35b3480156101c457600080fd5b506101df60048036038101906101da91906128e8565b6105ee565b005b3480156101ed57600080fd5b506101f661070c565b6040516102039190612a2f565b60405180910390f35b34801561021857600080fd5b50610233600480360381019061022e9190612a76565b610712565b005b34801561024157600080fd5b5061025c600480360381019061025791906128e8565b610853565b005b34801561026a57600080fd5b5061028560048036038101906102809190612aa3565b6108f1565b6040516102929190612afe565b60405180910390f35b3480156102a757600080fd5b506102c260048036038101906102bd91906128e8565b610a89565b6040516102d29493929190612bf1565b60405180910390f35b3480156102e757600080fd5b5061030260048036038101906102fd9190612d72565b610b7b565b005b34801561031057600080fd5b50610319610f30565b6040516103269190612a2f565b60405180910390f35b61034960048036038101906103449190612dce565b610f36565b6040516103569190612a2f565b60405180910390f35b34801561036b57600080fd5b506103746111e8565b6040516103819190612e0e565b60405180910390f35b34801561039657600080fd5b506103b160048036038101906103ac91906128e8565b61120e565b005b3480156103bf57600080fd5b506103da60048036038101906103d591906128e8565b6112ac565b6040516103ea9493929190612e29565b60405180910390f35b3480156103ff57600080fd5b5061040861133a565b6040516104159190612e8f565b60405180910390f35b34801561042a57600080fd5b50610445600480360381019061044091906128e8565b61135e565b604051610456959493929190612ef2565b60405180910390f35b34801561046b57600080fd5b50610486600480360381019061048191906128e8565b6113ee565b005b34801561049457600080fd5b5061049d6116c9565b005b3480156104ab57600080fd5b506104b46118ea565b6040516104c19190612fa4565b60405180910390f35b3480156104d657600080fd5b506104f160048036038101906104ec9190612fe4565b611910565b005b3480156104ff57600080fd5b5061051a60048036038101906105159190612a76565b611cb3565b005b34801561052857600080fd5b50610531611df6565b60405161053e9190612a2f565b60405180910390f35b60016020528060005260406000206000915090508060000160009054906101000a900473ffffffffffffffffffffffffffffffffffffffff16908060010160009054906101000a900473ffffffffffffffffffffffffffffffffffffffff16908060020154908060030154908060040160009054906101000a900460ff16905085565b6000612710600254836105dd9190613053565b6105e791906130c4565b9050919050565b60008054906101000a900473ffffffffffffffffffffffffffffffffffffffff1673ffffffffffffffffffffffffffffffffffffffff163373ffffffffffffffffffffffffffffffffffffffff161461067c576040517f08c379a000000000000000000000000000000000000000000000000000000000815260040161067390613141565b60405180910390fd5b6101f48111156106c1576040517f08c379a00000000000000000000000000000000000000000000000000000000081526004016106b8906131ad565b60405180910390fd5b60006002549050816002819055507fd347e206f25a89b917fc9482f1a2d294d749baa4dc9bde7fb495ee11fe49164381836040516107009291906131cd565b60405180910390a15050565b60085481565b60008054906101000a900473ffffffffffffffffffffffffffffffffffffffff1673ffffffffffffffffffffffffffffffffffffffff163373ffffffffffffffffffffffffffffffffffffffff16146107a0576040517f08c379a000000000000000000000000000000000000000000000000000000000815260040161079790613141565b60405180910390fd5b600073ffffffffffffffffffffffffffffffffffffffff168173ffffffffffffffffffffffffffffffffffffffff160361080f576040517f08c379a000000000000000000000000000000000000000000000000000000000815260040161080690613242565b60405180910390fd5b80600560006101000a81548173ffffffffffffffffffffffffffffffffffffffff021916908373ffffffffffffffffffffffffffffffffffffffff16021790555050565b600460009054906101000a900473ffffffffffffffffffffffffffffffffffffffff1673ffffffffffffffffffffffffffffffffffffffff163373ffffffffffffffffffffffffffffffffffffffff16146108e3576040517f08c379a00000000000000000000000000000000000000000000000000000000081526004016108da906132ae565b60405180910390fd5b6108ee816001611910565b50565b60008060066000858152602001908152602001600020905060008160000160009054906101000a900473ffffffffffffffffffffffffffffffffffffffff1673ffffffffffffffffffffffffffffffffffffffff168473ffffffffffffffffffffffffffffffffffffffff1614806109b857508160010160009054906101000a900473ffffffffffffffffffffffffffffffffffffffff1673ffffffffffffffffffffffffffffffffffffffff168473ffffffffffffffffffffffffffffffffffffffff16145b90506000600160038111156109d0576109cf612965565b5b8360030160009054906101000a900460ff1660038111156109f4576109f3612965565b5b1490506000600380811115610a0c57610a0b612965565b5b8460030160009054906101000a900460ff166003811115610a3057610a2f612965565b5b1490506000801515600760008a815260200190815260200160002060000160009054906101000a900460ff161515149050838015610a7357508280610a725750815b5b8015610a7c5750805b9550505050505092915050565b60076020528060005260406000206000915090508060000160009054906101000a900460ff16908060000160019054906101000a900473ffffffffffffffffffffffffffffffffffffffff1690806001018054610ae5906132fd565b80601f0160208091040260200160405190810160405280929190818152602001828054610b11906132fd565b8015610b5e5780601f10610b3357610100808354040283529160200191610b5e565b820191906000526020600020905b815481529060010190602001808311610b4157829003601f168201915b5050505050908060020160009054906101000a900460ff16905084565b600060066000848152602001908152602001600020905060016003811115610ba657610ba5612965565b5b8160030160009054906101000a900460ff166003811115610bca57610bc9612965565b5b1480610c0a5750600380811115610be457610be3612965565b5b8160030160009054906101000a900460ff166003811115610c0857610c07612965565b5b145b610c49576040517f08c379a0000000000000000000000000000000000000000000000000000000008152600401610c409061337a565b60405180910390fd5b8060000160009054906101000a900473ffffffffffffffffffffffffffffffffffffffff1673ffffffffffffffffffffffffffffffffffffffff163373ffffffffffffffffffffffffffffffffffffffff161480610cf657508060010160009054906101000a900473ffffffffffffffffffffffffffffffffffffffff1673ffffffffffffffffffffffffffffffffffffffff163373ffffffffffffffffffffffffffffffffffffffff16145b610d35576040517f08c379a0000000000000000000000000000000000000000000000000000000008152600401610d2c906133e6565b60405180910390fd5b600015156007600085815260200190815260200160002060000160009054906101000a900460ff16151514610d9f576040517f08c379a0000000000000000000000000000000000000000000000000000000008152600401610d9690613452565b60405180910390fd5b60405180608001604052806001151581526020013373ffffffffffffffffffffffffffffffffffffffff16815260200183815260200160006002811115610de957610de8612965565b5b8152506007600085815260200190815260200160002060008201518160000160006101000a81548160ff02191690831515021790555060208201518160000160016101000a81548173ffffffffffffffffffffffffffffffffffffffff021916908373ffffffffffffffffffffffffffffffffffffffff1602179055506040820151816001019081610e7b9190613614565b5060608201518160020160006101000a81548160ff02191690836002811115610ea757610ea6612965565b5b021790555090505060028160030160006101000a81548160ff02191690836003811115610ed757610ed6612965565b5b02179055503373ffffffffffffffffffffffffffffffffffffffff16837f1b84372106d77c6daea0dda35bbc0229d10a83f58ec89909288492519368234184604051610f2391906136e6565b60405180910390a3505050565b60035481565b60008073ffffffffffffffffffffffffffffffffffffffff168373ffffffffffffffffffffffffffffffffffffffff1603610fa6576040517f08c379a0000000000000000000000000000000000000000000000000000000008152600401610f9d90613754565b60405180910390fd5b60008211610fe9576040517f08c379a0000000000000000000000000000000000000000000000000000000008152600401610fe0906137c0565b60405180910390fd5b600060085490506001600854610fff91906137e0565b60088190555061101181338686611dfc565b6040518060a001604052803373ffffffffffffffffffffffffffffffffffffffff1681526020018573ffffffffffffffffffffffffffffffffffffffff1681526020018481526020016001600381111561106e5761106d612965565b5b8152602001600015158152506006600083815260200190815260200160002060008201518160000160006101000a81548173ffffffffffffffffffffffffffffffffffffffff021916908373ffffffffffffffffffffffffffffffffffffffff16021790555060208201518160010160006101000a81548173ffffffffffffffffffffffffffffffffffffffff021916908373ffffffffffffffffffffffffffffffffffffffff1602179055506040820151816002015560608201518160030160006101000a81548160ff021916908360038111156111505761114f612965565b5b021790555060808201518160030160016101000a81548160ff0219169083151502179055509050508373ffffffffffffffffffffffffffffffffffffffff163373ffffffffffffffffffffffffffffffffffffffff16827ff9e17940e547201709f9aaacdec8ab3566601c60d8f5affb54f74b79b0b50b13866040516111d69190612a2f565b60405180910390a48091505092915050565b600460009054906101000a900473ffffffffffffffffffffffffffffffffffffffff1681565b600460009054906101000a900473ffffffffffffffffffffffffffffffffffffffff1673ffffffffffffffffffffffffffffffffffffffff163373ffffffffffffffffffffffffffffffffffffffff161461129e576040517f08c379a0000000000000000000000000000000000000000000000000000000008152600401611295906132ae565b60405180910390fd5b6112a9816002611910565b50565b60008060008060006001600087815260200190815260200160002090508060000160009054906101000a900473ffffffffffffffffffffffffffffffffffffffff168160010160009054906101000a900473ffffffffffffffffffffffffffffffffffffffff1682600201548360040160009054906101000a900460ff169450945094509450509193509193565b60008054906101000a900473ffffffffffffffffffffffffffffffffffffffff1681565b60066020528060005260406000206000915090508060000160009054906101000a900473ffffffffffffffffffffffffffffffffffffffff16908060010160009054906101000a900473ffffffffffffffffffffffffffffffffffffffff16908060020154908060030160009054906101000a900460ff16908060030160019054906101000a900460ff16905085565b60006006600083815260200190815260200160002090508060000160009054906101000a900473ffffffffffffffffffffffffffffffffffffffff1673ffffffffffffffffffffffffffffffffffffffff163373ffffffffffffffffffffffffffffffffffffffff1614806114b257508060010160009054906101000a900473ffffffffffffffffffffffffffffffffffffffff1673ffffffffffffffffffffffffffffffffffffffff163373ffffffffffffffffffffffffffffffffffffffff16145b806114c357506114c28233612145565b5b611502576040517f08c379a00000000000000000000000000000000000000000000000000000000081526004016114f990613886565b60405180910390fd5b6001600381111561151657611515612965565b5b8160030160009054906101000a900460ff16600381111561153a57611539612965565b5b1461157a576040517f08c379a0000000000000000000000000000000000000000000000000000000008152600401611571906138f2565b60405180910390fd5b600015156007600084815260200190815260200160002060000160009054906101000a900460ff161515146115e4576040517f08c379a00000000000000000000000000000000000000000000000000000000081526004016115db90613452565b60405180910390fd5b600015158160030160019054906101000a900460ff1615151461163c576040517f08c379a00000000000000000000000000000000000000000000000000000000081526004016116339061395e565b60405180910390fd5b60038160030160006101000a81548160ff0219169083600381111561166457611663612965565b5b021790555060018160030160016101000a81548160ff02191690831515021790555061168f826122bb565b61169882612450565b817f02a7d4d9472af7118644884b9a0ee443540c0027e938dd0aa35be8ecbe946c0a60405160405180910390a25050565b60008054906101000a900473ffffffffffffffffffffffffffffffffffffffff1673ffffffffffffffffffffffffffffffffffffffff163373ffffffffffffffffffffffffffffffffffffffff1614611757576040517f08c379a000000000000000000000000000000000000000000000000000000000815260040161174e90613141565b60405180910390fd5b60006003541161179c576040517f08c379a0000000000000000000000000000000000000000000000000000000008152600401611793906139ca565b60405180910390fd5b60006003549050600060038190555060008060009054906101000a900473ffffffffffffffffffffffffffffffffffffffff1673ffffffffffffffffffffffffffffffffffffffff16826040516117f290613a1b565b60006040518083038185875af1925050503d806000811461182f576040519150601f19603f3d011682016040523d82523d6000602084013e611834565b606091505b5050905080611878576040517f08c379a000000000000000000000000000000000000000000000000000000000815260040161186f90613a7c565b60405180910390fd5b60008054906101000a900473ffffffffffffffffffffffffffffffffffffffff1673ffffffffffffffffffffffffffffffffffffffff167fccd267390035d6e18d565c4ae4c0583fe1a7eab17993787dbb83a61c03c6c19a836040516118de9190612a2f565b60405180910390a25050565b600560009054906101000a900473ffffffffffffffffffffffffffffffffffffffff1681565b600460009054906101000a900473ffffffffffffffffffffffffffffffffffffffff1673ffffffffffffffffffffffffffffffffffffffff163373ffffffffffffffffffffffffffffffffffffffff16146119a0576040517f08c379a000000000000000000000000000000000000000000000000000000000815260040161199790613ae8565b60405180910390fd5b60006006600084815260200190815260200160002090506000600760008581526020019081526020016000209050600260038111156119e2576119e1612965565b5b8260030160009054906101000a900460ff166003811115611a0657611a05612965565b5b14611a46576040517f08c379a0000000000000000000000000000000000000000000000000000000008152600401611a3d90613b54565b60405180910390fd5b600115158160000160009054906101000a900460ff16151514611a9e576040517f08c379a0000000000000000000000000000000000000000000000000000000008152600401611a9590613bc0565b60405180910390fd5b600015158260030160019054906101000a900460ff16151514611af6576040517f08c379a0000000000000000000000000000000000000000000000000000000008152600401611aed9061395e565b60405180910390fd5b60016002811115611b0a57611b09612965565b5b836002811115611b1d57611b1c612965565b5b1480611b4c5750600280811115611b3757611b36612965565b5b836002811115611b4a57611b49612965565b5b145b611b8b576040517f08c379a0000000000000000000000000000000000000000000000000000000008152600401611b8290613c2c565b60405180910390fd5b828160020160006101000a81548160ff02191690836002811115611bb257611bb1612965565b5b021790555060038260030160006101000a81548160ff02191690836003811115611bdf57611bde612965565b5b021790555060018260030160016101000a81548160ff02191690831515021790555060016002811115611c1557611c14612965565b5b836002811115611c2857611c27612965565b5b03611c3757611c3684612709565b5b600280811115611c4a57611c49612965565b5b836002811115611c5d57611c5c612965565b5b03611c7557611c6b846122bb565b611c7484612450565b5b837f2ffcfee146bc0d5ff304c6b65111a0d485af9456dc64eee7d66ebdcc90b223ea84604051611ca59190613c4c565b60405180910390a250505050565b600460009054906101000a900473ffffffffffffffffffffffffffffffffffffffff1673ffffffffffffffffffffffffffffffffffffffff163373ffffffffffffffffffffffffffffffffffffffff1614611d43576040517f08c379a0000000000000000000000000000000000000000000000000000000008152600401611d3a90613cd9565b60405180910390fd5b600073ffffffffffffffffffffffffffffffffffffffff168173ffffffffffffffffffffffffffffffffffffffff1603611db2576040517f08c379a0000000000000000000000000000000000000000000000000000000008152600401611da990613d45565b60405180910390fd5b80600460006101000a81548173ffffffffffffffffffffffffffffffffffffffff021916908373ffffffffffffffffffffffffffffffffffffffff16021790555050565b60025481565b600073ffffffffffffffffffffffffffffffffffffffff168373ffffffffffffffffffffffffffffffffffffffff1603611e6b576040517f08c379a0000000000000000000000000000000000000000000000000000000008152600401611e6290613db1565b60405180910390fd5b600073ffffffffffffffffffffffffffffffffffffffff168273ffffffffffffffffffffffffffffffffffffffff1603611eda576040517f08c379a0000000000000000000000000000000000000000000000000000000008152600401611ed190613e1d565b60405180910390fd5b60008111611f1d576040517f08c379a0000000000000000000000000000000000000000000000000000000008152600401611f1490613e89565b60405180910390fd5b803414611f5f576040517f08c379a0000000000000000000000000000000000000000000000000000000008152600401611f5690613ef5565b60405180910390fd5b600060016000868152602001908152602001600020905060006003811115611f8a57611f89612965565b5b8160040160009054906101000a900460ff166003811115611fae57611fad612965565b5b14611fee576040517f08c379a0000000000000000000000000000000000000000000000000000000008152600401611fe590613f61565b60405180910390fd5b6040518060a001604052808573ffffffffffffffffffffffffffffffffffffffff1681526020018473ffffffffffffffffffffffffffffffffffffffff16815260200183815260200160025481526020016001600381111561205357612052612965565b5b8152506001600087815260200190815260200160002060008201518160000160006101000a81548173ffffffffffffffffffffffffffffffffffffffff021916908373ffffffffffffffffffffffffffffffffffffffff16021790555060208201518160010160006101000a81548173ffffffffffffffffffffffffffffffffffffffff021916908373ffffffffffffffffffffffffffffffffffffffff160217905550604082015181600201556060820151816003015560808201518160040160006101000a81548160ff0219169083600381111561213657612135612965565b5b02179055509050505050505050565b60008073ffffffffffffffffffffffffffffffffffffffff16600560009054906101000a900473ffffffffffffffffffffffffffffffffffffffff1673ffffffffffffffffffffffffffffffffffffffff16036121a557600090506122b5565b6000600560009054906101000a900473ffffffffffffffffffffffffffffffffffffffff1673ffffffffffffffffffffffffffffffffffffffff1663d09ef241856040518263ffffffff1660e01b81526004016122029190612a2f565b60a060405180830381865afa15801561221f573d6000803e3d6000fd5b505050506040513d601f19601f820116820180604052508101906122439190613fd0565b505092505050600073ffffffffffffffffffffffffffffffffffffffff168173ffffffffffffffffffffffffffffffffffffffff16141580156122b157508073ffffffffffffffffffffffffffffffffffffffff168373ffffffffffffffffffffffffffffffffffffffff16145b9150505b92915050565b600073ffffffffffffffffffffffffffffffffffffffff16600560009054906101000a900473ffffffffffffffffffffffffffffffffffffffff1673ffffffffffffffffffffffffffffffffffffffff160361234c576040517f08c379a000000000000000000000000000000000000000000000000000000000815260040161234390614097565b60405180910390fd5b60038081111561235f5761235e612965565b5b600560009054906101000a900473ffffffffffffffffffffffffffffffffffffffff1673ffffffffffffffffffffffffffffffffffffffff166345fa8aae836040518263ffffffff1660e01b81526004016123ba9190612a2f565b602060405180830381865afa1580156123d7573d6000803e3d6000fd5b505050506040513d601f19601f820116820180604052508101906123fb91906140b7565b600381111561240d5761240c612965565b5b1461244d576040517f08c379a000000000000000000000000000000000000000000000000000000000815260040161244490614130565b60405180910390fd5b50565b60006001600083815260200190815260200160002090506001600381111561247b5761247a612965565b5b8160040160009054906101000a900460ff16600381111561249f5761249e612965565b5b146124df576040517f08c379a00000000000000000000000000000000000000000000000000000000081526004016124d69061419c565b60405180910390fd5b6000612710826003015483600201546124f89190613053565b61250291906130c4565b9050808260020154101561254b576040517f08c379a000000000000000000000000000000000000000000000000000000000815260040161254290614208565b60405180910390fd5b600081836002015461255d9190614228565b905060028360040160006101000a81548160ff0219169083600381111561258757612586612965565b5b021790555060008211156126285781600360008282546125a791906137e0565b925050819055508260010160009054906101000a900473ffffffffffffffffffffffffffffffffffffffff1673ffffffffffffffffffffffffffffffffffffffff16847fe1d1943d19c4af2a9ffc56164a2ef2dfb33fffe65fbdb87f91aa85593a4ad58884866002015460405161261f9291906131cd565b60405180910390a35b60008111156127035760008360010160009054906101000a900473ffffffffffffffffffffffffffffffffffffffff1673ffffffffffffffffffffffffffffffffffffffff168260405161267b90613a1b565b60006040518083038185875af1925050503d80600081146126b8576040519150601f19603f3d011682016040523d82523d6000602084013e6126bd565b606091505b5050905080612701576040517f08c379a00000000000000000000000000000000000000000000000000000000081526004016126f8906142a8565b60405180910390fd5b505b50505050565b60006001600083815260200190815260200160002090506001600381111561273457612733612965565b5b8160040160009054906101000a900460ff16600381111561275857612757612965565b5b14612798576040517f08c379a000000000000000000000000000000000000000000000000000000000815260040161278f9061419c565b60405180910390fd5b60038160040160006101000a81548160ff021916908360038111156127c0576127bf612965565b5b021790555060008160000160009054906101000a900473ffffffffffffffffffffffffffffffffffffffff1673ffffffffffffffffffffffffffffffffffffffff16826002015460405161281390613a1b565b60006040518083038185875af1925050503d8060008114612850576040519150601f19603f3d011682016040523d82523d6000602084013e612855565b606091505b5050905080612899576040517f08c379a000000000000000000000000000000000000000000000000000000000815260040161289090614314565b60405180910390fd5b505050565b6000604051905090565b600080fd5b600080fd5b6000819050919050565b6128c5816128b2565b81146128d057600080fd5b50565b6000813590506128e2816128bc565b92915050565b6000602082840312156128fe576128fd6128a8565b5b600061290c848285016128d3565b91505092915050565b600073ffffffffffffffffffffffffffffffffffffffff82169050919050565b600061294082612915565b9050919050565b61295081612935565b82525050565b61295f816128b2565b82525050565b7f4e487b7100000000000000000000000000000000000000000000000000000000600052602160045260246000fd5b600481106129a5576129a4612965565b5b50565b60008190506129b682612994565b919050565b60006129c6826129a8565b9050919050565b6129d6816129bb565b82525050565b600060a0820190506129f16000830188612947565b6129fe6020830187612947565b612a0b6040830186612956565b612a186060830185612956565b612a2560808301846129cd565b9695505050505050565b6000602082019050612a446000830184612956565b92915050565b612a5381612935565b8114612a5e57600080fd5b50565b600081359050612a7081612a4a565b92915050565b600060208284031215612a8c57612a8b6128a8565b5b6000612a9a84828501612a61565b91505092915050565b60008060408385031215612aba57612ab96128a8565b5b6000612ac8858286016128d3565b9250506020612ad985828601612a61565b9150509250929050565b60008115159050919050565b612af881612ae3565b82525050565b6000602082019050612b136000830184612aef565b92915050565b600081519050919050565b600082825260208201905092915050565b60005b83811015612b53578082015181840152602081019050612b38565b60008484015250505050565b6000601f19601f8301169050919050565b6000612b7b82612b19565b612b858185612b24565b9350612b95818560208601612b35565b612b9e81612b5f565b840191505092915050565b60038110612bba57612bb9612965565b5b50565b6000819050612bcb82612ba9565b919050565b6000612bdb82612bbd565b9050919050565b612beb81612bd0565b82525050565b6000608082019050612c066000830187612aef565b612c136020830186612947565b8181036040830152612c258185612b70565b9050612c346060830184612be2565b95945050505050565b600080fd5b600080fd5b7f4e487b7100000000000000000000000000000000000000000000000000000000600052604160045260246000fd5b612c7f82612b5f565b810181811067ffffffffffffffff82111715612c9e57612c9d612c47565b5b80604052505050565b6000612cb161289e565b9050612cbd8282612c76565b919050565b600067ffffffffffffffff821115612cdd57612cdc612c47565b5b612ce682612b5f565b9050602081019050919050565b82818337600083830152505050565b6000612d15612d1084612cc2565b612ca7565b905082815260208101848484011115612d3157612d30612c42565b5b612d3c848285612cf3565b509392505050565b600082601f830112612d5957612d58612c3d565b5b8135612d69848260208601612d02565b91505092915050565b60008060408385031215612d8957612d886128a8565b5b6000612d97858286016128d3565b925050602083013567ffffffffffffffff811115612db857612db76128ad565b5b612dc485828601612d44565b9150509250929050565b60008060408385031215612de557612de46128a8565b5b6000612df385828601612a61565b9250506020612e04858286016128d3565b9150509250929050565b6000602082019050612e236000830184612947565b92915050565b6000608082019050612e3e6000830187612947565b612e4b6020830186612947565b612e586040830185612956565b612e6560608301846129cd565b95945050505050565b6000612e7982612915565b9050919050565b612e8981612e6e565b82525050565b6000602082019050612ea46000830184612e80565b92915050565b60048110612ebb57612eba612965565b5b50565b6000819050612ecc82612eaa565b919050565b6000612edc82612ebe565b9050919050565b612eec81612ed1565b82525050565b600060a082019050612f076000830188612947565b612f146020830187612947565b612f216040830186612956565b612f2e6060830185612ee3565b612f3b6080830184612aef565b9695505050505050565b6000819050919050565b6000612f6a612f65612f6084612915565b612f45565b612915565b9050919050565b6000612f7c82612f4f565b9050919050565b6000612f8e82612f71565b9050919050565b612f9e81612f83565b82525050565b6000602082019050612fb96000830184612f95565b92915050565b60038110612fcc57600080fd5b50565b600081359050612fde81612fbf565b92915050565b60008060408385031215612ffb57612ffa6128a8565b5b6000613009858286016128d3565b925050602061301a85828601612fcf565b9150509250929050565b7f4e487b7100000000000000000000000000000000000000000000000000000000600052601160045260246000fd5b600061305e826128b2565b9150613069836128b2565b9250828202613077816128b2565b9150828204841483151761308e5761308d613024565b5b5092915050565b7f4e487b7100000000000000000000000000000000000000000000000000000000600052601260045260246000fd5b60006130cf826128b2565b91506130da836128b2565b9250826130ea576130e9613095565b5b828204905092915050565b7f4e6f7420706c6174666f726d206f776e65720000000000000000000000000000600082015250565b600061312b601283612b24565b9150613136826130f5565b602082019050919050565b6000602082019050818103600083015261315a8161311e565b9050919050565b7f46656520746f6f20686967680000000000000000000000000000000000000000600082015250565b6000613197600c83612b24565b91506131a282613161565b602082019050919050565b600060208201905081810360008301526131c68161318a565b9050919050565b60006040820190506131e26000830185612956565b6131ef6020830184612956565b9392505050565b7f496e76616c6964206f7264657220747261636b696e6720616464726573730000600082015250565b600061322c601e83612b24565b9150613237826131f6565b602082019050919050565b6000602082019050818103600083015261325b8161321f565b9050919050565b7f4f6e6c792061726269747261746f720000000000000000000000000000000000600082015250565b6000613298600f83612b24565b91506132a382613262565b602082019050919050565b600060208201905081810360008301526132c78161328b565b9050919050565b7f4e487b7100000000000000000000000000000000000000000000000000000000600052602260045260246000fd5b6000600282049050600182168061331557607f821691505b602082108103613328576133276132ce565b5b50919050565b7f4f72646572206e6f7420696e20612064697370757461626c6520737461746500600082015250565b6000613364601f83612b24565b915061336f8261332e565b602082019050919050565b6000602082019050818103600083015261339381613357565b9050919050565b7f4e6f74206275796572206f722073656c6c657200000000000000000000000000600082015250565b60006133d0601383612b24565b91506133db8261339a565b602082019050919050565b600060208201905081810360008301526133ff816133c3565b9050919050565b7f4469737075746520616c72656164792065786973747300000000000000000000600082015250565b600061343c601683612b24565b915061344782613406565b602082019050919050565b6000602082019050818103600083015261346b8161342f565b9050919050565b60008190508160005260206000209050919050565b60006020601f8301049050919050565b600082821b905092915050565b6000600883026134d47fffffffffffffffffffffffffffffffffffffffffffffffffffffffffffffffff82613497565b6134de8683613497565b95508019841693508086168417925050509392505050565b600061351161350c613507846128b2565b612f45565b6128b2565b9050919050565b6000819050919050565b61352b836134f6565b61353f61353782613518565b8484546134a4565b825550505050565b600090565b613554613547565b61355f818484613522565b505050565b5b818110156135835761357860008261354c565b600181019050613565565b5050565b601f8211156135c85761359981613472565b6135a284613487565b810160208510156135b1578190505b6135c56135bd85613487565b830182613564565b50505b505050565b600082821c905092915050565b60006135eb600019846008026135cd565b1980831691505092915050565b600061360483836135da565b9150826002028217905092915050565b61361d82612b19565b67ffffffffffffffff81111561363657613635612c47565b5b61364082546132fd565b61364b828285613587565b600060209050601f83116001811461367e576000841561366c578287015190505b61367685826135f8565b8655506136de565b601f19841661368c86613472565b60005b828110156136b45784890151825560018201915060208501945060208101905061368f565b868310156136d157848901516136cd601f8916826135da565b8355505b6001600288020188555050505b505050505050565b600060208201905081810360008301526137008184612b70565b905092915050565b7f496e76616c69642073656c6c6572000000000000000000000000000000000000600082015250565b600061373e600e83612b24565b915061374982613708565b602082019050919050565b6000602082019050818103600083015261376d81613731565b9050919050565b7f416d6f756e74206d757374206265203e20300000000000000000000000000000600082015250565b60006137aa601283612b24565b91506137b582613774565b602082019050919050565b600060208201905081810360008301526137d98161379d565b9050919050565b60006137eb826128b2565b91506137f6836128b2565b925082820190508082111561380e5761380d613024565b5b92915050565b7f4f6e6c792062757965722f73656c6c65722f636f75726965722063616e20636f60008201527f6d706c6574650000000000000000000000000000000000000000000000000000602082015250565b6000613870602683612b24565b915061387b82613814565b604082019050919050565b6000602082019050818103600083015261389f81613863565b9050919050565b7f4f72646572206e6f7420696e2050616964207374617465000000000000000000600082015250565b60006138dc601783612b24565b91506138e7826138a6565b602082019050919050565b6000602082019050818103600083015261390b816138cf565b9050919050565b7f5061796f757420616c726561647920646f6e6500000000000000000000000000600082015250565b6000613948601383612b24565b915061395382613912565b602082019050919050565b600060208201905081810360008301526139778161393b565b9050919050565b7f4e6f20706c6174666f726d206665657300000000000000000000000000000000600082015250565b60006139b4601083612b24565b91506139bf8261397e565b602082019050919050565b600060208201905081810360008301526139e3816139a7565b9050919050565b600081905092915050565b50565b6000613a056000836139ea565b9150613a10826139f5565b600082019050919050565b6000613a26826139f8565b9150819050919050565b7f506c6174666f726d207769746864726177616c206661696c6564000000000000600082015250565b6000613a66601a83612b24565b9150613a7182613a30565b602082019050919050565b60006020820190508181036000830152613a9581613a59565b9050919050565b7f4f6e6c792061726269747261746f722063616e207265736f6c76650000000000600082015250565b6000613ad2601b83612b24565b9150613add82613a9c565b602082019050919050565b60006020820190508181036000830152613b0181613ac5565b9050919050565b7f4f72646572206e6f742064697370757465640000000000000000000000000000600082015250565b6000613b3e601283612b24565b9150613b4982613b08565b602082019050919050565b60006020820190508181036000830152613b6d81613b31565b9050919050565b7f4e6f206469737075746520666f756e6400000000000000000000000000000000600082015250565b6000613baa601083612b24565b9150613bb582613b74565b602082019050919050565b60006020820190508181036000830152613bd981613b9d565b9050919050565b7f496e76616c6964206f7574636f6d650000000000000000000000000000000000600082015250565b6000613c16600f83612b24565b9150613c2182613be0565b602082019050919050565b60006020820190508181036000830152613c4581613c09565b9050919050565b6000602082019050613c616000830184612be2565b92915050565b7f4f6e6c792061726269747261746f722063616e206368616e676520617262697460008201527f7261746f72000000000000000000000000000000000000000000000000000000602082015250565b6000613cc3602583612b24565b9150613cce82613c67565b604082019050919050565b60006020820190508181036000830152613cf281613cb6565b9050919050565b7f496e76616c69642061726269747261746f720000000000000000000000000000600082015250565b6000613d2f601283612b24565b9150613d3a82613cf9565b602082019050919050565b60006020820190508181036000830152613d5e81613d22565b9050919050565b7f496e76616c696420627579657220616464726573730000000000000000000000600082015250565b6000613d9b601583612b24565b9150613da682613d65565b602082019050919050565b60006020820190508181036000830152613dca81613d8e565b9050919050565b7f496e76616c69642073656c6c6572206164647265737300000000000000000000600082015250565b6000613e07601683612b24565b9150613e1282613dd1565b602082019050919050565b60006020820190508181036000830152613e3681613dfa565b9050919050565b7f416d6f756e74206d7573742062652067726561746572207468616e2030000000600082015250565b6000613e73601d83612b24565b9150613e7e82613e3d565b602082019050919050565b60006020820190508181036000830152613ea281613e66565b9050919050565b7f496e636f72726563742045544820616d6f756e74000000000000000000000000600082015250565b6000613edf601483612b24565b9150613eea82613ea9565b602082019050919050565b60006020820190508181036000830152613f0e81613ed2565b9050919050565b7f457363726f7720616c7265616479206578697374730000000000000000000000600082015250565b6000613f4b601583612b24565b9150613f5682613f15565b602082019050919050565b60006020820190508181036000830152613f7a81613f3e565b9050919050565b600081519050613f9081612a4a565b92915050565b60048110613fa357600080fd5b50565b600081519050613fb581613f96565b92915050565b600081519050613fca816128bc565b92915050565b600080600080600060a08688031215613fec57613feb6128a8565b5b6000613ffa88828901613f81565b955050602061400b88828901613f81565b945050604061401c88828901613f81565b935050606061402d88828901613fa6565b925050608061403e88828901613fbb565b9150509295509295909350565b7f4f7264657220747261636b696e67206e6f742073657400000000000000000000600082015250565b6000614081601683612b24565b915061408c8261404b565b602082019050919050565b600060208201905081810360008301526140b081614074565b9050919050565b6000602082840312156140cd576140cc6128a8565b5b60006140db84828501613fa6565b91505092915050565b7f4f72646572206e6f742064656c69766572656400000000000000000000000000600082015250565b600061411a601383612b24565b9150614125826140e4565b602082019050919050565b600060208201905081810360008301526141498161410d565b9050919050565b7f457363726f77206e6f74206c6f636b6564000000000000000000000000000000600082015250565b6000614186601183612b24565b915061419182614150565b602082019050919050565b600060208201905081810360008301526141b581614179565b9050919050565b7f466565206578636565647320616d6f756e740000000000000000000000000000600082015250565b60006141f2601283612b24565b91506141fd826141bc565b602082019050919050565b60006020820190508181036000830152614221816141e5565b9050919050565b6000614233826128b2565b915061423e836128b2565b925082820390508181111561425657614255613024565b5b92915050565b7f4554482072656c65617365206661696c65640000000000000000000000000000600082015250565b6000614292601283612b24565b915061429d8261425c565b602082019050919050565b600060208201905081810360008301526142c181614285565b9050919050565b7f45544820726566756e64206661696c6564000000000000000000000000000000600082015250565b60006142fe601183612b24565b9150614309826142c8565b602082019050919050565b6000602082019050818103600083015261432d816142f1565b905091905056fea264697066735822122090c79a90bddcf796f5d91b3f97645d91c681af1988b3f841bb51b8720dc47f7664736f6c63430008130033",
  "immutableReferences": {},
  "source": "/*\r\nI declare that this code was written by me.\r\nI will not copy or allow others to copy my code.\r\nI understand that copying code is considered as plagiarism.\r\n\r\nStudent Name: Saw Kaung Khant Thiha\r\nStudent ID: 24025215\r\nClass: C372-003\r\nDate created: 16/01/2026\r\n*/\r\n\r\n// SPDX-License-Identifier: MIT\r\npragma solidity ^0.8.19;\r\n\r\nimport \"./Payment_escrow.sol\";\r\n\r\ninterface IOrderTracking {\r\n    enum Status {\r\n        None,\r\n        Created,\r\n        Shipped,\r\n        Delivered\r\n    }\r\n\r\n    function getOrderStatus(uint256 orderId) external view returns (Status);\r\n    function getOrder(uint256 orderId) external view returns (\r\n        address buyer,\r\n        address seller,\r\n        address courier,\r\n        Status status,\r\n        uint256 createdAt\r\n    );\r\n}\r\n\r\ncontract OnlineStoreDisputes is EscrowPayment {\r\n\r\n    // Who can resolve disputes\r\n    address public arbitrator;\r\n    IOrderTracking public orderTracking;\r\n\r\n    constructor() EscrowPayment() {\r\n        arbitrator = msg.sender;\r\n        nextOrderId = 1;\r\n    }\r\n\r\n    function setOrderTracking(address orderTrackingAddress) external onlyOwner {\r\n        require(orderTrackingAddress != address(0), \"Invalid order tracking address\");\r\n        orderTracking = IOrderTracking(orderTrackingAddress);\r\n    }\r\n\r\n    function changeArbitrator(address newArbitrator) public {\n        require(msg.sender == arbitrator, \"Only arbitrator can change arbitrator\");\n        require(newArbitrator != address(0), \"Invalid arbitrator\");\n        arbitrator = newArbitrator;\n    }\n\n    // ADDED FOR ARBITRATOR / REFUND HISTORY\n    modifier onlyArbitrator() {\n        require(msg.sender == arbitrator, \"Only arbitrator\");\n        _;\n    }\n\n    enum OrderStatus {\r\n        None,\r\n        Paid,\r\n        Disputed,\r\n        Resolved\r\n    }\r\n\r\n    enum DisputeOutcome {\r\n        None,\r\n        RefundBuyer,\r\n        ReleaseToSeller\r\n    }\r\n\r\n    struct Order {\r\n        address buyer;\r\n        address seller;\r\n        uint256 amount;     // ETH amount (in wei)\r\n        OrderStatus status;\r\n        bool payoutDone;\r\n    }\r\n\r\n    struct Dispute {\r\n        bool exists;\r\n        address openedBy;\r\n        string reason;\r\n        DisputeOutcome outcome;\r\n    }\r\n\r\n    mapping(uint256 => Order) public orders;\r\n    mapping(uint256 => Dispute) public disputes;\r\n    uint256 public nextOrderId;\r\n\r\n    event OrderCreated(uint256 indexed orderId, address indexed buyer, address indexed seller, uint256 amount);\r\n    event DisputeRaised(uint256 indexed orderId, address indexed openedBy, string reason);\r\n    event DisputeResolved(uint256 indexed orderId, DisputeOutcome outcome);\r\n    event OrderCompleted(uint256 indexed orderId);\r\n\r\n    /*\r\n      Buyer creates order AND locks ETH into escrow in one step.\r\n\r\n      Important:\r\n      - Buyer must send ETH equal to `amount` as msg.value.\r\n    */\r\n    function createOrder(address seller, uint256 amount) public payable returns (uint256) {\r\n        require(seller != address(0), \"Invalid seller\");\r\n        require(amount > 0, \"Amount must be > 0\");\r\n\r\n        uint256 orderId = nextOrderId;\r\n        nextOrderId = nextOrderId + 1;\r\n\r\n        _lockEscrow(orderId, msg.sender, seller, amount);\r\n\r\n        orders[orderId] = Order(\r\n            msg.sender,\r\n            seller,\r\n            amount,\r\n            OrderStatus.Paid,\r\n            false\r\n        );\r\n\r\n        emit OrderCreated(orderId, msg.sender, seller, amount);\r\n        return orderId;\r\n    }\r\n\r\n    // Buyer OR seller can open a dispute\r\n    function raiseDispute(uint256 orderId, string memory reason) public {\r\n        Order storage order = orders[orderId];\r\n\r\n        require(\n            order.status == OrderStatus.Paid || order.status == OrderStatus.Resolved,\n            \"Order not in a disputable state\"\n        );\n        require(msg.sender == order.buyer || msg.sender == order.seller, \"Not buyer or seller\");\r\n        require(disputes[orderId].exists == false, \"Dispute already exists\");\r\n\r\n        disputes[orderId] = Dispute(\r\n            true,\r\n            msg.sender,\r\n            reason,\r\n            DisputeOutcome.None\r\n        );\r\n\r\n        order.status = OrderStatus.Disputed;\r\n\r\n        emit DisputeRaised(orderId, msg.sender, reason);\r\n    }\r\n\r\n    /*\r\n      Arbitrator resolves dispute.\r\n\r\n      outcome values:\r\n      - DisputeOutcome.RefundBuyer (1)\r\n      - DisputeOutcome.ReleaseToSeller (2)\r\n    */\r\n    function resolveDispute(uint256 orderId, DisputeOutcome outcome) public {\n        require(msg.sender == arbitrator, \"Only arbitrator can resolve\");\n\r\n        Order storage order = orders[orderId];\r\n        Dispute storage dispute = disputes[orderId];\r\n\r\n        require(order.status == OrderStatus.Disputed, \"Order not disputed\");\r\n        require(dispute.exists == true, \"No dispute found\");\r\n        require(order.payoutDone == false, \"Payout already done\");\r\n\r\n        // Only allow 2 valid outcomes (no if/else needed)\r\n        require(outcome == DisputeOutcome.RefundBuyer || outcome == DisputeOutcome.ReleaseToSeller, \"Invalid outcome\");\r\n\r\n        dispute.outcome = outcome;\r\n        order.status = OrderStatus.Resolved;\r\n        order.payoutDone = true;\r\n\r\n        if (outcome == DisputeOutcome.RefundBuyer) {\r\n            // Dispute resolved in favor of buyer: no platform fee on refund.\r\n            _refundEscrow(orderId);\r\n        }\r\n\r\n        if (outcome == DisputeOutcome.ReleaseToSeller) {\r\n            _requireDelivered(orderId);\r\n            _releaseEscrow(orderId);\r\n        }\r\n\r\n        emit DisputeResolved(orderId, outcome);\n    }\n\n    // ADDED FOR ARBITRATOR / REFUND HISTORY\n    function approveRefund(uint256 orderId) external onlyArbitrator {\n        resolveDispute(orderId, DisputeOutcome.RefundBuyer);\n    }\n\n    // ADDED FOR ARBITRATOR / REFUND HISTORY\n    function rejectRefund(uint256 orderId) external onlyArbitrator {\n        resolveDispute(orderId, DisputeOutcome.ReleaseToSeller);\n    }\n\r\n    // Buyer confirms successful delivery; releases escrow to seller.\r\n    function completeOrder(uint256 orderId) public {\r\n        Order storage order = orders[orderId];\r\n\r\n        require(\r\n            msg.sender == order.buyer || msg.sender == order.seller || _isCourier(orderId, msg.sender),\r\n            \"Only buyer/seller/courier can complete\"\r\n        );\r\n        require(order.status == OrderStatus.Paid, \"Order not in Paid state\");\r\n        require(disputes[orderId].exists == false, \"Dispute already exists\");\r\n        require(order.payoutDone == false, \"Payout already done\");\r\n\r\n        order.status = OrderStatus.Resolved;\r\n        order.payoutDone = true;\r\n\r\n        _requireDelivered(orderId);\r\n        _releaseEscrow(orderId);\r\n        emit OrderCompleted(orderId);\r\n    }\r\n\r\n    function canRaiseDispute(uint256 orderId, address user) public view returns (bool) {\r\n        Order storage order = orders[orderId];\r\n\r\n        bool isParty = (user == order.buyer) || (user == order.seller);\r\n        bool isPaid = (order.status == OrderStatus.Paid);\n        bool isResolved = (order.status == OrderStatus.Resolved);\n        bool noDisputeYet = (disputes[orderId].exists == false);\n\n        return isParty && (isPaid || isResolved) && noDisputeYet;\n    }\r\n\r\n    function _requireDelivered(uint256 orderId) internal view {\r\n        require(address(orderTracking) != address(0), \"Order tracking not set\");\r\n        require(orderTracking.getOrderStatus(orderId) == IOrderTracking.Status.Delivered, \"Order not delivered\");\r\n    }\r\n\r\n    function _isCourier(uint256 orderId, address user) internal view returns (bool) {\r\n        if (address(orderTracking) == address(0)) {\r\n            return false;\r\n        }\r\n\r\n        (, , address courier, ,) = orderTracking.getOrder(orderId);\r\n        return courier != address(0) && user == courier;\r\n    }\r\n}\r\n",
  "sourcePath": "C:\\republic poly\\Blockchian\\fa\\arut\\AnythingSGProject\\contracts\\DisputeHandling.sol",
  "compiler": {
    "name": "solc",
    "version": "0.8.19+commit.7dd6d404.Emscripten.clang"
  },
  "schemaVersion": "3.4.16",
  "updatedAt": "2026-01-30T11:17:30.784Z",
  "networkType": "ethereum",
  "devdoc": {
    "kind": "dev",
    "methods": {},
    "version": 1
  },
  "userdoc": {
    "kind": "user",
    "methods": {},
    "version": 1
  }
}