{
  "contractName": "OnlineStoreDisputes",
  "abi": [
    {
      "inputs": [],
      "stateMutability": "nonpayable",
      "type": "constructor"
    },
    {
      "anonymous": false,
      "inputs": [
        {
          "indexed": true,
          "internalType": "uint256",
          "name": "orderId",
          "type": "uint256"
        },
        {
          "indexed": true,
          "internalType": "address",
          "name": "openedBy",
          "type": "address"
        },
        {
          "indexed": false,
          "internalType": "string",
          "name": "reason",
          "type": "string"
        }
      ],
      "name": "DisputeRaised",
      "type": "event"
    },
    {
      "anonymous": false,
      "inputs": [
        {
          "indexed": true,
          "internalType": "uint256",
          "name": "orderId",
          "type": "uint256"
        },
        {
          "indexed": false,
          "internalType": "enum OnlineStoreDisputes.DisputeOutcome",
          "name": "outcome",
          "type": "uint8"
        }
      ],
      "name": "DisputeResolved",
      "type": "event"
    },
    {
      "anonymous": false,
      "inputs": [
        {
          "indexed": true,
          "internalType": "uint256",
          "name": "orderId",
          "type": "uint256"
        }
      ],
      "name": "OrderCompleted",
      "type": "event"
    },
    {
      "anonymous": false,
      "inputs": [
        {
          "indexed": true,
          "internalType": "uint256",
          "name": "orderId",
          "type": "uint256"
        },
        {
          "indexed": true,
          "internalType": "address",
          "name": "buyer",
          "type": "address"
        },
        {
          "indexed": true,
          "internalType": "address",
          "name": "seller",
          "type": "address"
        },
        {
          "indexed": false,
          "internalType": "uint256",
          "name": "amount",
          "type": "uint256"
        }
      ],
      "name": "OrderCreated",
      "type": "event"
    },
    {
      "anonymous": false,
      "inputs": [
        {
          "indexed": true,
          "internalType": "uint256",
          "name": "orderId",
          "type": "uint256"
        },
        {
          "indexed": false,
          "internalType": "uint256",
          "name": "feeAmount",
          "type": "uint256"
        },
        {
          "indexed": false,
          "internalType": "uint256",
          "name": "orderAmount",
          "type": "uint256"
        },
        {
          "indexed": true,
          "internalType": "address",
          "name": "seller",
          "type": "address"
        }
      ],
      "name": "PlatformFeeCollected",
      "type": "event"
    },
    {
      "anonymous": false,
      "inputs": [
        {
          "indexed": false,
          "internalType": "uint256",
          "name": "previousFeeBP",
          "type": "uint256"
        },
        {
          "indexed": false,
          "internalType": "uint256",
          "name": "newFeeBP",
          "type": "uint256"
        }
      ],
      "name": "PlatformFeeUpdated",
      "type": "event"
    },
    {
      "anonymous": false,
      "inputs": [
        {
          "indexed": false,
          "internalType": "uint256",
          "name": "amount",
          "type": "uint256"
        },
        {
          "indexed": true,
          "internalType": "address",
          "name": "to",
          "type": "address"
        }
      ],
      "name": "PlatformFeesWithdrawn",
      "type": "event"
    },
    {
      "inputs": [],
      "name": "arbitrator",
      "outputs": [
        {
          "internalType": "address",
          "name": "",
          "type": "address"
        }
      ],
      "stateMutability": "view",
      "type": "function"
    },
    {
      "inputs": [
        {
          "internalType": "uint256",
          "name": "amount",
          "type": "uint256"
        }
      ],
      "name": "calculatePlatformFee",
      "outputs": [
        {
          "internalType": "uint256",
          "name": "",
          "type": "uint256"
        }
      ],
      "stateMutability": "view",
      "type": "function"
    },
    {
      "inputs": [
        {
          "internalType": "uint256",
          "name": "",
          "type": "uint256"
        }
      ],
      "name": "disputes",
      "outputs": [
        {
          "internalType": "bool",
          "name": "exists",
          "type": "bool"
        },
        {
          "internalType": "address",
          "name": "openedBy",
          "type": "address"
        },
        {
          "internalType": "string",
          "name": "reason",
          "type": "string"
        },
        {
          "internalType": "enum OnlineStoreDisputes.DisputeOutcome",
          "name": "outcome",
          "type": "uint8"
        }
      ],
      "stateMutability": "view",
      "type": "function"
    },
    {
      "inputs": [
        {
          "internalType": "uint256",
          "name": "",
          "type": "uint256"
        }
      ],
      "name": "escrows",
      "outputs": [
        {
          "internalType": "address",
          "name": "buyer",
          "type": "address"
        },
        {
          "internalType": "address",
          "name": "seller",
          "type": "address"
        },
        {
          "internalType": "uint256",
          "name": "amount",
          "type": "uint256"
        },
        {
          "internalType": "uint256",
          "name": "feeBPAtLock",
          "type": "uint256"
        },
        {
          "internalType": "enum EscrowPayment.EscrowStatus",
          "name": "status",
          "type": "uint8"
        }
      ],
      "stateMutability": "view",
      "type": "function"
    },
    {
      "inputs": [
        {
          "internalType": "uint256",
          "name": "orderId",
          "type": "uint256"
        }
      ],
      "name": "getEscrow",
      "outputs": [
        {
          "internalType": "address",
          "name": "",
          "type": "address"
        },
        {
          "internalType": "address",
          "name": "",
          "type": "address"
        },
        {
          "internalType": "uint256",
          "name": "",
          "type": "uint256"
        },
        {
          "internalType": "enum EscrowPayment.EscrowStatus",
          "name": "",
          "type": "uint8"
        }
      ],
      "stateMutability": "view",
      "type": "function"
    },
    {
      "inputs": [],
      "name": "nextOrderId",
      "outputs": [
        {
          "internalType": "uint256",
          "name": "",
          "type": "uint256"
        }
      ],
      "stateMutability": "view",
      "type": "function"
    },
    {
      "inputs": [],
      "name": "orderTracking",
      "outputs": [
        {
          "internalType": "contract IOrderTracking",
          "name": "",
          "type": "address"
        }
      ],
      "stateMutability": "view",
      "type": "function"
    },
    {
      "inputs": [
        {
          "internalType": "uint256",
          "name": "",
          "type": "uint256"
        }
      ],
      "name": "orders",
      "outputs": [
        {
          "internalType": "address",
          "name": "buyer",
          "type": "address"
        },
        {
          "internalType": "address",
          "name": "seller",
          "type": "address"
        },
        {
          "internalType": "uint256",
          "name": "amount",
          "type": "uint256"
        },
        {
          "internalType": "enum OnlineStoreDisputes.OrderStatus",
          "name": "status",
          "type": "uint8"
        },
        {
          "internalType": "bool",
          "name": "payoutDone",
          "type": "bool"
        }
      ],
      "stateMutability": "view",
      "type": "function"
    },
    {
      "inputs": [],
      "name": "owner",
      "outputs": [
        {
          "internalType": "address payable",
          "name": "",
          "type": "address"
        }
      ],
      "stateMutability": "view",
      "type": "function"
    },
    {
      "inputs": [],
      "name": "platformBalance",
      "outputs": [
        {
          "internalType": "uint256",
          "name": "",
          "type": "uint256"
        }
      ],
      "stateMutability": "view",
      "type": "function"
    },
    {
      "inputs": [],
      "name": "platformFeeBP",
      "outputs": [
        {
          "internalType": "uint256",
          "name": "",
          "type": "uint256"
        }
      ],
      "stateMutability": "view",
      "type": "function"
    },
    {
      "inputs": [
        {
          "internalType": "uint256",
          "name": "_feeBP",
          "type": "uint256"
        }
      ],
      "name": "setPlatformFee",
      "outputs": [],
      "stateMutability": "nonpayable",
      "type": "function"
    },
    {
      "inputs": [],
      "name": "withdrawPlatformFees",
      "outputs": [],
      "stateMutability": "nonpayable",
      "type": "function"
    },
    {
      "inputs": [
        {
          "internalType": "address",
          "name": "orderTrackingAddress",
          "type": "address"
        }
      ],
      "name": "setOrderTracking",
      "outputs": [],
      "stateMutability": "nonpayable",
      "type": "function"
    },
    {
      "inputs": [
        {
          "internalType": "address",
          "name": "newArbitrator",
          "type": "address"
        }
      ],
      "name": "changeArbitrator",
      "outputs": [],
      "stateMutability": "nonpayable",
      "type": "function"
    },
    {
      "inputs": [
        {
          "internalType": "address",
          "name": "seller",
          "type": "address"
        },
        {
          "internalType": "uint256",
          "name": "amount",
          "type": "uint256"
        }
      ],
      "name": "createOrder",
      "outputs": [
        {
          "internalType": "uint256",
          "name": "",
          "type": "uint256"
        }
      ],
      "stateMutability": "payable",
      "type": "function"
    },
    {
      "inputs": [
        {
          "internalType": "uint256",
          "name": "orderId",
          "type": "uint256"
        },
        {
          "internalType": "string",
          "name": "reason",
          "type": "string"
        }
      ],
      "name": "raiseDispute",
      "outputs": [],
      "stateMutability": "nonpayable",
      "type": "function"
    },
    {
      "inputs": [
        {
          "internalType": "uint256",
          "name": "orderId",
          "type": "uint256"
        },
        {
          "internalType": "enum OnlineStoreDisputes.DisputeOutcome",
          "name": "outcome",
          "type": "uint8"
        }
      ],
      "name": "resolveDispute",
      "outputs": [],
      "stateMutability": "nonpayable",
      "type": "function"
    },
    {
      "inputs": [
        {
          "internalType": "uint256",
          "name": "orderId",
          "type": "uint256"
        }
      ],
      "name": "completeOrder",
      "outputs": [],
      "stateMutability": "nonpayable",
      "type": "function"
    },
    {
      "inputs": [
        {
          "internalType": "uint256",
          "name": "orderId",
          "type": "uint256"
        },
        {
          "internalType": "address",
          "name": "user",
          "type": "address"
        }
      ],
      "name": "canRaiseDispute",
      "outputs": [
        {
          "internalType": "bool",
          "name": "",
          "type": "bool"
        }
      ],
      "stateMutability": "view",
      "type": "function"
    }
  ],
  "bytecode": "0x608060405260c860025534801561001557600080fd5b50336000806101000a81548173ffffffffffffffffffffffffffffffffffffffff021916908373ffffffffffffffffffffffffffffffffffffffff16021790555033600460006101000a81548173ffffffffffffffffffffffffffffffffffffffff021916908373ffffffffffffffffffffffffffffffffffffffff16021790555060016008819055506140d6806100ae6000396000f3fe60806040526004361061011f5760003560e01c80636cc6cde1116100a0578063d0b7830b11610064578063d0b7830b14610420578063e22b81a814610437578063e55e421114610462578063fc548f081461048b578063ff96092a146104b45761011f565b80636cc6cde1146103205780637d19e5961461034b5780638da5cb5b1461038b578063a85c38ef146103b6578063b6adaaff146103f75761011f565b80633ea73c16116100e75780633ea73c161461021f578063564a565d1461025c5780635aef573c1461029c57806362a5dbbc146102c55780636c16b545146102f05761011f565b8063012f52ee146101245780630cbab4f71461016557806312e8e2c3146101a25780632a58b330146101cb5780632c0c8081146101f6575b600080fd5b34801561013057600080fd5b5061014b600480360381019061014691906126c0565b6104df565b60405161015c9594939291906127b4565b60405180910390f35b34801561017157600080fd5b5061018c600480360381019061018791906126c0565b610562565b6040516101999190612807565b60405180910390f35b3480156101ae57600080fd5b506101c960048036038101906101c491906126c0565b610586565b005b3480156101d757600080fd5b506101e06106a4565b6040516101ed9190612807565b60405180910390f35b34801561020257600080fd5b5061021d6004803603810190610218919061284e565b6106aa565b005b34801561022b57600080fd5b506102466004803603810190610241919061287b565b6107eb565b60405161025391906128d6565b60405180910390f35b34801561026857600080fd5b50610283600480360381019061027e91906126c0565b61093e565b60405161029394939291906129c9565b60405180910390f35b3480156102a857600080fd5b506102c360048036038101906102be9190612b4a565b610a30565b005b3480156102d157600080fd5b506102da610da6565b6040516102e79190612807565b60405180910390f35b61030a60048036038101906103059190612ba6565b610dac565b6040516103179190612807565b60405180910390f35b34801561032c57600080fd5b5061033561105e565b6040516103429190612be6565b60405180910390f35b34801561035757600080fd5b50610372600480360381019061036d91906126c0565b611084565b6040516103829493929190612c01565b60405180910390f35b34801561039757600080fd5b506103a0611112565b6040516103ad9190612c67565b60405180910390f35b3480156103c257600080fd5b506103dd60048036038101906103d891906126c0565b611136565b6040516103ee959493929190612cca565b60405180910390f35b34801561040357600080fd5b5061041e600480360381019061041991906126c0565b6111c6565b005b34801561042c57600080fd5b506104356114a1565b005b34801561044357600080fd5b5061044c6116c2565b6040516104599190612d7c565b60405180910390f35b34801561046e57600080fd5b5061048960048036038101906104849190612dbc565b6116e8565b005b34801561049757600080fd5b506104b260048036038101906104ad919061284e565b611a8b565b005b3480156104c057600080fd5b506104c9611bce565b6040516104d69190612807565b60405180910390f35b60016020528060005260406000206000915090508060000160009054906101000a900473ffffffffffffffffffffffffffffffffffffffff16908060010160009054906101000a900473ffffffffffffffffffffffffffffffffffffffff16908060020154908060030154908060040160009054906101000a900460ff16905085565b6000612710600254836105759190612e2b565b61057f9190612e9c565b9050919050565b60008054906101000a900473ffffffffffffffffffffffffffffffffffffffff1673ffffffffffffffffffffffffffffffffffffffff163373ffffffffffffffffffffffffffffffffffffffff1614610614576040517f08c379a000000000000000000000000000000000000000000000000000000000815260040161060b90612f19565b60405180910390fd5b6101f4811115610659576040517f08c379a000000000000000000000000000000000000000000000000000000000815260040161065090612f85565b60405180910390fd5b60006002549050816002819055507fd347e206f25a89b917fc9482f1a2d294d749baa4dc9bde7fb495ee11fe4916438183604051610698929190612fa5565b60405180910390a15050565b60085481565b60008054906101000a900473ffffffffffffffffffffffffffffffffffffffff1673ffffffffffffffffffffffffffffffffffffffff163373ffffffffffffffffffffffffffffffffffffffff1614610738576040517f08c379a000000000000000000000000000000000000000000000000000000000815260040161072f90612f19565b60405180910390fd5b600073ffffffffffffffffffffffffffffffffffffffff168173ffffffffffffffffffffffffffffffffffffffff16036107a7576040517f08c379a000000000000000000000000000000000000000000000000000000000815260040161079e9061301a565b60405180910390fd5b80600560006101000a81548173ffffffffffffffffffffffffffffffffffffffff021916908373ffffffffffffffffffffffffffffffffffffffff16021790555050565b60008060066000858152602001908152602001600020905060008160000160009054906101000a900473ffffffffffffffffffffffffffffffffffffffff1673ffffffffffffffffffffffffffffffffffffffff168473ffffffffffffffffffffffffffffffffffffffff1614806108b257508160010160009054906101000a900473ffffffffffffffffffffffffffffffffffffffff1673ffffffffffffffffffffffffffffffffffffffff168473ffffffffffffffffffffffffffffffffffffffff16145b90506000600160038111156108ca576108c961273d565b5b8360030160009054906101000a900460ff1660038111156108ee576108ed61273d565b5b14905060008015156007600089815260200190815260200160002060000160009054906101000a900460ff1615151490508280156109295750815b80156109325750805b94505050505092915050565b60076020528060005260406000206000915090508060000160009054906101000a900460ff16908060000160019054906101000a900473ffffffffffffffffffffffffffffffffffffffff169080600101805461099a90613069565b80601f01602080910402602001604051908101604052809291908181526020018280546109c690613069565b8015610a135780601f106109e857610100808354040283529160200191610a13565b820191906000526020600020905b8154815290600101906020018083116109f657829003601f168201915b5050505050908060020160009054906101000a900460ff16905084565b600060066000848152602001908152602001600020905060016003811115610a5b57610a5a61273d565b5b8160030160009054906101000a900460ff166003811115610a7f57610a7e61273d565b5b14610abf576040517f08c379a0000000000000000000000000000000000000000000000000000000008152600401610ab6906130e6565b60405180910390fd5b8060000160009054906101000a900473ffffffffffffffffffffffffffffffffffffffff1673ffffffffffffffffffffffffffffffffffffffff163373ffffffffffffffffffffffffffffffffffffffff161480610b6c57508060010160009054906101000a900473ffffffffffffffffffffffffffffffffffffffff1673ffffffffffffffffffffffffffffffffffffffff163373ffffffffffffffffffffffffffffffffffffffff16145b610bab576040517f08c379a0000000000000000000000000000000000000000000000000000000008152600401610ba290613152565b60405180910390fd5b600015156007600085815260200190815260200160002060000160009054906101000a900460ff16151514610c15576040517f08c379a0000000000000000000000000000000000000000000000000000000008152600401610c0c906131be565b60405180910390fd5b60405180608001604052806001151581526020013373ffffffffffffffffffffffffffffffffffffffff16815260200183815260200160006002811115610c5f57610c5e61273d565b5b8152506007600085815260200190815260200160002060008201518160000160006101000a81548160ff02191690831515021790555060208201518160000160016101000a81548173ffffffffffffffffffffffffffffffffffffffff021916908373ffffffffffffffffffffffffffffffffffffffff1602179055506040820151816001019081610cf19190613380565b5060608201518160020160006101000a81548160ff02191690836002811115610d1d57610d1c61273d565b5b021790555090505060028160030160006101000a81548160ff02191690836003811115610d4d57610d4c61273d565b5b02179055503373ffffffffffffffffffffffffffffffffffffffff16837f1b84372106d77c6daea0dda35bbc0229d10a83f58ec89909288492519368234184604051610d999190613452565b60405180910390a3505050565b60035481565b60008073ffffffffffffffffffffffffffffffffffffffff168373ffffffffffffffffffffffffffffffffffffffff1603610e1c576040517f08c379a0000000000000000000000000000000000000000000000000000000008152600401610e13906134c0565b60405180910390fd5b60008211610e5f576040517f08c379a0000000000000000000000000000000000000000000000000000000008152600401610e569061352c565b60405180910390fd5b600060085490506001600854610e75919061354c565b600881905550610e8781338686611bd4565b6040518060a001604052803373ffffffffffffffffffffffffffffffffffffffff1681526020018573ffffffffffffffffffffffffffffffffffffffff16815260200184815260200160016003811115610ee457610ee361273d565b5b8152602001600015158152506006600083815260200190815260200160002060008201518160000160006101000a81548173ffffffffffffffffffffffffffffffffffffffff021916908373ffffffffffffffffffffffffffffffffffffffff16021790555060208201518160010160006101000a81548173ffffffffffffffffffffffffffffffffffffffff021916908373ffffffffffffffffffffffffffffffffffffffff1602179055506040820151816002015560608201518160030160006101000a81548160ff02191690836003811115610fc657610fc561273d565b5b021790555060808201518160030160016101000a81548160ff0219169083151502179055509050508373ffffffffffffffffffffffffffffffffffffffff163373ffffffffffffffffffffffffffffffffffffffff16827ff9e17940e547201709f9aaacdec8ab3566601c60d8f5affb54f74b79b0b50b138660405161104c9190612807565b60405180910390a48091505092915050565b600460009054906101000a900473ffffffffffffffffffffffffffffffffffffffff1681565b60008060008060006001600087815260200190815260200160002090508060000160009054906101000a900473ffffffffffffffffffffffffffffffffffffffff168160010160009054906101000a900473ffffffffffffffffffffffffffffffffffffffff1682600201548360040160009054906101000a900460ff169450945094509450509193509193565b60008054906101000a900473ffffffffffffffffffffffffffffffffffffffff1681565b60066020528060005260406000206000915090508060000160009054906101000a900473ffffffffffffffffffffffffffffffffffffffff16908060010160009054906101000a900473ffffffffffffffffffffffffffffffffffffffff16908060020154908060030160009054906101000a900460ff16908060030160019054906101000a900460ff16905085565b60006006600083815260200190815260200160002090508060000160009054906101000a900473ffffffffffffffffffffffffffffffffffffffff1673ffffffffffffffffffffffffffffffffffffffff163373ffffffffffffffffffffffffffffffffffffffff16148061128a57508060010160009054906101000a900473ffffffffffffffffffffffffffffffffffffffff1673ffffffffffffffffffffffffffffffffffffffff163373ffffffffffffffffffffffffffffffffffffffff16145b8061129b575061129a8233611f1d565b5b6112da576040517f08c379a00000000000000000000000000000000000000000000000000000000081526004016112d1906135f2565b60405180910390fd5b600160038111156112ee576112ed61273d565b5b8160030160009054906101000a900460ff1660038111156113125761131161273d565b5b14611352576040517f08c379a00000000000000000000000000000000000000000000000000000000081526004016113499061365e565b60405180910390fd5b600015156007600084815260200190815260200160002060000160009054906101000a900460ff161515146113bc576040517f08c379a00000000000000000000000000000000000000000000000000000000081526004016113b3906131be565b60405180910390fd5b600015158160030160019054906101000a900460ff16151514611414576040517f08c379a000000000000000000000000000000000000000000000000000000000815260040161140b906136ca565b60405180910390fd5b60038160030160006101000a81548160ff0219169083600381111561143c5761143b61273d565b5b021790555060018160030160016101000a81548160ff02191690831515021790555061146782612093565b61147082612228565b817f02a7d4d9472af7118644884b9a0ee443540c0027e938dd0aa35be8ecbe946c0a60405160405180910390a25050565b60008054906101000a900473ffffffffffffffffffffffffffffffffffffffff1673ffffffffffffffffffffffffffffffffffffffff163373ffffffffffffffffffffffffffffffffffffffff161461152f576040517f08c379a000000000000000000000000000000000000000000000000000000000815260040161152690612f19565b60405180910390fd5b600060035411611574576040517f08c379a000000000000000000000000000000000000000000000000000000000815260040161156b90613736565b60405180910390fd5b60006003549050600060038190555060008060009054906101000a900473ffffffffffffffffffffffffffffffffffffffff1673ffffffffffffffffffffffffffffffffffffffff16826040516115ca90613787565b60006040518083038185875af1925050503d8060008114611607576040519150601f19603f3d011682016040523d82523d6000602084013e61160c565b606091505b5050905080611650576040517f08c379a0000000000000000000000000000000000000000000000000000000008152600401611647906137e8565b60405180910390fd5b60008054906101000a900473ffffffffffffffffffffffffffffffffffffffff1673ffffffffffffffffffffffffffffffffffffffff167fccd267390035d6e18d565c4ae4c0583fe1a7eab17993787dbb83a61c03c6c19a836040516116b69190612807565b60405180910390a25050565b600560009054906101000a900473ffffffffffffffffffffffffffffffffffffffff1681565b600460009054906101000a900473ffffffffffffffffffffffffffffffffffffffff1673ffffffffffffffffffffffffffffffffffffffff163373ffffffffffffffffffffffffffffffffffffffff1614611778576040517f08c379a000000000000000000000000000000000000000000000000000000000815260040161176f90613854565b60405180910390fd5b60006006600084815260200190815260200160002090506000600760008581526020019081526020016000209050600260038111156117ba576117b961273d565b5b8260030160009054906101000a900460ff1660038111156117de576117dd61273d565b5b1461181e576040517f08c379a0000000000000000000000000000000000000000000000000000000008152600401611815906138c0565b60405180910390fd5b600115158160000160009054906101000a900460ff16151514611876576040517f08c379a000000000000000000000000000000000000000000000000000000000815260040161186d9061392c565b60405180910390fd5b600015158260030160019054906101000a900460ff161515146118ce576040517f08c379a00000000000000000000000000000000000000000000000000000000081526004016118c5906136ca565b60405180910390fd5b600160028111156118e2576118e161273d565b5b8360028111156118f5576118f461273d565b5b1480611924575060028081111561190f5761190e61273d565b5b8360028111156119225761192161273d565b5b145b611963576040517f08c379a000000000000000000000000000000000000000000000000000000000815260040161195a90613998565b60405180910390fd5b828160020160006101000a81548160ff0219169083600281111561198a5761198961273d565b5b021790555060038260030160006101000a81548160ff021916908360038111156119b7576119b661273d565b5b021790555060018260030160016101000a81548160ff021916908315150217905550600160028111156119ed576119ec61273d565b5b836002811115611a00576119ff61273d565b5b03611a0f57611a0e846124e1565b5b600280811115611a2257611a2161273d565b5b836002811115611a3557611a3461273d565b5b03611a4d57611a4384612093565b611a4c84612228565b5b837f2ffcfee146bc0d5ff304c6b65111a0d485af9456dc64eee7d66ebdcc90b223ea84604051611a7d91906139b8565b60405180910390a250505050565b600460009054906101000a900473ffffffffffffffffffffffffffffffffffffffff1673ffffffffffffffffffffffffffffffffffffffff163373ffffffffffffffffffffffffffffffffffffffff1614611b1b576040517f08c379a0000000000000000000000000000000000000000000000000000000008152600401611b1290613a45565b60405180910390fd5b600073ffffffffffffffffffffffffffffffffffffffff168173ffffffffffffffffffffffffffffffffffffffff1603611b8a576040517f08c379a0000000000000000000000000000000000000000000000000000000008152600401611b8190613ab1565b60405180910390fd5b80600460006101000a81548173ffffffffffffffffffffffffffffffffffffffff021916908373ffffffffffffffffffffffffffffffffffffffff16021790555050565b60025481565b600073ffffffffffffffffffffffffffffffffffffffff168373ffffffffffffffffffffffffffffffffffffffff1603611c43576040517f08c379a0000000000000000000000000000000000000000000000000000000008152600401611c3a90613b1d565b60405180910390fd5b600073ffffffffffffffffffffffffffffffffffffffff168273ffffffffffffffffffffffffffffffffffffffff1603611cb2576040517f08c379a0000000000000000000000000000000000000000000000000000000008152600401611ca990613b89565b60405180910390fd5b60008111611cf5576040517f08c379a0000000000000000000000000000000000000000000000000000000008152600401611cec90613bf5565b60405180910390fd5b803414611d37576040517f08c379a0000000000000000000000000000000000000000000000000000000008152600401611d2e90613c61565b60405180910390fd5b600060016000868152602001908152602001600020905060006003811115611d6257611d6161273d565b5b8160040160009054906101000a900460ff166003811115611d8657611d8561273d565b5b14611dc6576040517f08c379a0000000000000000000000000000000000000000000000000000000008152600401611dbd90613ccd565b60405180910390fd5b6040518060a001604052808573ffffffffffffffffffffffffffffffffffffffff1681526020018473ffffffffffffffffffffffffffffffffffffffff168152602001838152602001600254815260200160016003811115611e2b57611e2a61273d565b5b8152506001600087815260200190815260200160002060008201518160000160006101000a81548173ffffffffffffffffffffffffffffffffffffffff021916908373ffffffffffffffffffffffffffffffffffffffff16021790555060208201518160010160006101000a81548173ffffffffffffffffffffffffffffffffffffffff021916908373ffffffffffffffffffffffffffffffffffffffff160217905550604082015181600201556060820151816003015560808201518160040160006101000a81548160ff02191690836003811115611f0e57611f0d61273d565b5b02179055509050505050505050565b60008073ffffffffffffffffffffffffffffffffffffffff16600560009054906101000a900473ffffffffffffffffffffffffffffffffffffffff1673ffffffffffffffffffffffffffffffffffffffff1603611f7d576000905061208d565b6000600560009054906101000a900473ffffffffffffffffffffffffffffffffffffffff1673ffffffffffffffffffffffffffffffffffffffff1663d09ef241856040518263ffffffff1660e01b8152600401611fda9190612807565b60a060405180830381865afa158015611ff7573d6000803e3d6000fd5b505050506040513d601f19601f8201168201806040525081019061201b9190613d3c565b505092505050600073ffffffffffffffffffffffffffffffffffffffff168173ffffffffffffffffffffffffffffffffffffffff161415801561208957508073ffffffffffffffffffffffffffffffffffffffff168373ffffffffffffffffffffffffffffffffffffffff16145b9150505b92915050565b600073ffffffffffffffffffffffffffffffffffffffff16600560009054906101000a900473ffffffffffffffffffffffffffffffffffffffff1673ffffffffffffffffffffffffffffffffffffffff1603612124576040517f08c379a000000000000000000000000000000000000000000000000000000000815260040161211b90613e03565b60405180910390fd5b6003808111156121375761213661273d565b5b600560009054906101000a900473ffffffffffffffffffffffffffffffffffffffff1673ffffffffffffffffffffffffffffffffffffffff166345fa8aae836040518263ffffffff1660e01b81526004016121929190612807565b602060405180830381865afa1580156121af573d6000803e3d6000fd5b505050506040513d601f19601f820116820180604052508101906121d39190613e23565b60038111156121e5576121e461273d565b5b14612225576040517f08c379a000000000000000000000000000000000000000000000000000000000815260040161221c90613e9c565b60405180910390fd5b50565b6000600160008381526020019081526020016000209050600160038111156122535761225261273d565b5b8160040160009054906101000a900460ff1660038111156122775761227661273d565b5b146122b7576040517f08c379a00000000000000000000000000000000000000000000000000000000081526004016122ae90613f08565b60405180910390fd5b6000612710826003015483600201546122d09190612e2b565b6122da9190612e9c565b90508082600201541015612323576040517f08c379a000000000000000000000000000000000000000000000000000000000815260040161231a90613f74565b60405180910390fd5b60008183600201546123359190613f94565b905060028360040160006101000a81548160ff0219169083600381111561235f5761235e61273d565b5b0217905550600082111561240057816003600082825461237f919061354c565b925050819055508260010160009054906101000a900473ffffffffffffffffffffffffffffffffffffffff1673ffffffffffffffffffffffffffffffffffffffff16847fe1d1943d19c4af2a9ffc56164a2ef2dfb33fffe65fbdb87f91aa85593a4ad5888486600201546040516123f7929190612fa5565b60405180910390a35b60008111156124db5760008360010160009054906101000a900473ffffffffffffffffffffffffffffffffffffffff1673ffffffffffffffffffffffffffffffffffffffff168260405161245390613787565b60006040518083038185875af1925050503d8060008114612490576040519150601f19603f3d011682016040523d82523d6000602084013e612495565b606091505b50509050806124d9576040517f08c379a00000000000000000000000000000000000000000000000000000000081526004016124d090614014565b60405180910390fd5b505b50505050565b60006001600083815260200190815260200160002090506001600381111561250c5761250b61273d565b5b8160040160009054906101000a900460ff1660038111156125305761252f61273d565b5b14612570576040517f08c379a000000000000000000000000000000000000000000000000000000000815260040161256790613f08565b60405180910390fd5b60038160040160006101000a81548160ff021916908360038111156125985761259761273d565b5b021790555060008160000160009054906101000a900473ffffffffffffffffffffffffffffffffffffffff1673ffffffffffffffffffffffffffffffffffffffff1682600201546040516125eb90613787565b60006040518083038185875af1925050503d8060008114612628576040519150601f19603f3d011682016040523d82523d6000602084013e61262d565b606091505b5050905080612671576040517f08c379a000000000000000000000000000000000000000000000000000000000815260040161266890614080565b60405180910390fd5b505050565b6000604051905090565b600080fd5b600080fd5b6000819050919050565b61269d8161268a565b81146126a857600080fd5b50565b6000813590506126ba81612694565b92915050565b6000602082840312156126d6576126d5612680565b5b60006126e4848285016126ab565b91505092915050565b600073ffffffffffffffffffffffffffffffffffffffff82169050919050565b6000612718826126ed565b9050919050565b6127288161270d565b82525050565b6127378161268a565b82525050565b7f4e487b7100000000000000000000000000000000000000000000000000000000600052602160045260246000fd5b6004811061277d5761277c61273d565b5b50565b600081905061278e8261276c565b919050565b600061279e82612780565b9050919050565b6127ae81612793565b82525050565b600060a0820190506127c9600083018861271f565b6127d6602083018761271f565b6127e3604083018661272e565b6127f0606083018561272e565b6127fd60808301846127a5565b9695505050505050565b600060208201905061281c600083018461272e565b92915050565b61282b8161270d565b811461283657600080fd5b50565b60008135905061284881612822565b92915050565b60006020828403121561286457612863612680565b5b600061287284828501612839565b91505092915050565b6000806040838503121561289257612891612680565b5b60006128a0858286016126ab565b92505060206128b185828601612839565b9150509250929050565b60008115159050919050565b6128d0816128bb565b82525050565b60006020820190506128eb60008301846128c7565b92915050565b600081519050919050565b600082825260208201905092915050565b60005b8381101561292b578082015181840152602081019050612910565b60008484015250505050565b6000601f19601f8301169050919050565b6000612953826128f1565b61295d81856128fc565b935061296d81856020860161290d565b61297681612937565b840191505092915050565b600381106129925761299161273d565b5b50565b60008190506129a382612981565b919050565b60006129b382612995565b9050919050565b6129c3816129a8565b82525050565b60006080820190506129de60008301876128c7565b6129eb602083018661271f565b81810360408301526129fd8185612948565b9050612a0c60608301846129ba565b95945050505050565b600080fd5b600080fd5b7f4e487b7100000000000000000000000000000000000000000000000000000000600052604160045260246000fd5b612a5782612937565b810181811067ffffffffffffffff82111715612a7657612a75612a1f565b5b80604052505050565b6000612a89612676565b9050612a958282612a4e565b919050565b600067ffffffffffffffff821115612ab557612ab4612a1f565b5b612abe82612937565b9050602081019050919050565b82818337600083830152505050565b6000612aed612ae884612a9a565b612a7f565b905082815260208101848484011115612b0957612b08612a1a565b5b612b14848285612acb565b509392505050565b600082601f830112612b3157612b30612a15565b5b8135612b41848260208601612ada565b91505092915050565b60008060408385031215612b6157612b60612680565b5b6000612b6f858286016126ab565b925050602083013567ffffffffffffffff811115612b9057612b8f612685565b5b612b9c85828601612b1c565b9150509250929050565b60008060408385031215612bbd57612bbc612680565b5b6000612bcb85828601612839565b9250506020612bdc858286016126ab565b9150509250929050565b6000602082019050612bfb600083018461271f565b92915050565b6000608082019050612c16600083018761271f565b612c23602083018661271f565b612c30604083018561272e565b612c3d60608301846127a5565b95945050505050565b6000612c51826126ed565b9050919050565b612c6181612c46565b82525050565b6000602082019050612c7c6000830184612c58565b92915050565b60048110612c9357612c9261273d565b5b50565b6000819050612ca482612c82565b919050565b6000612cb482612c96565b9050919050565b612cc481612ca9565b82525050565b600060a082019050612cdf600083018861271f565b612cec602083018761271f565b612cf9604083018661272e565b612d066060830185612cbb565b612d1360808301846128c7565b9695505050505050565b6000819050919050565b6000612d42612d3d612d38846126ed565b612d1d565b6126ed565b9050919050565b6000612d5482612d27565b9050919050565b6000612d6682612d49565b9050919050565b612d7681612d5b565b82525050565b6000602082019050612d916000830184612d6d565b92915050565b60038110612da457600080fd5b50565b600081359050612db681612d97565b92915050565b60008060408385031215612dd357612dd2612680565b5b6000612de1858286016126ab565b9250506020612df285828601612da7565b9150509250929050565b7f4e487b7100000000000000000000000000000000000000000000000000000000600052601160045260246000fd5b6000612e368261268a565b9150612e418361268a565b9250828202612e4f8161268a565b91508282048414831517612e6657612e65612dfc565b5b5092915050565b7f4e487b7100000000000000000000000000000000000000000000000000000000600052601260045260246000fd5b6000612ea78261268a565b9150612eb28361268a565b925082612ec257612ec1612e6d565b5b828204905092915050565b7f4e6f7420706c6174666f726d206f776e65720000000000000000000000000000600082015250565b6000612f036012836128fc565b9150612f0e82612ecd565b602082019050919050565b60006020820190508181036000830152612f3281612ef6565b9050919050565b7f46656520746f6f20686967680000000000000000000000000000000000000000600082015250565b6000612f6f600c836128fc565b9150612f7a82612f39565b602082019050919050565b60006020820190508181036000830152612f9e81612f62565b9050919050565b6000604082019050612fba600083018561272e565b612fc7602083018461272e565b9392505050565b7f496e76616c6964206f7264657220747261636b696e6720616464726573730000600082015250565b6000613004601e836128fc565b915061300f82612fce565b602082019050919050565b6000602082019050818103600083015261303381612ff7565b9050919050565b7f4e487b7100000000000000000000000000000000000000000000000000000000600052602260045260246000fd5b6000600282049050600182168061308157607f821691505b6020821081036130945761309361303a565b5b50919050565b7f4f72646572206e6f7420696e20612064697370757461626c6520737461746500600082015250565b60006130d0601f836128fc565b91506130db8261309a565b602082019050919050565b600060208201905081810360008301526130ff816130c3565b9050919050565b7f4e6f74206275796572206f722073656c6c657200000000000000000000000000600082015250565b600061313c6013836128fc565b915061314782613106565b602082019050919050565b6000602082019050818103600083015261316b8161312f565b9050919050565b7f4469737075746520616c72656164792065786973747300000000000000000000600082015250565b60006131a86016836128fc565b91506131b382613172565b602082019050919050565b600060208201905081810360008301526131d78161319b565b9050919050565b60008190508160005260206000209050919050565b60006020601f8301049050919050565b600082821b905092915050565b6000600883026132407fffffffffffffffffffffffffffffffffffffffffffffffffffffffffffffffff82613203565b61324a8683613203565b95508019841693508086168417925050509392505050565b600061327d6132786132738461268a565b612d1d565b61268a565b9050919050565b6000819050919050565b61329783613262565b6132ab6132a382613284565b848454613210565b825550505050565b600090565b6132c06132b3565b6132cb81848461328e565b505050565b5b818110156132ef576132e46000826132b8565b6001810190506132d1565b5050565b601f82111561333457613305816131de565b61330e846131f3565b8101602085101561331d578190505b613331613329856131f3565b8301826132d0565b50505b505050565b600082821c905092915050565b600061335760001984600802613339565b1980831691505092915050565b60006133708383613346565b9150826002028217905092915050565b613389826128f1565b67ffffffffffffffff8111156133a2576133a1612a1f565b5b6133ac8254613069565b6133b78282856132f3565b600060209050601f8311600181146133ea57600084156133d8578287015190505b6133e28582613364565b86555061344a565b601f1984166133f8866131de565b60005b82811015613420578489015182556001820191506020850194506020810190506133fb565b8683101561343d5784890151613439601f891682613346565b8355505b6001600288020188555050505b505050505050565b6000602082019050818103600083015261346c8184612948565b905092915050565b7f496e76616c69642073656c6c6572000000000000000000000000000000000000600082015250565b60006134aa600e836128fc565b91506134b582613474565b602082019050919050565b600060208201905081810360008301526134d98161349d565b9050919050565b7f416d6f756e74206d757374206265203e20300000000000000000000000000000600082015250565b60006135166012836128fc565b9150613521826134e0565b602082019050919050565b6000602082019050818103600083015261354581613509565b9050919050565b60006135578261268a565b91506135628361268a565b925082820190508082111561357a57613579612dfc565b5b92915050565b7f4f6e6c792062757965722f73656c6c65722f636f75726965722063616e20636f60008201527f6d706c6574650000000000000000000000000000000000000000000000000000602082015250565b60006135dc6026836128fc565b91506135e782613580565b604082019050919050565b6000602082019050818103600083015261360b816135cf565b9050919050565b7f4f72646572206e6f7420696e2050616964207374617465000000000000000000600082015250565b60006136486017836128fc565b915061365382613612565b602082019050919050565b600060208201905081810360008301526136778161363b565b9050919050565b7f5061796f757420616c726561647920646f6e6500000000000000000000000000600082015250565b60006136b46013836128fc565b91506136bf8261367e565b602082019050919050565b600060208201905081810360008301526136e3816136a7565b9050919050565b7f4e6f20706c6174666f726d206665657300000000000000000000000000000000600082015250565b60006137206010836128fc565b915061372b826136ea565b602082019050919050565b6000602082019050818103600083015261374f81613713565b9050919050565b600081905092915050565b50565b6000613771600083613756565b915061377c82613761565b600082019050919050565b600061379282613764565b9150819050919050565b7f506c6174666f726d207769746864726177616c206661696c6564000000000000600082015250565b60006137d2601a836128fc565b91506137dd8261379c565b602082019050919050565b60006020820190508181036000830152613801816137c5565b9050919050565b7f4f6e6c792061726269747261746f722063616e207265736f6c76650000000000600082015250565b600061383e601b836128fc565b915061384982613808565b602082019050919050565b6000602082019050818103600083015261386d81613831565b9050919050565b7f4f72646572206e6f742064697370757465640000000000000000000000000000600082015250565b60006138aa6012836128fc565b91506138b582613874565b602082019050919050565b600060208201905081810360008301526138d98161389d565b9050919050565b7f4e6f206469737075746520666f756e6400000000000000000000000000000000600082015250565b60006139166010836128fc565b9150613921826138e0565b602082019050919050565b6000602082019050818103600083015261394581613909565b9050919050565b7f496e76616c6964206f7574636f6d650000000000000000000000000000000000600082015250565b6000613982600f836128fc565b915061398d8261394c565b602082019050919050565b600060208201905081810360008301526139b181613975565b9050919050565b60006020820190506139cd60008301846129ba565b92915050565b7f4f6e6c792061726269747261746f722063616e206368616e676520617262697460008201527f7261746f72000000000000000000000000000000000000000000000000000000602082015250565b6000613a2f6025836128fc565b9150613a3a826139d3565b604082019050919050565b60006020820190508181036000830152613a5e81613a22565b9050919050565b7f496e76616c69642061726269747261746f720000000000000000000000000000600082015250565b6000613a9b6012836128fc565b9150613aa682613a65565b602082019050919050565b60006020820190508181036000830152613aca81613a8e565b9050919050565b7f496e76616c696420627579657220616464726573730000000000000000000000600082015250565b6000613b076015836128fc565b9150613b1282613ad1565b602082019050919050565b60006020820190508181036000830152613b3681613afa565b9050919050565b7f496e76616c69642073656c6c6572206164647265737300000000000000000000600082015250565b6000613b736016836128fc565b9150613b7e82613b3d565b602082019050919050565b60006020820190508181036000830152613ba281613b66565b9050919050565b7f416d6f756e74206d7573742062652067726561746572207468616e2030000000600082015250565b6000613bdf601d836128fc565b9150613bea82613ba9565b602082019050919050565b60006020820190508181036000830152613c0e81613bd2565b9050919050565b7f496e636f72726563742045544820616d6f756e74000000000000000000000000600082015250565b6000613c4b6014836128fc565b9150613c5682613c15565b602082019050919050565b60006020820190508181036000830152613c7a81613c3e565b9050919050565b7f457363726f7720616c7265616479206578697374730000000000000000000000600082015250565b6000613cb76015836128fc565b9150613cc282613c81565b602082019050919050565b60006020820190508181036000830152613ce681613caa565b9050919050565b600081519050613cfc81612822565b92915050565b60048110613d0f57600080fd5b50565b600081519050613d2181613d02565b92915050565b600081519050613d3681612694565b92915050565b600080600080600060a08688031215613d5857613d57612680565b5b6000613d6688828901613ced565b9550506020613d7788828901613ced565b9450506040613d8888828901613ced565b9350506060613d9988828901613d12565b9250506080613daa88828901613d27565b9150509295509295909350565b7f4f7264657220747261636b696e67206e6f742073657400000000000000000000600082015250565b6000613ded6016836128fc565b9150613df882613db7565b602082019050919050565b60006020820190508181036000830152613e1c81613de0565b9050919050565b600060208284031215613e3957613e38612680565b5b6000613e4784828501613d12565b91505092915050565b7f4f72646572206e6f742064656c69766572656400000000000000000000000000600082015250565b6000613e866013836128fc565b9150613e9182613e50565b602082019050919050565b60006020820190508181036000830152613eb581613e79565b9050919050565b7f457363726f77206e6f74206c6f636b6564000000000000000000000000000000600082015250565b6000613ef26011836128fc565b9150613efd82613ebc565b602082019050919050565b60006020820190508181036000830152613f2181613ee5565b9050919050565b7f466565206578636565647320616d6f756e740000000000000000000000000000600082015250565b6000613f5e6012836128fc565b9150613f6982613f28565b602082019050919050565b60006020820190508181036000830152613f8d81613f51565b9050919050565b6000613f9f8261268a565b9150613faa8361268a565b9250828203905081811115613fc257613fc1612dfc565b5b92915050565b7f4554482072656c65617365206661696c65640000000000000000000000000000600082015250565b6000613ffe6012836128fc565b915061400982613fc8565b602082019050919050565b6000602082019050818103600083015261402d81613ff1565b9050919050565b7f45544820726566756e64206661696c6564000000000000000000000000000000600082015250565b600061406a6011836128fc565b915061407582614034565b602082019050919050565b600060208201905081810360008301526140998161405d565b905091905056fea2646970667358221220462d5581d27d87ee3b54b0e19a21ae28afe087404669fb8434af1db2f305b02164736f6c63430008130033",
  "immutableReferences": {},
  "source": "/*\nI declare that this code was written by me.\nI will not copy or allow others to copy my code.\nI understand that copying code is considered as plagiarism.\n\nStudent Name: Saw Kaung Khant Thiha\nStudent ID: 24025215\nClass: C372-003\nDate created: 16/01/2026\n*/\n\n// SPDX-License-Identifier: MIT\npragma solidity ^0.8.19;\n\nimport \"./Payment_escrow.sol\";\n\ninterface IOrderTracking {\n    enum Status {\n        None,\n        Created,\n        Shipped,\n        Delivered\n    }\n\n    function getOrderStatus(uint256 orderId) external view returns (Status);\n    function getOrder(uint256 orderId) external view returns (\n        address buyer,\n        address seller,\n        address courier,\n        Status status,\n        uint256 createdAt\n    );\n}\n\ncontract OnlineStoreDisputes is EscrowPayment {\n\n    // Who can resolve disputes\n    address public arbitrator;\n    IOrderTracking public orderTracking;\n\n    constructor() EscrowPayment() {\n        arbitrator = msg.sender;\n        nextOrderId = 1;\n    }\n\n    function setOrderTracking(address orderTrackingAddress) external onlyOwner {\n        require(orderTrackingAddress != address(0), \"Invalid order tracking address\");\n        orderTracking = IOrderTracking(orderTrackingAddress);\n    }\n\n    function changeArbitrator(address newArbitrator) public {\n        require(msg.sender == arbitrator, \"Only arbitrator can change arbitrator\");\n        require(newArbitrator != address(0), \"Invalid arbitrator\");\n        arbitrator = newArbitrator;\n    }\n\n    enum OrderStatus {\n        None,\n        Paid,\n        Disputed,\n        Resolved\n    }\n\n    enum DisputeOutcome {\n        None,\n        RefundBuyer,\n        ReleaseToSeller\n    }\n\n    struct Order {\n        address buyer;\n        address seller;\n        uint256 amount;     // ETH amount (in wei)\n        OrderStatus status;\n        bool payoutDone;\n    }\n\n    struct Dispute {\n        bool exists;\n        address openedBy;\n        string reason;\n        DisputeOutcome outcome;\n    }\n\n    mapping(uint256 => Order) public orders;\n    mapping(uint256 => Dispute) public disputes;\n    uint256 public nextOrderId;\n\n    event OrderCreated(uint256 indexed orderId, address indexed buyer, address indexed seller, uint256 amount);\n    event DisputeRaised(uint256 indexed orderId, address indexed openedBy, string reason);\n    event DisputeResolved(uint256 indexed orderId, DisputeOutcome outcome);\n    event OrderCompleted(uint256 indexed orderId);\n\n    /*\n      Buyer creates order AND locks ETH into escrow in one step.\n\n      Important:\n      - Buyer must send ETH equal to `amount` as msg.value.\n    */\n    function createOrder(address seller, uint256 amount) public payable returns (uint256) {\n        require(seller != address(0), \"Invalid seller\");\n        require(amount > 0, \"Amount must be > 0\");\n\n        uint256 orderId = nextOrderId;\n        nextOrderId = nextOrderId + 1;\n\n        _lockEscrow(orderId, msg.sender, seller, amount);\n\n        orders[orderId] = Order(\n            msg.sender,\n            seller,\n            amount,\n            OrderStatus.Paid,\n            false\n        );\n\n        emit OrderCreated(orderId, msg.sender, seller, amount);\n        return orderId;\n    }\n\n    // Buyer OR seller can open a dispute\n    function raiseDispute(uint256 orderId, string memory reason) public {\n        Order storage order = orders[orderId];\n\n        require(order.status == OrderStatus.Paid, \"Order not in a disputable state\");\n        require(msg.sender == order.buyer || msg.sender == order.seller, \"Not buyer or seller\");\n        require(disputes[orderId].exists == false, \"Dispute already exists\");\n\n        disputes[orderId] = Dispute(\n            true,\n            msg.sender,\n            reason,\n            DisputeOutcome.None\n        );\n\n        order.status = OrderStatus.Disputed;\n\n        emit DisputeRaised(orderId, msg.sender, reason);\n    }\n\n    /*\n      Arbitrator resolves dispute.\n\n      outcome values:\n      - DisputeOutcome.RefundBuyer (1)\n      - DisputeOutcome.ReleaseToSeller (2)\n    */\n    function resolveDispute(uint256 orderId, DisputeOutcome outcome) public {\n        require(msg.sender == arbitrator, \"Only arbitrator can resolve\");\n\n        Order storage order = orders[orderId];\n        Dispute storage dispute = disputes[orderId];\n\n        require(order.status == OrderStatus.Disputed, \"Order not disputed\");\n        require(dispute.exists == true, \"No dispute found\");\n        require(order.payoutDone == false, \"Payout already done\");\n\n        // Only allow 2 valid outcomes (no if/else needed)\n        require(outcome == DisputeOutcome.RefundBuyer || outcome == DisputeOutcome.ReleaseToSeller, \"Invalid outcome\");\n\n        dispute.outcome = outcome;\n        order.status = OrderStatus.Resolved;\n        order.payoutDone = true;\n\n        if (outcome == DisputeOutcome.RefundBuyer) {\n            // Dispute resolved in favor of buyer: no platform fee on refund.\n            _refundEscrow(orderId);\n        }\n\n        if (outcome == DisputeOutcome.ReleaseToSeller) {\n            _requireDelivered(orderId);\n            _releaseEscrow(orderId);\n        }\n\n        emit DisputeResolved(orderId, outcome);\n    }\n\n    // Buyer confirms successful delivery; releases escrow to seller.\n    function completeOrder(uint256 orderId) public {\n        Order storage order = orders[orderId];\n\n        require(\n            msg.sender == order.buyer || msg.sender == order.seller || _isCourier(orderId, msg.sender),\n            \"Only buyer/seller/courier can complete\"\n        );\n        require(order.status == OrderStatus.Paid, \"Order not in Paid state\");\n        require(disputes[orderId].exists == false, \"Dispute already exists\");\n        require(order.payoutDone == false, \"Payout already done\");\n\n        order.status = OrderStatus.Resolved;\n        order.payoutDone = true;\n\n        _requireDelivered(orderId);\n        _releaseEscrow(orderId);\n        emit OrderCompleted(orderId);\n    }\n\n    function canRaiseDispute(uint256 orderId, address user) public view returns (bool) {\n        Order storage order = orders[orderId];\n\n        bool isParty = (user == order.buyer) || (user == order.seller);\n        bool isPaid = (order.status == OrderStatus.Paid);\n        bool noDisputeYet = (disputes[orderId].exists == false);\n\n        return isParty && isPaid && noDisputeYet;\n    }\n\n    function _requireDelivered(uint256 orderId) internal view {\n        require(address(orderTracking) != address(0), \"Order tracking not set\");\n        require(orderTracking.getOrderStatus(orderId) == IOrderTracking.Status.Delivered, \"Order not delivered\");\n    }\n\n    function _isCourier(uint256 orderId, address user) internal view returns (bool) {\n        if (address(orderTracking) == address(0)) {\n            return false;\n        }\n\n        (, , address courier, ,) = orderTracking.getOrder(orderId);\n        return courier != address(0) && user == courier;\n    }\n}\n",
  "sourcePath": "C:\\republic polytechnic\\A2025 semester 2\\C373 Distributed Ledger Technology Solutioning\\FA\\Testing\\AnythingSGProject-main\\contracts\\DisputeHandling.sol",
  "compiler": {
    "name": "solc",
    "version": "0.8.19+commit.7dd6d404.Emscripten.clang"
  },
  "schemaVersion": "3.4.16",
  "updatedAt": "2026-01-29T21:01:48.921Z",
  "devdoc": {
    "kind": "dev",
    "methods": {},
    "version": 1
  },
  "userdoc": {
    "kind": "user",
    "methods": {},
    "version": 1
  }
}