{
  "contractName": "OrderTracking",
  "abi": [
    {
      "anonymous": false,
      "inputs": [
        {
          "indexed": true,
          "internalType": "uint256",
          "name": "orderId",
          "type": "uint256"
        },
        {
          "indexed": true,
          "internalType": "address",
          "name": "courier",
          "type": "address"
        }
      ],
      "name": "CourierSet",
      "type": "event"
    },
    {
      "anonymous": false,
      "inputs": [
        {
          "indexed": true,
          "internalType": "uint256",
          "name": "orderId",
          "type": "uint256"
        },
        {
          "indexed": true,
          "internalType": "address",
          "name": "actor",
          "type": "address"
        }
      ],
      "name": "Delivered",
      "type": "event"
    },
    {
      "anonymous": false,
      "inputs": [
        {
          "indexed": true,
          "internalType": "uint256",
          "name": "orderId",
          "type": "uint256"
        },
        {
          "indexed": true,
          "internalType": "address",
          "name": "buyer",
          "type": "address"
        },
        {
          "indexed": true,
          "internalType": "address",
          "name": "seller",
          "type": "address"
        }
      ],
      "name": "OrderCreated",
      "type": "event"
    },
    {
      "anonymous": false,
      "inputs": [
        {
          "indexed": true,
          "internalType": "uint256",
          "name": "orderId",
          "type": "uint256"
        },
        {
          "indexed": true,
          "internalType": "address",
          "name": "actor",
          "type": "address"
        }
      ],
      "name": "Shipped",
      "type": "event"
    },
    {
      "inputs": [
        {
          "internalType": "uint256",
          "name": "orderId",
          "type": "uint256"
        },
        {
          "internalType": "address",
          "name": "buyer",
          "type": "address"
        },
        {
          "internalType": "address",
          "name": "seller",
          "type": "address"
        }
      ],
      "name": "createOrder",
      "outputs": [],
      "stateMutability": "nonpayable",
      "type": "function"
    },
    {
      "inputs": [
        {
          "internalType": "uint256",
          "name": "orderId",
          "type": "uint256"
        },
        {
          "internalType": "address",
          "name": "courier",
          "type": "address"
        }
      ],
      "name": "setCourier",
      "outputs": [],
      "stateMutability": "nonpayable",
      "type": "function"
    },
    {
      "inputs": [
        {
          "internalType": "uint256",
          "name": "orderId",
          "type": "uint256"
        }
      ],
      "name": "confirmShipped",
      "outputs": [],
      "stateMutability": "nonpayable",
      "type": "function"
    },
    {
      "inputs": [
        {
          "internalType": "uint256",
          "name": "orderId",
          "type": "uint256"
        }
      ],
      "name": "confirmDelivery",
      "outputs": [],
      "stateMutability": "nonpayable",
      "type": "function"
    },
    {
      "inputs": [
        {
          "internalType": "uint256",
          "name": "orderId",
          "type": "uint256"
        }
      ],
      "name": "getOrderStatus",
      "outputs": [
        {
          "internalType": "enum OrderTracking.Status",
          "name": "",
          "type": "uint8"
        }
      ],
      "stateMutability": "view",
      "type": "function",
      "constant": true
    },
    {
      "inputs": [
        {
          "internalType": "uint256",
          "name": "orderId",
          "type": "uint256"
        }
      ],
      "name": "getOrder",
      "outputs": [
        {
          "internalType": "address",
          "name": "buyer",
          "type": "address"
        },
        {
          "internalType": "address",
          "name": "seller",
          "type": "address"
        },
        {
          "internalType": "address",
          "name": "courier",
          "type": "address"
        },
        {
          "internalType": "enum OrderTracking.Status",
          "name": "status",
          "type": "uint8"
        },
        {
          "internalType": "uint256",
          "name": "createdAt",
          "type": "uint256"
        }
      ],
      "stateMutability": "view",
      "type": "function",
      "constant": true
    }
  ],
  "bytecode": "0x608060405234801561001057600080fd5b5061178f806100206000396000f3fe608060405234801561001057600080fd5b50600436106100625760003560e01c8063232667a31461006757806345fa8aae146100835780634be1443b146100b3578063bf3cfc39146100cf578063d09ef241146100eb578063fd84cb971461011f575b600080fd5b610081600480360381019061007c9190611225565b61013b565b005b61009d60048036038101906100989190611265565b6102ec565b6040516100aa9190611309565b60405180910390f35b6100cd60048036038101906100c89190611265565b6103be565b005b6100e960048036038101906100e49190611324565b6107bb565b005b61010560048036038101906101009190611265565b610b4c565b604051610116959493929190611395565b60405180910390f35b61013960048036038101906101349190611265565b610d8f565b005b81600073ffffffffffffffffffffffffffffffffffffffff1660008083815260200190815260200160002060000160009054906101000a900473ffffffffffffffffffffffffffffffffffffffff1673ffffffffffffffffffffffffffffffffffffffff16036101e0576040517f08c379a00000000000000000000000000000000000000000000000000000000081526004016101d790611445565b60405180910390fd5b600073ffffffffffffffffffffffffffffffffffffffff168273ffffffffffffffffffffffffffffffffffffffff160361024f576040517f08c379a0000000000000000000000000000000000000000000000000000000008152600401610246906114b1565b60405180910390fd5b8160008085815260200190815260200160002060020160006101000a81548173ffffffffffffffffffffffffffffffffffffffff021916908373ffffffffffffffffffffffffffffffffffffffff1602179055508173ffffffffffffffffffffffffffffffffffffffff16837fee4c34fdbf5aa1be88257ede50b218a4315953f17570774e7bb571426a3c491f60405160405180910390a3505050565b600081600073ffffffffffffffffffffffffffffffffffffffff1660008083815260200190815260200160002060000160009054906101000a900473ffffffffffffffffffffffffffffffffffffffff1673ffffffffffffffffffffffffffffffffffffffff1603610393576040517f08c379a000000000000000000000000000000000000000000000000000000000815260040161038a90611445565b60405180910390fd5b60008084815260200190815260200160002060020160149054906101000a900460ff16915050919050565b80600073ffffffffffffffffffffffffffffffffffffffff1660008083815260200190815260200160002060000160009054906101000a900473ffffffffffffffffffffffffffffffffffffffff1673ffffffffffffffffffffffffffffffffffffffff1603610463576040517f08c379a000000000000000000000000000000000000000000000000000000000815260040161045a90611445565b60405180910390fd5b8160008060008381526020019081526020016000206040518060a00160405290816000820160009054906101000a900473ffffffffffffffffffffffffffffffffffffffff1673ffffffffffffffffffffffffffffffffffffffff1673ffffffffffffffffffffffffffffffffffffffff1681526020016001820160009054906101000a900473ffffffffffffffffffffffffffffffffffffffff1673ffffffffffffffffffffffffffffffffffffffff1673ffffffffffffffffffffffffffffffffffffffff1681526020016002820160009054906101000a900473ffffffffffffffffffffffffffffffffffffffff1673ffffffffffffffffffffffffffffffffffffffff1673ffffffffffffffffffffffffffffffffffffffff1681526020016002820160149054906101000a900460ff1660038111156105aa576105a9611292565b5b60038111156105bc576105bb611292565b5b81526020016003820154815250509050806020015173ffffffffffffffffffffffffffffffffffffffff163373ffffffffffffffffffffffffffffffffffffffff1614806106765750600073ffffffffffffffffffffffffffffffffffffffff16816040015173ffffffffffffffffffffffffffffffffffffffff16141580156106755750806040015173ffffffffffffffffffffffffffffffffffffffff163373ffffffffffffffffffffffffffffffffffffffff16145b5b6106b5576040517f08c379a00000000000000000000000000000000000000000000000000000000081526004016106ac9061151d565b60405180910390fd5b60008060008681526020019081526020016000209050600160038111156106df576106de611292565b5b8160020160149054906101000a900460ff16600381111561070357610702611292565b5b14610743576040517f08c379a000000000000000000000000000000000000000000000000000000000815260040161073a90611589565b60405180910390fd5b60028160020160146101000a81548160ff0219169083600381111561076b5761076a611292565b5b02179055503373ffffffffffffffffffffffffffffffffffffffff16857ffef313c40a15096b5e2ec6bd9c8a036673f4309e4f891a9c252b7e369674477960405160405180910390a35050505050565b600083036107fe576040517f08c379a00000000000000000000000000000000000000000000000000000000081526004016107f5906115f5565b60405180910390fd5b600073ffffffffffffffffffffffffffffffffffffffff168273ffffffffffffffffffffffffffffffffffffffff16141580156108685750600073ffffffffffffffffffffffffffffffffffffffff168173ffffffffffffffffffffffffffffffffffffffff1614155b6108a7576040517f08c379a000000000000000000000000000000000000000000000000000000000815260040161089e90611661565b60405180910390fd5b600073ffffffffffffffffffffffffffffffffffffffff1660008085815260200190815260200160002060000160009054906101000a900473ffffffffffffffffffffffffffffffffffffffff1673ffffffffffffffffffffffffffffffffffffffff161461094b576040517f08c379a0000000000000000000000000000000000000000000000000000000008152600401610942906116cd565b60405180910390fd5b6040518060a001604052808373ffffffffffffffffffffffffffffffffffffffff1681526020018273ffffffffffffffffffffffffffffffffffffffff168152602001600073ffffffffffffffffffffffffffffffffffffffff168152602001600160038111156109bf576109be611292565b5b81526020014281525060008085815260200190815260200160002060008201518160000160006101000a81548173ffffffffffffffffffffffffffffffffffffffff021916908373ffffffffffffffffffffffffffffffffffffffff16021790555060208201518160010160006101000a81548173ffffffffffffffffffffffffffffffffffffffff021916908373ffffffffffffffffffffffffffffffffffffffff16021790555060408201518160020160006101000a81548173ffffffffffffffffffffffffffffffffffffffff021916908373ffffffffffffffffffffffffffffffffffffffff16021790555060608201518160020160146101000a81548160ff02191690836003811115610ada57610ad9611292565b5b0217905550608082015181600301559050508073ffffffffffffffffffffffffffffffffffffffff168273ffffffffffffffffffffffffffffffffffffffff16847fd4e0aaf5be9b8773c644dfebba8b63f878965712ad8589d85ca4bc9d1b671e2c60405160405180910390a4505050565b600080600080600085600073ffffffffffffffffffffffffffffffffffffffff1660008083815260200190815260200160002060000160009054906101000a900473ffffffffffffffffffffffffffffffffffffffff1673ffffffffffffffffffffffffffffffffffffffff1603610bf9576040517f08c379a0000000000000000000000000000000000000000000000000000000008152600401610bf090611445565b60405180910390fd5b60008060008981526020019081526020016000206040518060a00160405290816000820160009054906101000a900473ffffffffffffffffffffffffffffffffffffffff1673ffffffffffffffffffffffffffffffffffffffff1673ffffffffffffffffffffffffffffffffffffffff1681526020016001820160009054906101000a900473ffffffffffffffffffffffffffffffffffffffff1673ffffffffffffffffffffffffffffffffffffffff1673ffffffffffffffffffffffffffffffffffffffff1681526020016002820160009054906101000a900473ffffffffffffffffffffffffffffffffffffffff1673ffffffffffffffffffffffffffffffffffffffff1673ffffffffffffffffffffffffffffffffffffffff1681526020016002820160149054906101000a900460ff166003811115610d3f57610d3e611292565b5b6003811115610d5157610d50611292565b5b815260200160038201548152505090508060000151816020015182604001518360600151846080015196509650965096509650505091939590929450565b80600073ffffffffffffffffffffffffffffffffffffffff1660008083815260200190815260200160002060000160009054906101000a900473ffffffffffffffffffffffffffffffffffffffff1673ffffffffffffffffffffffffffffffffffffffff1603610e34576040517f08c379a0000000000000000000000000000000000000000000000000000000008152600401610e2b90611445565b60405180910390fd5b8160008060008381526020019081526020016000206040518060a00160405290816000820160009054906101000a900473ffffffffffffffffffffffffffffffffffffffff1673ffffffffffffffffffffffffffffffffffffffff1673ffffffffffffffffffffffffffffffffffffffff1681526020016001820160009054906101000a900473ffffffffffffffffffffffffffffffffffffffff1673ffffffffffffffffffffffffffffffffffffffff1673ffffffffffffffffffffffffffffffffffffffff1681526020016002820160009054906101000a900473ffffffffffffffffffffffffffffffffffffffff1673ffffffffffffffffffffffffffffffffffffffff1673ffffffffffffffffffffffffffffffffffffffff1681526020016002820160149054906101000a900460ff166003811115610f7b57610f7a611292565b5b6003811115610f8d57610f8c611292565b5b81526020016003820154815250509050806020015173ffffffffffffffffffffffffffffffffffffffff163373ffffffffffffffffffffffffffffffffffffffff1614806110475750600073ffffffffffffffffffffffffffffffffffffffff16816040015173ffffffffffffffffffffffffffffffffffffffff16141580156110465750806040015173ffffffffffffffffffffffffffffffffffffffff163373ffffffffffffffffffffffffffffffffffffffff16145b5b611086576040517f08c379a000000000000000000000000000000000000000000000000000000000815260040161107d9061151d565b60405180910390fd5b60008060008681526020019081526020016000209050600260038111156110b0576110af611292565b5b8160020160149054906101000a900460ff1660038111156110d4576110d3611292565b5b14611114576040517f08c379a000000000000000000000000000000000000000000000000000000000815260040161110b90611739565b60405180910390fd5b60038160020160146101000a81548160ff0219169083600381111561113c5761113b611292565b5b02179055503373ffffffffffffffffffffffffffffffffffffffff16857f9d8742de7f296be98449d09f24fc03df2faccaa4d84bf7456f4f6429caa53b5260405160405180910390a35050505050565b600080fd5b6000819050919050565b6111a481611191565b81146111af57600080fd5b50565b6000813590506111c18161119b565b92915050565b600073ffffffffffffffffffffffffffffffffffffffff82169050919050565b60006111f2826111c7565b9050919050565b611202816111e7565b811461120d57600080fd5b50565b60008135905061121f816111f9565b92915050565b6000806040838503121561123c5761123b61118c565b5b600061124a858286016111b2565b925050602061125b85828601611210565b9150509250929050565b60006020828403121561127b5761127a61118c565b5b6000611289848285016111b2565b91505092915050565b7f4e487b7100000000000000000000000000000000000000000000000000000000600052602160045260246000fd5b600481106112d2576112d1611292565b5b50565b60008190506112e3826112c1565b919050565b60006112f3826112d5565b9050919050565b611303816112e8565b82525050565b600060208201905061131e60008301846112fa565b92915050565b60008060006060848603121561133d5761133c61118c565b5b600061134b868287016111b2565b935050602061135c86828701611210565b925050604061136d86828701611210565b9150509250925092565b611380816111e7565b82525050565b61138f81611191565b82525050565b600060a0820190506113aa6000830188611377565b6113b76020830187611377565b6113c46040830186611377565b6113d160608301856112fa565b6113de6080830184611386565b9695505050505050565b600082825260208201905092915050565b7f4f72646572206e6f7420666f756e640000000000000000000000000000000000600082015250565b600061142f600f836113e8565b915061143a826113f9565b602082019050919050565b6000602082019050818103600083015261145e81611422565b9050919050565b7f496e76616c696420636f75726965720000000000000000000000000000000000600082015250565b600061149b600f836113e8565b91506114a682611465565b602082019050919050565b600060208201905081810360008301526114ca8161148e565b9050919050565b7f4e6f742073656c6c65722f636f75726965720000000000000000000000000000600082015250565b60006115076012836113e8565b9150611512826114d1565b602082019050919050565b60006020820190508181036000830152611536816114fa565b9050919050565b7f4f72646572206e6f7420696e2043726561746564207374617465000000000000600082015250565b6000611573601a836113e8565b915061157e8261153d565b602082019050919050565b600060208201905081810360008301526115a281611566565b9050919050565b7f496e76616c6964206f7264657249640000000000000000000000000000000000600082015250565b60006115df600f836113e8565b91506115ea826115a9565b602082019050919050565b6000602082019050818103600083015261160e816115d2565b9050919050565b7f496e76616c696420616464726573730000000000000000000000000000000000600082015250565b600061164b600f836113e8565b915061165682611615565b602082019050919050565b6000602082019050818103600083015261167a8161163e565b9050919050565b7f4f7264657220616c726561647920657869737473000000000000000000000000600082015250565b60006116b76014836113e8565b91506116c282611681565b602082019050919050565b600060208201905081810360008301526116e6816116aa565b9050919050565b7f4f72646572206e6f7420696e2053686970706564207374617465000000000000600082015250565b6000611723601a836113e8565b915061172e826116ed565b602082019050919050565b6000602082019050818103600083015261175281611716565b905091905056fea26469706673582212206513b0da3cbf8aeac04841cfde43591be1c8fe7363e54dc63518494b18ce771064736f6c63430008130033",
  "immutableReferences": {},
  "source": "// SPDX-License-Identifier: MIT\r\npragma solidity ^0.8.19;\r\n\r\ncontract OrderTracking {\r\n    enum Status {\r\n        None,        // 0 (order not created)\r\n        Created,     // 1\r\n        Shipped,     // 2\r\n        Delivered    // 3\r\n    }\r\n\r\n    struct Order {\r\n        address buyer;\r\n        address seller;\r\n        address courier; // optional (0x0 if not assigned)\r\n        Status status;\r\n        uint256 createdAt;\r\n    }\r\n\r\n    mapping(uint256 => Order) private orders;\r\n\r\n    event OrderCreated(uint256 indexed orderId, address indexed buyer, address indexed seller);\r\n    event CourierSet(uint256 indexed orderId, address indexed courier);\r\n    event Shipped(uint256 indexed orderId, address indexed actor);\r\n    event Delivered(uint256 indexed orderId, address indexed actor);\r\n\r\n    modifier orderExists(uint256 orderId) {\r\n        require(orders[orderId].buyer != address(0), \"Order not found\");\r\n        _;\r\n    }\r\n\r\n    modifier onlySellerOrCourier(uint256 orderId) {\r\n        Order memory o = orders[orderId];\r\n        require(\r\n            msg.sender == o.seller || (o.courier != address(0) && msg.sender == o.courier),\r\n            \"Not seller/courier\"\r\n        );\r\n        _;\r\n    }\r\n\r\n    /// @notice Create an order (platform/backend can call this, or you can allow buyers to call it)\r\n    function createOrder(uint256 orderId, address buyer, address seller) external {\r\n        require(orderId != 0, \"Invalid orderId\");\r\n        require(buyer != address(0) && seller != address(0), \"Invalid address\");\r\n        require(orders[orderId].buyer == address(0), \"Order already exists\");\r\n\r\n        orders[orderId] = Order({\r\n            buyer: buyer,\r\n            seller: seller,\r\n            courier: address(0),\r\n            status: Status.Created,\r\n            createdAt: block.timestamp\r\n        });\r\n\r\n        emit OrderCreated(orderId, buyer, seller);\r\n    }\r\n\r\n    /// @notice Assign courier who can confirm shipped/delivery (seller sets it here)\r\n    function setCourier(uint256 orderId, address courier) external orderExists(orderId) {\r\n        require(courier != address(0), \"Invalid courier\");\r\n        // Optional restriction (uncomment if you want only seller to assign):\r\n        // require(msg.sender == orders[orderId].seller, \"Only seller can set courier\");\r\n\r\n        orders[orderId].courier = courier;\r\n        emit CourierSet(orderId, courier);\r\n    }\r\n\r\n    ///  confirmShipped(orderId): Seller/courier confirms item is shipped\r\n    function confirmShipped(uint256 orderId) external orderExists(orderId) onlySellerOrCourier(orderId) {\r\n        Order storage o = orders[orderId];\r\n        require(o.status == Status.Created, \"Order not in Created state\");\r\n\r\n        o.status = Status.Shipped;\r\n        emit Shipped(orderId, msg.sender);\r\n    }\r\n\r\n    ///  confirmDelivery(orderId): Courier or buyer confirms delivery\r\n    function confirmDelivery(uint256 orderId) external orderExists(orderId) onlySellerOrCourier(orderId) {\r\n        Order storage o = orders[orderId];\r\n        require(o.status == Status.Shipped, \"Order not in Shipped state\");\r\n\r\n        o.status = Status.Delivered;\r\n        emit Delivered(orderId, msg.sender);\r\n    }\r\n\r\n    // -------- Read-only helpers --------\r\n\r\n    function getOrderStatus(uint256 orderId) external view orderExists(orderId) returns (Status) {\r\n        return orders[orderId].status;\r\n    }\r\n\r\n    function getOrder(uint256 orderId) external view orderExists(orderId) returns (\r\n        address buyer,\r\n        address seller,\r\n        address courier,\r\n        Status status,\r\n        uint256 createdAt\r\n    ) {\r\n        Order memory o = orders[orderId];\r\n        return (o.buyer, o.seller, o.courier, o.status, o.createdAt);\r\n    }\r\n}\r\n",
  "sourcePath": "C:\\republic poly\\Blockchian\\fa\\arut\\AnythingSGProject\\contracts\\OrderContract.sol",
  "compiler": {
    "name": "solc",
    "version": "0.8.19+commit.7dd6d404.Emscripten.clang"
  },
  "schemaVersion": "3.4.16",
  "updatedAt": "2026-01-30T06:52:44.710Z",
  "networkType": "ethereum",
  "devdoc": {
    "kind": "dev",
    "methods": {},
    "version": 1
  },
  "userdoc": {
    "kind": "user",
    "methods": {
      "confirmDelivery(uint256)": {
        "notice": " confirmDelivery(orderId): Courier or buyer confirms delivery"
      },
      "confirmShipped(uint256)": {
        "notice": " confirmShipped(orderId): Seller/courier confirms item is shipped"
      },
      "createOrder(uint256,address,address)": {
        "notice": "Create an order (platform/backend can call this, or you can allow buyers to call it)"
      },
      "setCourier(uint256,address)": {
        "notice": "Assign courier who can confirm shipped/delivery (seller sets it here)"
      }
    },
    "version": 1
  }
}